:100000000C94FD050C9495460C946A460C943F465E
:100010000C9414490C9427060C9427060C94304930
:100020000C9427060C9427060C9427060C9427069C
:100030000C9427060C94C0460C9427060C942706B3
:100040000C9427060C9427060C94F5450C9427066F
:100050000C94C0450C9496450C9427060C942706E6
:100060000C9427060C9427060C94F0470C94270652
:100070000C9427060C9427060C9427060C9427064C
:100080000C9427060C9427060C94270600407A103F
:10009000F35A00A0724E18090010A5D4E80000E839
:1000A0007648170000E40B54020000CA9A3B000097
:1000B00000E1F505000080969800000040420F0026
:1000C0000000A08601000000102700000000E803E7
:1000D000000000006400000000000A0000000000B2
:1000E0000100000000002C76D888DC674F0823DF71
:1000F000C1DFAE59E1B1B796E5E3E453C63AE65144
:10010000997696E8E6C28426EB898C9B62ED407C6A
:100110006FFCEFBC9C9F40F2BAA56FA5F490055A06
:100120002AF75C936B6CF9676DC11BFCE0E40D472B
:10013000FEF520E6B500D0ED902E0300943577054E
:100140000080841E080000204E0A000000C80C3306
:100150003333330F986E12831141EF8D2114893B95
:10016000E65516CFFEE6DB18D1844B381BF77C1D15
:10017000901DA4BBE424203284725E228100C9F168
:1001800024ECA1E53D276364696E6F707375785840
:100190005B00446F6E65005363616E6E696E67202D
:1001A000666F72205344492D31322073656E736F30
:1001B00072732E2E2E002020696E707574206D696A
:1001C0006E7574653A20002020696E707574206821
:1001D0006F75723A202020002020696E707574209F
:1001E000796561723A202020002020696E70757454
:1001F000206461793A20202020002020696E7075EB
:1002000074206D6F6E74683A202000456E746572BC
:1002100020746865206461746520616E642074696F
:100220006D6520696E20436F6F7264696E617465DD
:100230006420556E6976657273616C2054696D65D2
:100240002028555443293A200044617461206C6F82
:100250006767696E67206F6E6C79206D6F646500EB
:1002600020202020456E7465722047617465776197
:100270007920726164696F2049443A2000417265B7
:1002800020796F75207573696E67206120476174EE
:10029000657761793F2028792F6E293A20004465DF
:1002A0006661756C7420726164696F2049442061D5
:1002B0006363657074656400526164696F204944CA
:1002C00020757064617465640020456E74657220E9
:1002D0006E657720726164696F2049443A20005747
:1002E0006F756C6420796F75206C696B6520746F15
:1002F000206368616E676520746865207261646957
:100300006F2049442066726F6D20746865206465B3
:100310006661756C742076616C75653F2028792F55
:100320006E293A2000496E76616C696420696E74AA
:10033000657276616C2E20456E746572206D656104
:10034000737572656D656E7420696E746572766121
:100350006C202865766572792031302C2031352C5F
:100360002032302C2033302C206F72203630206D1C
:10037000696E73293A2000456E746572206D65615F
:10038000737572656D656E7420696E7465727661E1
:100390006C202865766572792031302C2031352C1F
:1003A0002032302C2033302C206F72203630206DDC
:1003B000696E73293A200053756363657373004156
:1003C000646472657373206368616E67652066613B
:1003D000696C65640043757272656E742061646453
:1003E000726573733A20002020456E746572206137
:1003F0002050726F6A65637420494420287570200C
:10040000746F203520636861726163746572732C48
:100410002065783A20505341293A20004578697484
:100420000044656275672073746174656D656E74F0
:1004300073206F666600446562756720737461742B
:10044000656D656E7473206F6E005475726E2064F6
:10045000656275672073746174656D656E74732071
:100460006F6E3F2028792F6E293A2000446562750F
:10047000672073746174656D656E7473206F6E00B0
:1004800044656275672073746174656D656E74731D
:10049000206F6666005475726E2064656275672011
:1004A00073746174656D656E7473206F66663F204A
:1004B00028792F6E293A200041726520796F7520C6
:1004C0007375726520796F752077616E7420746F13
:1004D00020657261736520616C6C206461746120B9
:1004E00073746F72656420696E206D656D6F7279CB
:1004F0003F2028792F6E293A2000496E76616C6979
:100500006420696E7075742E2052657475726E6900
:100510006E6720746F206D656E752E00456E746574
:10052000722063686F6963653A2000202074202D73
:100530002D3E205072696E74206C61746573742056
:100540006461746100202061202D2D3E205072696D
:100550006E7420616C6C2074686520646174610045
:100560005072696E74206461746120746F207363CB
:100570007265656E3A200054657374206D65617311
:100580007572656D656E74733A0020202041726546
:1005900020796F75207375726520796F752077618A
:1005A0006E7420746F2065726173653F20456E74B0
:1005B000657220792F6E3A20002020204C61742F24
:1005C0006C6F6E672076616C7565732077696C6CF3
:1005D00020617070656172206173202D393939395D
:1005E000393939393920696E20746865206461743D
:1005F0006120737472696E672E00204552524F520B
:100600003A204C6F6E67697475646520696E636F1C
:10061000727265637421002020204C6F6E676974CC
:100620007564653A2000204552524F523A204C6181
:1006300074697475646520696E636F727265637442
:1006400021002020204C617469747564653A200093
:1006500020202053656C656374206F7074696F6E21
:100660003A200020202030203C2D2D20457261733F
:1006700065204C61742F4C6F6E672076616C7565D8
:10068000730020202031203C2D2D20456E74657292
:10069000204C61742F4C6F6E672076616C756573AA
:1006A00000456E7465722073656E736F72206465A9
:1006B000707468732E2055736520272B27206F7266
:1006C00020272D2720746F20696E6469636174652B
:1006D0002061626F7665206F722062656C6F772093
:1006E000736F696C20737572666163653A00456E5D
:1006F00074657220636F6E66696775726174696F85
:100700006E20737472696E673A200052454D494EEF
:100710004445523A2055736520272B27206F7220BD
:10072000272D2720746F20696E64696361746520CA
:1007300061626F7665206F722062656C6F772073DF
:100740006F696C207375726661636520666F7220D5
:100750006465707468732100456E74657220636807
:100760006F6963653A20002020207820203C2D2DE1
:10077000202045786974206D656E75002020203238
:1007800020203C2D2D20204869646520636F6E6613
:10079000696775726174696F6E206F7074696F6ECE
:1007A00073002020206520203C2D2D2020457261E3
:1007B000736520616C6C206461746100202020628C
:1007C00020203C2D2D20205475726E2064656275AA
:1007D000672073746174656D656E7473206F6E2F1E
:1007E0006F6666002020207020203C2D2D20205098
:1007F00072696E74206461746120746F2073637217
:1008000065656E002020206D20203C2D2D2020537A
:100810006574206D6561737572656D656E742069B0
:100820006E74657276616C002020207220203C2D51
:100830002D20204368616E6765204E6F64652072CD
:100840006164696F204944002020206720203C2DEE
:100850002D2020456E74657220476174657761793B
:1008600020726164696F204944002020206C2020A0
:100870003C2D2D2020456E746572206F72206572AC
:10088000617365204C61742F4C6F6E672076616CCC
:10089000756573002020206920203C2D2D202045E7
:1008A0006E7465722070726F6A65637420494400CB
:1008B0002020206320203C2D2D20205365742063B0
:1008C0006C6F636B002020203020203C2D2D2020D9
:1008D000456E74657220636F6E66696775726174C8
:1008E000696F6E20737472696E6700436F6E66691C
:1008F0006775726174696F6E204F7074696F6E7383
:100900003A002020203220203C2D2D2020566965E1
:100910007720636F6E66696775726174696F6E20A8
:100920006F7074696F6E73002020207420203C2D3E
:100930002D2020546573742073656E736F7273007D
:100940002020206420203C2D2D2020456E746572CF
:100950002073656E736F7220646570746873002015
:1009600020206120203C2D2D20204368616E67658A
:10097000205344492D31322073656E736F722061AC
:100980006464726573736573002020206E20203CC0
:100990002D2D20205363616E20666F722064657672
:1009A00069636573206F6E205344492D3132206294
:1009B00075730053656E736F72206D656E753A20A6
:1009C0000043757272656E74206261747465727929
:1009D00020766F6C746167653A20200043757272EF
:1009E000656E74206461746520262074696D653AB3
:1009F00020004D6561737572656D656E7420496E7A
:100A000074657276616C3A2000476174657761792C
:100A100020526164696F2049443A20005261646940
:100A20006F2049443A20004C61742F6C6F6E673A16
:100A3000200050726F6A6563742049443A20004C6C
:100A40006F526120526164696F204672657120287F
:100A50004D487A293A200053657269616C204E75C1
:100A60006D6265723A200056657273696F6E200080
:100A7000536F696C20576174657220446174612002
:100A80004E6574776F726B202D20576972656C65A7
:100A90007373205344492D313220446174616C6F6B
:100AA00067676572204E6F646500496E76616C6998
:100AB0006420726573706F6E7365004E6F2075737E
:100AC000657220726573706F6E7365007274009248
:100AD000740048940078C40000002100240027001E
:100AE0002A0000002200250028002B000000200022
:100AF000230026002900020202020202020204046C
:100B000004040404040403030303030303030101B3
:100B100001010101010101020408102040800102CD
:100B200004081020408001020408102040800102C7
:100B3000040810204080000000010200090A0000A3
:100B4000000004030807000000000000000000008F
:100B50000000000000004552524F523A204C6F6E88
:100B600067697475646520696E636F72726563741A
:100B700021004552524F523A204C61746974756499
:100B80006520696E636F727265637421004552520D
:100B90004F523A204D697373696E67202B2F2D20B9
:100BA0006265666F726520646570746821004552E5
:100BB000524F523A20496E76616C696420696E74B6
:100BC000657276616C202865766572792031302CEB
:100BD0002031352C2032302C2033302C206F7220E5
:100BE0003630206D696E73290070726F6A656374A8
:100BF00049443A200000F049815011241FBECFEF34
:100C0000D0E4DEBFCDBF17E0A0E0B1E0E0E9FFEB4C
:100C100000E00BBF02C007900D92AA3FB107D9F7C1
:100C20002AE1AAEFB7E001C01D92AF3AB207E1F79F
:100C300015E0CCEFD5E004C02197FE010E941B57C0
:100C4000CB3FD107C9F70E94FA4A0C94BB5F0C94C2
:100C500000001092EC0C1092EB0C1092390F0895DA
:100C6000089508954F925F926F927F928F929F9214
:100C7000AF92BF92CF92DF92EF92FF920F931F93AA
:100C80000091240F1091250F2091260F3091270FEE
:100C9000C090200FD090210FE090220FF090230FF2
:100CA000480159018C189D08AE08BF08260137017C
:100CB000401A510A620A730A601771078207930784
:100CC00028F0640D751D861D971DF6CF6C157D05EA
:100CD0008E059F0528F4680D791D8A1D9B1DECCF9C
:100CE0001F910F91FF90EF90DF90CF90BF90AF904A
:100CF0009F908F907F906F905F904F900895BF92DC
:100D0000CF92DF92EF92FF920F931F93CF93DF93D7
:100D1000EC01B62EC880D980EA80FB800091280FB4
:100D20001091290F980150E040E0C701B6010E94E0
:100D30006C55662391F0862F90E0980136952795A3
:100D40008217930700F1081B190BC00ED11EE11C7E
:100D5000F11CC882D982EA82FB82688179818A810A
:100D60009B81BB20A9F00E943206688379838A8325
:100D70009B83DF91CF911F910F91FF90EF90DF90B8
:100D8000CF90BF900895C61AD108E108F108E1CFCD
:100D90000091240F1091250F2091260F3091270FDD
:100DA000061717072807390720F7088319832A83AE
:100DB0003B83DFCFEDEEFCE0A089B18982E08C932C
:100DC000A485B5851C92A685B78580E18C93108E8D
:100DD000A489B58986E08C93A289B3898C918061BE
:100DE0008C93A289B3898C9188608C93A289B389F2
:100DF0008C9180688C930288F389E02D80818F7DAF
:100E00008083089580913C0F90913D0FDC01ED911E
:100E1000FC910484F585E02D0994FF920F931F93B4
:100E2000CF93DF938C01F62ECCE3DFE088819981AC
:100E3000DC01ED91FC910488F589E02D642F099582
:100E400088819981DC01ED91FC910680F781E02D8C
:100E50004F2DB801DF91CF911F910F91FF90099411
:100E6000E82FF0E0EE0FFF1FE35FFE4F718360831A
:100E7000813049F0823071F0809169008360809305
:100E80006900E89A0895809169008C6080936900F8
:100E9000E99A089580916900806380936900EA9AD5
:100EA0000895AF92BF92CF92DF92EF92FF920F938D
:100EB0001F93CF93DF936C017B018B01040F151FF0
:100EC000EB015E01AE18BF08C017D10759F0699158
:100ED000D601ED91FC910190F081E02DC6010995BC
:100EE000892B79F7C501DF91CF911F910F91FF9069
:100EF000EF90DF90CF90BF90AF900895FC01538D9D
:100F0000448D252F30E0842F90E0821B930B5417E3
:100F100018F081509F4F089501970895FC01918D1D
:100F2000828D981759F0A28DAE0FBF2FB11D5D961F
:100F30008C91928D9F5F928F90E008958FEF9FEF3D
:100F40000895FC01918D828D981731F0828DE80F04
:100F5000F11D858D90E008958FEF9FEF0895FC01BE
:100F6000918D828D981B892F90E008958DEE9CE0E5
:100F70000E94AF0721E0892B09F420E0822F089519
:100F8000FC01A48DA80FB92FB11DA35EBE4F9C918B
:100F9000848D8F5F848FA689B7899C93A089B1893E
:100FA0008C91837080648C93938D848D981306C08C
:100FB0000288F389E02D80818F7D808308950F93CF
:100FC0001F93CF93DF93EC0181E0888F9B8D8C8DF5
:100FD000981318C0E889F989808185FF13C09FB7ED
:100FE000F894EE89FF896083E889F98980818370AC
:100FF000806480839FBF81E090E0DF91CF911F915B
:101000000F910895062F1B8D1F5F8C8D81130CC0CF
:101010000FB607FCFACFE889F989808185FFF5CF03
:10102000CE010E94C007F1CFEB8DEC0FFD2FF11D1B
:10103000E35EFE4F00839FB7F8941B8FEA89FB891C
:1010400080818062D6CF0F931F93CF93DF938C0163
:10105000D0E0C0E0F801EC0FFD1F6491662341F081
:101060008DEE9CE00E94DF07892B11F02196F2CFD4
:10107000CE01DF91CF911F910F910895682F8DEED2
:101080009CE00C94DF07CF93DF93EC01888D8823DD
:10109000B9F0AA89BB89E889F9898C9185FD03C0DB
:1010A000808186FD0DC00FB607FCF7CF8C9185FFC0
:1010B000F2CF808185FFEDCFCE010E94C007E9CF3E
:1010C000DF91CF91089580E090E0892B29F00E9474
:1010D000B60781110E94000080E090E0892B49F062
:1010E00080E090E0892B29F00E94000081110C948F
:1010F0000000089581508A3080F5E82FF0E0ED5728
:10110000F74F0C941B5797089B088D089308AD0860
:10111000AD089E08A408A808AE08809180008F77CB
:10112000809380000895809180008F7DF9CF84B5F1
:101130008F7784BD089584B58F7DFBCF8091B000FB
:101140008F778093B00008958091B0008F7DF9CFA4
:10115000809190008F778093900008958091900007
:101160008F7DF9CFCF93DF93282F30E0F901EA5C30
:10117000F44F8491F901EA5EF44FD491F901EA50F9
:10118000F54FC491CC23A1F081110E947A08EC2F75
:10119000F0E0EE0FFF1FE451F54FA591B491EC91F3
:1011A000ED2381E090E009F480E0DF91CF91089594
:1011B00080E090E0FACF1F93CF93DF93282F30E0A9
:1011C000F901EA5CF44F8491F901EA5EF44FD4919D
:1011D000F901EA50F54FC491CC23A9F0162F8111E3
:1011E0000E947A08EC2FF0E0EE0FFF1FEE51F54F52
:1011F000A591B4918FB7F894EC91111108C0D095D6
:10120000DE23DC938FBFDF91CF911F910895DE2BFA
:10121000F8CFCF93DF9390E0FC01EA5EF44F249186
:101220008A50954FFC0184918823D1F090E0880F7B
:10123000991FFC01E852F54FA591B491FC01EE51C4
:10124000F54FC591D49161110EC09FB7F8948C9160
:10125000E22FE0958E238C932881E223E8839FBFC1
:10126000DF91CF9108958FB7F894EC91E22BEC9336
:101270008FBFF6CF8851806480937C0080917A0084
:10128000806480937A0080917A0086FDFCCF809103
:1012900078009091790008953FB7F8948091FC0A06
:1012A0009091FD0AA091FE0AB091FF0A26B5A89B75
:1012B00005C02F3F19F00196A11DB11D3FBFBA2FE8
:1012C000A92F982F8827BC01CD01620F711D811DA8
:1012D000911D43E0660F771F881F991F4A95D1F72C
:1012E00008958F929F92AF92BF92CF92DF92EF922A
:1012F000FF926B017C010E944C094B015C01C114FF
:10130000D104E104F104B9F00E944C09681979098B
:101310008A099B09683E73408105910580F321E0AD
:10132000C21AD108E108F10888EE880E83E0981E01
:10133000A11CB11CE4CFFF90EF90DF90CF90BF9045
:10134000AF909F908F9008952FB7F8946091F80A0E
:101350007091F90A8091FA0A9091FB0A2FBF0895C3
:1013600008958BEF0895CF93DF93FC0122813381A1
:101370002230310569F0EC01638D818D0E94DB081C
:1013800060E0888D0E94DB0882E090E09B838A8386
:10139000DF91CF910895FF920F931F93CF93DF9327
:1013A000EC01162FF42E0FB7F89460E08F890E949D
:1013B000DB088D899E89612F6068DC01ED91FC91CD
:1013C0000190F081E02D0995182F8D899E89DC010F
:1013D000ED91FC910190F081E02D6F2D099561E078
:1013E0008F890E94DB080FBF812FDF91CF911F9162
:1013F0000F91FF9008950F931F93CF938C01C62FE9
:1014000044E06DE40E94CB094BEF4C0F406869E06B
:10141000C801CF911F910F910C94CB09CF93DF930B
:10142000FC01228133812130310549F0EC0140E09B
:1014300061E00E94CB0981E090E09B838A8381E098
:10144000DF91CF910895CF93DF93FC012281338107
:101450002230310549F0EC0141E061E00E94CB0906
:1014600082E090E09B838A83DF91CF910895CF92B1
:10147000DF92EF92FF92CF93DF93EC01CB01BA01A1
:1014800020E034E244E759E40E94985420E034E23A
:1014900044E752E40E943C560E94AE566B017C0128
:1014A000A7016627772766E0CE010E94CB09772740
:1014B0006F2D5E2D4D2D67E0CE010E94CB094C2D86
:1014C00068E0CE010E94CB0981E0DF91CF91FF90CF
:1014D000EF90DF90CF900895CF92DF92EF92FF923E
:1014E0000F931F93CF93DF934C3F08F067C0142FE7
:1014F000072FF62EEC01E881F9810484F585E02DB3
:101500000995CE010E94230A40E06DE0CE010E94C1
:10151000CB094A8560E0CE010E94CB094B8560E093
:10152000CE010E94CB094C8560E0CE010E94CB0920
:101530004D8560E0CE010E94CB09EFB6F89460E0E3
:101540008F890E94DB088D899E89DC01ED91FC91D9
:101550000190F081E02D60E80995CF2CD02E012F6D
:10156000015068F08D899E89F60161916F01DC015F
:10157000ED91FC910190F081E02D0995F1CF61E0B2
:101580008F890E94DB08EFBE44E0410F62E2CE018A
:101590000E94CB098A819B81039771F043E061E04F
:1015A000CE010E94CB0940E460E4CE010E94CB0949
:1015B00083E090E09B838A8381E001C080E0DF913B
:1015C000CF911F910F91FF90EF90DF90CF900895F2
:1015D000CF93DF93FC012281338123303105C9F0A1
:1015E000EC0182819381049771F045E061E0CF01C5
:1015F0000E94CB0940E060E4CE010E94CB0984E068
:1016000090E09B838A83C65EDE4F8881DF91CF9115
:10161000089580E0FBCF0F931F93CF93DF93EC01EE
:10162000162F0FB7F89460E08F890E94DB088D8930
:101630009E89DC01ED91FC910190F081E02D612FFC
:1016400009958D899E89DC01ED91FC910190F081D5
:10165000E02D60E00995182F61E08F890E94DB087A
:101660000FBF812FDF91CF911F910F910895DF92CE
:10167000EF92FF920F931F93CF93DF93EC0162E100
:101680000E940B0B2A813B8124303105A1F4982F55
:10169000907A89F08F8598890196988B8F874FEF84
:1016A00062E1CE01DF91CF911F910F91FF90EF90FA
:1016B000DF900C94CB092A813B812430310511F451
:1016C00086FD0DC02A813B812330310541F783FF20
:1016D000E6CF8B899C8901969C8B8B8B67C063E1DD
:1016E000CE010E940B0B082F60E1CE010E940B0B74
:1016F000482F6DE0CE010E94CB09DFB6F89460E080
:101700008F890E94DB088D899E89DC01ED91FC9117
:101710000190F081E02D60E009957E01BBE1EB0EC8
:10172000F11C102F115070F08D899E89DC01ED9114
:10173000FC910190F081E02D60E00995F701819323
:101740007F01F0CF61E08F890E94DB08DFBE0A8F46
:101750004FEF62E1CE010E94CB096AE1CE010E9407
:101760000B0B89588E878A8DFE01E65EFE4F843012
:10177000C8F08B8D8E838C8D8F838D8D88878E8D19
:1017800089878D81811107C09E818C81981719F0FE
:101790008E818F3F39F489899A8901969A8B898B3A
:1017A00081E080838081882309F479CFCE010E9473
:1017B000230A75CF8091F50A9091F60A009711F0EF
:1017C0000C94370B08958091F30A9091F40A0097D6
:1017D00011F00C94370B08958091F10A9091F20A60
:1017E000009711F00C94370B0895CF93DF93EC0121
:1017F0008D899E89DC01ED91FC910680F781E02DB9
:10180000099561E08F890E94090961E08F890E9432
:10181000DB0864E670E080E090E00E94710981E0FE
:10182000DF91CF910895FF920F931F93CF93DF9392
:101830001F92CDB7DEB7F42E0CE31FE0D8018D91D7
:101840009C91DC01ED91FC91008CF18DE02D0995CE
:10185000F80180819181DC01ED91FC91028CF38D86
:10186000E02D40E060E8099581E289834F2D61E039
:10187000CE0101960E940D070E9402070F90DF9192
:10188000CF911F910F91FF9008952F923F924F9209
:101890005F926F927F928F929F92AF92BF92CF9200
:1018A000DF92EF92FF920F931F93CF93DF938C0100
:1018B0005B016A0119010E94A4092B013C01F12C72
:1018C000E12C0E94A40964197509860997096C1511
:1018D0007D058E059F0508F078C080913C0F9091A2
:1018E0003D0FDC01ED91FC910280F381E02D099523
:1018F000882339F380913C0F90913D0FDC01ED91ED
:10190000FC910480F581E02DA501B8010995C82F4F
:101910008823B9F280913C0F90913D0FDC01ED914D
:10192000FC9100A0F1A1E02D0995D82F80913C0FEA
:1019300090913D0FDC01ED91FC91068CF78DE02D2F
:101940000995882E80913C0F90913D0FDC01ED911F
:10195000FC9102A0F3A1E02D0995982E80913C0FF7
:1019600090913D0FDC01ED91FC9104A0F5A1E02DDB
:10197000099587FDA6CFBFEF8B1631F04D2F692D4E
:101980008CE39FE00E94130CED2FF0E0E45CF04F3D
:10199000DF011B968385891509F493CFF101D0836C
:1019A0009C928C2FDF91CF911F910F91FF90EF9020
:1019B000DF90CF90BF90AF909F908F907F906F906F
:1019C0005F904F903F902F900895C0E0EACF9FB76F
:1019D000F8948091EF0A882319F081508093EF0AE0
:1019E0008091EF0A811105C08CB58F7B8CBD109260
:1019F000EE0A9FBF08958CB58F778CBD08958CB586
:101A000080688CBD0895FC01738362830895FC0196
:101A1000778366830895FC01758364830895089530
:101A200080E00895FC0181850895FC01808508957A
:101A3000FC0187810895FC01868108954095FC0191
:101A400025854223642B65870895FC0164870895EA
:101A5000FC0163870895FC0162870895FC0164839B
:101A60000895FC01658308958F929F92AF92BF9273
:101A7000CF92DF92EF92FF92CF93DF93EC016B0155
:101A80000E94A4094B015C01F12CE12C0E94A409E5
:101A9000681979098A099B096C157D058E059F05D2
:101AA00080F48A819B81039789F381E0DF91CF9154
:101AB000FF90EF90DF90CF90BF90AF909F908F906E
:101AC000089580E0F3CFFC0122813381233031057A
:101AD000D1F381E008958F929F92AF92BF92CF92FF
:101AE000DF92EF92FF92CF93DF93EC016B010E94A4
:101AF000A4094B015C01F12CE12C0E94A409681996
:101B000079098A099B096C157D058E059F05A0F44E
:101B1000E881F9810280F381E02DCE0109958823C7
:101B200061F3DF91CF91FF90EF90DF90CF90BF9066
:101B3000AF909F908F90089580E0F3CFCF93DF9385
:101B4000EC01E881F9810280F381E02DCE01099555
:101B50008823B9F3DF91CF91089581E008951F9311
:101B6000CF93DF93EC01162F88819981DC01ED91F1
:101B7000FC910288F389E02D099588819981DC0127
:101B8000ED91FC910688F789E02D612F09951A8364
:101B9000DF91CF911F910895CF92DF92EF92FF9244
:101BA0000F931F93CF936B017C01142F80913C0FF7
:101BB00090913D0FDC01ED91FC910190F081E02DC1
:101BC0000995C82F882309F160913E0F8CE39FE0AF
:101BD0000E94AF0D8CE291E09093450F8093440FEB
:101BE00083E08093460F612F8CE39FE00E94AF0D4E
:101BF00000913C0F10913D0FB701A601C8010E9452
:101C0000370A61E1C8010E94FB098C2FCF911F9117
:101C10000F91FF90EF90DF90CF9008952091CB0A25
:101C2000260F3327331F21323105ECF42091B60CF7
:101C3000FC0190E080E0243069F082E00895A091FA
:101C4000CB0A2191AC014555554FA40FB52FB11DBD
:101C50002C930196861798F38091CB0A680F6093B6
:101C6000CB0A80E0089581E008951092B60C81E0DF
:101C70008093B50C1092900C61E081E10E94DB082A
:101C800061E080E10E94DB08E9EBF0E080818E7F7B
:101C9000808380818D7F808380E28093B80085E49B
:101CA0008093BC0008951092E50C1092E40C109201
:101CB000E30C1092E20C0E94350E80E396E09093C4
:101CC000E10C8093E00C81E396E09093DF0C80932D
:101CD000DE0C0895CF93DF9391E09093AA0A8823B6
:101CE000B9F0C091B800D091BA008091BC008A7B55
:101CF0008093BC0060E081E10E94DB0860E080E14D
:101D00000E94DB080E94350ED093BA00C093B80041
:101D1000DF91CF9108958F929F92AF92BF92CF9211
:101D2000DF92EF92FF920F931F93CF93DF93D091A7
:101D3000E20CD13208F0D7C0182FC091DD0C0E9400
:101D40004C096B017C018091B60C81116BC082E063
:101D50008093B60C1093B50C8FEF8093B40C109257
:101D6000B30CD093B20CADEBBCE0E2E9FCE080E058
:101D7000D81391C01092910C8091910CCC0FC82B6C
:101D8000C093910C8091900C813009F088C0109222
:101D9000900C0E944C096B017C018091910C809306
:101DA000BB008091B80C9091B90CA091BA0CB09185
:101DB000BB0C892B8A2B8B2BA1F00E944C09009124
:101DC000B80C1091B90C2091BA0C3091BB0C6C1965
:101DD0007D098E099F09061717072807390708F498
:101DE00042C08091BC0083FDD8CF85EC8093BC00BD
:101DF0000E944C096B017C018091B60C823009F481
:101E000050C08091B40C8F3F09F46FC08091B40C26
:101E1000803209F46CC08091B40C803309F469C03D
:101E200084E026C08091B80C9091B90CA091BA0CB6
:101E3000B091BB0C892B8A2B8B2B09F484CF0E9489
:101E40004C098090B80C9090B90CA090BA0CB0904E
:101E5000BB0C6C197D098E099F0986169706A8068A
:101E6000B90608F070CF8091B70C0E946A0E85E029
:101E70001092E30C1092E20C1092BC0CDF91CF9107
:101E80001F910F91FF90EF90DF90CF90BF90AF9098
:101E90009F908F9008959D9191938F5F69CF85EE6C
:101EA000A5CF8091B80C9091B90CA091BA0CB091CB
:101EB000BB0C892B8A2B8B2B09F49ECF0E944C09DB
:101EC0000091B80C1091B90C2091BA0C3091BB0C58
:101ED0006C197D098E099F0906171707280739070E
:101EE00008F08ACFC0CF81E0C3CF80E0C1CF82E0CD
:101EF000BFCF83E0BDCFCF92DF92EF92FF920F93DF
:101F00001F93CF93DF93D82FC62F613208F098C06C
:101F10000E944C096B017C018091B60C81116BC051
:101F200081E08093B60C8093B50C9FEF9093B40C36
:101F30001092B30C9C0F9093B20C8093910C8091F3
:101F4000910CDD0FD82BD093910C8091900C8130A7
:101F500009F078C01092900C0E944C096B017C0132
:101F60008091910C8093BB008091B80C9091B90C3A
:101F7000A091BA0CB091BB0C892B8A2B8B2BA1F0B2
:101F80000E944C090091B80C1091B90C2091BA0C28
:101F90003091BB0C6C197D098E099F090617170734
:101FA0002807390708F448C08091BC0083FDD8CFCA
:101FB00085EC8093BC000E944C096B017C018091F0
:101FC000B60C813009F440C08091B30C8C1710F42A
:101FD000C091B30CE2E9FCE0A0E7BCE080E08C1328
:101FE00055C08C2FDF91CF911F910F91FF90EF90F3
:101FF000DF90CF9008958091B80C9091B90CA0918A
:10200000BA0CB091BB0C892B8A2B8B2B09F484CF93
:102010000E944C090091B80C1091B90C2091BA0C97
:102020003091BB0C6C197D098E099F0906171707A3
:102030002807390708F070CF8091B70C0E946A0E0C
:10204000C0E0CFCF85EEB5CF8091B80C9091B90CA0
:10205000A091BA0CB091BB0C892B8A2B8B2B09F465
:10206000AECF0E944C090091B80C1091B90C209190
:10207000BA0C3091BB0C6C197D098E099F090617AB
:1020800017072807390708F09ACFD6CF91919D936B
:102090008F5FA5CF0895E091E50C8091E40CE817DF
:1020A00030F4F0E0E059F34F808190E008958FEF35
:1020B0009FEF08959091E50C8091E40C2FEF3FEF96
:1020C000981748F4E92FF0E0E059F34F208130E011
:1020D0009F5F9093E50CC90108958091E40C909165
:1020E000E50C891B990B0895CF92DF92EF92FF9236
:1020F0000F931F93CF93DF937C01CB018A01209133
:10210000BC0C222389F0EB016B01C40ED51ECC154B
:10211000DD0569F06991D701ED91FC910190F081A5
:10212000E02DC7010995F3CF642F0E940E0EC80160
:10213000DF91CF911F910F91FF90EF90DF90CF90A3
:102140000895CF93DF931F92CDB7DEB769832091B7
:10215000BC0C2223F9F02091E20C203258F021E04F
:1021600030E0FC013383228390E080E00F90DF9128
:10217000CF9108958091E30CE82FF0E0E354F34F02
:10218000998190838F5F8093E30C8093E20C81E0D0
:1021900090E0ECCF61E0CE0101960E940E0EF7CFE9
:1021A000CF93C62F91E09093BC0C98E69093DD0CF2
:1021B0001092E30C1092E20C682F8FE99AE10E94D2
:1021C000A1106C2F8FE99AE10E94A11081E0CF91BC
:1021D0000C948B0ECF93CFB7F8948091EF0A8111B6
:1021E00027C0EAEFFAE08491EAE1FBE09491E82F5E
:1021F000F0E0EE0FFF1FE852F54FA591B491EC917E
:10220000E92321F461E084E00E94DB0861E084E0DE
:102210000E9409098CB580618CBD8CB580648CBD31
:1022200061E087E00E94090961E085E00E940909F8
:102230008091EF0A8F5F8093EF0ACFBFCF9108950F
:10224000FC01268137812115310591F121303105BD
:1022500059F12230310551F12330310549F52CE097
:102260009CB5937F922B9CBD84819581019711F53C
:102270008CB580628CBD82819381019784309105F9
:10228000E0F4845B9E4FFC0190818CB58C7F292FFC
:102290002370822B8CBD8DB592FB992790F98E7F90
:1022A000892B8DBD0C94EA1024E0DACF28E0D8CF3A
:1022B00020E0D6CF8CB58F7DDDCF95E0E6CFCF92F5
:1022C000DF92EF92FF92CF93DF9360E08DE10E9467
:1022D00009098DE10E943A09B0E0A0E0BC01CD01FE
:1022E000660F771F881F991F0E94375423E333E33B
:1022F00043E550E40E94985420E030E048EC52E47A
:102300000E94985420E030E84FEF53E40E94D055EB
:1023100020E030EC4FE754E40E943C560E94AE5659
:10232000CB0164E670E00E94F356EB01BC0190E043
:1023300080E00E94375420E030E048EC52E40E94F4
:102340003C566B017C01BE0190E080E00E94375456
:102350009B01AC01C701B6010E94D055DF91CF911E
:10236000FF90EF90DF90CF900895CF92DF92EF92A1
:10237000FF92CF93DF9361E08EE00E94090960E055
:1023800088E10E94090961E08EE00E94DB0884EE8A
:1023900093E00197F1F788E10E943A09EC0160E0CF
:1023A0008EE00E94DB08BE0190E080E022E0660F34
:1023B000771F881F991F2A95D1F70E94375423E36E
:1023C00033E343E550E40E94985420E030E048ECC9
:1023D00052E40E94985420E030EC4FEB54E40E9409
:1023E000D05520E030ED4FE355E40E943C560E946A
:1023F000AE56CB0164E670E00E94F356EB01BC01DF
:1024000090E080E00E94375420E030E048EC52E455
:102410000E943C566B017C01BE0190E080E00E946E
:1024200037549B01AC01C701B6010E94D055DF9122
:10243000CF91FF90EF90DF90CF9008958DEE9CE0CC
:102440000E944308EDEEFCE0A289B3898C918F7E57
:102450008C93A289B3898C91877F8C93A289B3894D
:102460008C918F778C93A289B3898C918F7D8C937B
:10247000828D818F60E08FE00E94DB0860E080E069
:102480000E94DB0860E081E00E94DB0880E591E1CA
:102490000E940E0A80B78F7780BFEAE7F0E0808164
:1024A0008F778083F89485B7806885BF85B780680B
:1024B00085BF789483B7817F846083BF83B7816051
:1024C00083BF7894ABE6B0E08C9184608C93A8E6EF
:1024D000B0E08C9181608C9383B7816083BF8895D5
:1024E00083B78E7F83BF8081806880830E94DA06F5
:1024F0000E94EA1061E080E00E94DB0861E081E078
:102500000C94DB088091EE0A882361F09FB7F89461
:102510002091EE0A80914A08213019F48DBB9FBFAB
:1025200008958FBF0895CF93DF93EC0161E0888118
:102530000E94DB080E9482128B818CBD8C818DBD34
:10254000DF91CF9108958EBD00000DB407FEFDCF41
:102550008EB50895862F0C94A3122091EE0A2223A3
:1025600061F02FB7F8943091EE0A313049F43DB361
:1025700030934A083DB33DBB2FBF8CBD9DBD089530
:1025800020934A08FACFCF93DF93EC018CB58B836D
:102590008DB58C838D819E810E94AD1260E0888113
:1025A000DF91CF910C94DB088F929F92AF92BF92F4
:1025B000CF92DF92EF92FF920F931F93CF93DF930F
:1025C0004B015C0128E833E140E050E00E946C558B
:1025D0002A31310510F029E130E06901F12CE12CBC
:1025E000C501B401A7010E946C558901D0E0C0E08B
:1025F000C017D107C8F4A0900A0FB0900B0FC50107
:102600000E94C31285E00E94A31280E00E94A312E0
:10261000982EC5010E94931290FE14C0C701B60106
:102620000E9471092196E4CF80E0DF91CF911F9144
:102630000F91FF90EF90DF90CF90BF90AF909F9061
:102640008F90089581E0F1CF0F931F93CF93DF9385
:10265000EC01162F442339F040E066E00E94241379
:10266000CE010E949312CE010E94C31285E00E9407
:10267000A31280E00E94A312082FCE010E949312A1
:1026800000FDF1CFCE010E94C312812FDF91CF91C7
:102690001F910F910C94A312FF920F931F93CF934E
:1026A000DF93162F072FF82E68EE73E080E090E09E
:1026B0000E94D412882301F1C0910A0FD0910B0F10
:1026C00041E060E2CE010E9424138F2D0E94A312EC
:1026D000802F0E94A312812F0E94A312CE010E947C
:1026E000931268EE73E080E090E0DF91CF911F914C
:1026F0000F91FF900C94D41280E0DF91CF911F9145
:102700000F91FF9008952F923F924F925F926F9298
:102710007F928F929F92AF92BF92CF92DF92EF9271
:10272000FF920F931F93CF93DF936C012A013B011C
:1027300019019A01332780E091E0821B930B912CC1
:10274000812C0115110581F1E8018017910708F42A
:10275000EC0141E062E0C6010E942413862D0E9434
:10276000A312852D0E94A312842D0E94A312510151
:10277000A80CB91C7501F70181917F010E94A31279
:10278000C7018A199B098C179D07A8F3C6010E94EF
:1027900093124C0E5D1E611C711C8C0E9D1E0C1B39
:1027A0001D0B80E091E0CDCFDF91CF911F910F9174
:1027B000FF90EF90DF90CF90BF90AF909F908F9061
:1027C0007F906F905F904F903F902F900895BF92B1
:1027D000CF92DF92EF92FF920F931F93CF93DF93ED
:1027E0007C01EA01B62E690140E06BE00E942413EF
:1027F0008B2D0E94A3128D2F0E94A3128C2F0E945A
:10280000A31280E00E94A312E6010C0D1D1DC0174B
:10281000D10729F080E00E94A3128993F8CFC70165
:10282000DF91CF911F910F91FF90EF90DF90CF90AC
:10283000BF900C9493120F931F93CF93DF9300D00C
:10284000CDB7DEB7AB01BC014C5F5F4F6F4F7F4F21
:1028500002E010E09E012F5F3F4F80910A0F9091A0
:102860000B0F0E94E71320912A0F30912B0F8981C3
:102870009A812817390710F41A82198289819A815E
:102880000F900F90DF91CF911F910F910895CF92EC
:10289000DF92EF92FF926B017C010E941B149C015E
:1028A000009769F0E091280FF091290FBF010E9475
:1028B000F356009721F02E0F3F1F281B390BC7013D
:1028C000B601620F731F811D911DFF90EF90DF9085
:1028D000CF900C9432060F931F93CF93DF93CDB715
:1028E000DEB760970FB6F894DEBF0FBECDBFAB0169
:1028F000BC0100E110E09E012F5F3F4F80910A0F65
:1029000090910B0F0E94E713FE013196CE01419684
:1029100021912F3F79F4E817F907D1F781E060960C
:102920000FB6F894DEBF0FBECDBFDF91CF911F91E0
:102930000F91089580E0F3CF4F925F926F927F9254
:10294000AF92BF92CF92DF92EF92FF920F931F93BD
:10295000CF93DF93CDB7DEB72C970FB6F894DEBFD9
:102960000FBECDBF6B017C015A01FA0110821182AA
:102970001282138204E010E09A01BC01A60180914A
:102980000A0F90910B0F0E94E713F501808191814E
:10299000A281B3818F3F9F4FAF4FBF4F79F0198610
:1029A0001A861B861C86C701B6010E9447142B019C
:1029B0003C01C414D504E604F70411F480E054C0CB
:1029C00004E010E09E01275F3F4FBC01A20180910F
:1029D0000A0F90910B0F0E94E71349855A856B856A
:1029E0007C85F50180819181A281B3810196A11D31
:1029F000B11D84179507A607B70709F451C04F3FCB
:102A00005F4F6F4F7F4FD1F6C301B2010E946B142D
:102A10008823A1F28091280F9091290FC81AD90A12
:102A2000E108F108CD82DE82EF82F886AE014F5FC9
:102A30005F4F6FEFCE0105960E945215882349F132
:102A400049815A816B817C814F5F5F4F6F4F7F4F10
:102A500081E0F501C080D180E280F3804C155D05F6
:102A60006E057F0509F0AACF2C960FB6F894DEBF4D
:102A70000FBECDBFDF91CF911F910F91FF90EF90CF
:102A8000DF90CF90BF90AF907F906F905F904F900E
:102A900008956D817E818F8198850E946B14E4CFAB
:102AA00081E0E2CFCF92DF92EF92FF920F931F93DC
:102AB000CF93DF93EC01D62E7A01688179818A81E8
:102AC0009B810E946B14CC24C39410E000E0882307
:102AD00091F08FEF9FEFDC01F70180839183A28358
:102AE000B38380E0DF91CF911F910F91FF90EF9022
:102AF000DF90CF900895688179818A819B81A701B9
:102B00000E949C148111EECFCC20D9F061E0CE015F
:102B10000E947F06688179818A819B810E946B1463
:102B2000C82E8111D6CF80912A0F90912B0F6091E2
:102B3000280F7091290F0E94F35660177107D8F67D
:102B4000C8CF88819981AA81BB814091280F50917B
:102B5000290F70E060E01D14ACF0841B950BA60BF0
:102B6000B70B88839983AA83BB83688179818A8123
:102B70009B810E943206688379838A839B830F5FDF
:102B80001F4FC8CF840F951FA61FB71FEACF2F92E4
:102B90003F924F925F926F927F928F929F92AF92ED
:102BA000BF92CF92DF92EF92FF920F931F93CF933A
:102BB000DF93CDB7DEB72E970FB6F894DEBF0FBE0A
:102BC000CDBF8C016D87FC01608171818281938111
:102BD0000E946B148823C9F0F80180809180A28044
:102BE000B380FD85F13009F4F5C08091200F9091FC
:102BF000210FA091220FB091230F75016401C81A13
:102C0000D90AEA0AFB0A7D84F3C02091280F30918B
:102C1000290F8091240F9091250FA091260FB0913C
:102C2000270F821B930BA109B109F80180839183BF
:102C3000A283B383AE01475F5F4F6FEFC8010E946D
:102C4000521581110BC0F8016081718182819381DD
:102C50000E946B148111C0CF612C22C18091200F82
:102C60009091210FA091220FB091230FF801808342
:102C70009183A283B383AE014B5F5F4F61E0C801D4
:102C80000E945215F8016081718122819381811126
:102C900002C0822FDDCF4D805E806F8078846B0113
:102CA000E22EF92E8090240F9090250FA090260FF1
:102CB000B090270F8C189D08AE08BF0822E9222E7D
:102CC000332433948091280F9091290FB0E0A0E035
:102CD00088159905AA05BB0520F4B694A794979486
:102CE0008794FFEF3F1252C0C814D904EA04FB04D2
:102CF00008F04CC08091240F9091250FA091260FD1
:102D0000B091270F4091200F5091210F6091220F19
:102D10007091230F841B950BA60BB70B8C0D9D1D7B
:102D2000AE1DBF1D6C017D01C818D908EA08FB085B
:102D3000F801C082D182E282F38260E0C8010E9481
:102D40007F06F80160817181828193810E946B14FA
:102D5000811142CFAE014F5F5F4F632DC8010E94CA
:102D60005215882341F189819A81AB81BC81F1E0C0
:102D70003F1219C0481659066A067B0640F52A9488
:102D8000222009F469CF2C013D019CCFA32D032CF7
:102D9000000CBB0BA50194010E94B855C60ED71EAE
:102DA000E81EF91EC5CF84159505A605B70538F3AD
:102DB00033243394E4CFF80160817181828193815F
:102DC0000E946B14811108CFD301C201D8CF3324E4
:102DD0003A94D5CFC090240FD090250FE090260FC5
:102DE000F090270FC818D908EA08FB0877247394D5
:102DF000F2E9FE87F80160817181828193810E94EE
:102E00006B148111C7C0F80120803180428053804B
:102E1000C201B1016627707F99277051810991091C
:102E20000E9432060E946B14682E8823E9F0C201CA
:102E3000B1010E946B14811117C0FD85F130A1F41E
:102E4000F80180819181A281B3818827907FBB277F
:102E500080839183A283B383AE014F5F5F4F61E0B4
:102E6000C8010E9452151CC0AE014B5F5F4F672D19
:102E7000C8010E945215F80140815181628173811D
:102E8000882309F47EC0FD85FF3F21F5CB01BA01FF
:102E90000E9447140E946B14682E882309F47EC098
:102EA000862D2E960FB6F894DEBF0FBECDBFDF91F4
:102EB000CF911F910F91FF90EF90DF90CF90BF9037
:102EC000AF909F908F907F906F905F904F903F90CA
:102ED0002F9008958091280F9091290F2A013B018E
:102EE000481A590A61087108C301B2010E946B14A3
:102EF000682E8111B1CF77247A948091280F909118
:102F0000290FB0E0A0E08C159D05AE05BF0520F4AB
:102F1000F694E794D794C7948FEF781242C08C143C
:102F20009D04AE04BF04E8F58091240F9091250F15
:102F3000A091260FB091270F4091200F5091210FA3
:102F40006091220F7091230F841B950BA60BB70B7A
:102F5000880D991DAA1DBB1D4C015D018C189D0893
:102F6000AE08BF08F80180829182A282B38260E03D
:102F7000C8010E947F06FE85F150FE87F1113ACF0D
:102F80006BCECB01BA010E946B14882309F4B5CF34
:102F90007194B3CF2D852F3F09F4ADCF772473946F
:102FA000ACCFA72D072C000CBB0BA70196010E94EC
:102FB000B855860E971EA81EB91ED4CFCF93DF93A7
:102FC00000D000D0CDB7DEB7AE014F5F5F4F0E949B
:102FD0009C14882359F069817A818B819C810F90A0
:102FE0000F900F900F90DF91CF9108956FEF7FEFCB
:102FF000CB01F5CF0F931F93CF93DF93EC018CB5EB
:103000008B838DB58C8361E088810E9409090E94C1
:10301000EA1080E58D8381E08E83CE010E949312B9
:10302000CE010E94C3128BEA0E94A312CE010E941D
:10303000931289819A81892B89F441E061E0CE0164
:103040000E94241380E00E94A312CE010E949312DA
:1030500081E0DF91CF911F910F910895CE010E94E1
:10306000C3128FE90E94A31280E00E94A312082FCE
:1030700010E0102F002780E00E94A312082BCE0141
:103080000E94931289819A8180179107B1F280E0A2
:10309000E0CF282F30E094E0359527959A95E1F719
:1030A000922F990F990F291B220F820F0895EF92EB
:1030B000FF920F931F93CF93DF938C01C62FF89449
:1030C000F090B20061E0FC0184850E94DB089C2F37
:1030D00080E031E0992329F083272FEF290F9223F5
:1030E000F9CFF0E88F9FC0011124C82B80E8D9E008
:1030F000982F9C2319F0D1508695FACF8091B20079
:103100008F198A31D8F3F090B200EE24E394F801DD
:103110008485ED1678F460E0C0FF61E00E94DB0872
:103120008091B2008F198A31D8F3F090B200C69521
:10313000E394EDCF60E00E94DB0878948AE090E0B1
:103140008D1B91099AE1899F802D11249091B200E5
:103150009F199817D8F3DF91CF911F910F91FF908E
:10316000EF900895FC0115869091EB0C8091EC0C8A
:10317000981799F0E091EB0CF0E0E650F84F2081C1
:103180008091EB0C90E001966BE470E00E94075791
:103190008093EB0C822F90E008958FEF9FEF0895BE
:1031A0009091EB0C8091EC0C981741F0E091EB0CB6
:1031B000F0E0E650F84F808190E008958FEF9FEFA8
:1031C0000895FC01858581110EC08091EC0C209141
:1031D000EB0C90E0855B9F4F821B91096BE470E0E4
:1031E0000E94075708958FEF9FEF089590E080E0C9
:1031F0000895DC011C969C911C97ECE6F0E0983059
:1032000050F0E3E7F0E0903130F0EBE6F0E0983199
:1032100010F4EDE6F0E08081977021E030E001C02D
:10322000220F9A95EAF72095282320831C968C91EB
:10323000ECE6F0E0883050F0E3E7F0E0803130F089
:10324000EBE6F0E0883110F4EDE6F0E090819111CA
:1032500010C0F0E0E0E0803210F4E8E6F0E09081A9
:10326000883040F0803140F0883140F08EEF892383
:10327000808308958DEFFBCF87EFF9CF8BEFF7CFEA
:10328000CF93DF93EC016330710521F16430710558
:10329000E1F16230710509F05FC060E083E00E94F7
:1032A000090961E083E00E94090961E083E00E946E
:1032B000DB0860E08C850E94090961E08C850E9432
:1032C000090960E08C850E94DB08CE01DF91CF9177
:1032D0000C94F91860E083E00E94090961E083E042
:1032E0000E94090961E083E00E94DB0862E070E06F
:1032F00080E090E00E94710960E08C850E940909DD
:1033000061E08C850E940909E0CF61E083E00E94C2
:10331000090960E083E00E94DB0862E070E080E081
:1033200090E00E94710960E08C850E94DB0860E0FB
:103330008C850E9409097894809168008860809348
:103340006800809173008460809373008FEF809396
:103350004908DF91CF91089561E083E00E94090957
:1033600061E083E00E94DB0860E08C850E94DB085E
:1033700060E0C7CF70E060E08CE29FE00E944019FF
:103380001092EA0C1092E90C8091E80C8093B00046
:103390008091E70C8093B10008958091E90C9091A1
:1033A000EA0C8C529F4061F062E070E08CE29FE09A
:1033B0000E9440198CE29FE09093EA0C8093E90C04
:1033C00086E990E0A0E0B0E08093300F9093310F59
:1033D000A093320FB093330F81EF98ED90933B0F92
:1033E00080933A0F8091B0008093E80C8091B100F7
:1033F0008093E70C1092B00086E08093B1000895AE
:10340000CF93DF9363E070E08CE29FE00E9440196D
:10341000CCE2DFE061E08C850E94DB088CE895E679
:103420000197F1F760E08C850E94DB088CE496E45C
:103430000197F1F7DF91CF9108950F931F93CF93E9
:10344000DF938C010E94001AD0E0C0E0D8011496EE
:103450008D919C911597C817D90790F4ED91FC9127
:10346000309759F41092E60CE6EEFCE060818CE2B5
:103470009FE00E9457182196E9CFEC0FFD1FF6CF71
:1034800064E070E08CE29FE0DF91CF911F910F919B
:103490000C9440191F93CF93DF93EC01162F63E038
:1034A00070E00E944019612FCE010E94571864E01D
:1034B00070E0CE010E94401981E090E0DF91CF9151
:1034C0001F91089581E08093BC0C88E68093DD0C09
:1034D0001092E30C1092E20C60E08FE99AE10E94F6
:1034E000A11081E00E948B0E811142C067E088E646
:1034F0000E947B0F1092E50C8093E40C8FE99AE117
:103500000E945A108F770E9449188093690C8FE9A6
:103510009AE10E945A100E94491880936A0C8FE920
:103520009AE10E945A108F7B0E94491880936B0C7D
:103530008FE99AE10E945A1080936C0C8FE99AE10E
:103540000E945A100E94491880936D0C8FE99AE1ED
:103550000E945A108F770E94491880936E0C8FE951
:103560009AE10E945A100E944918825E80936F0C63
:103570008091690C8093A10A80916A0C8093030B5F
:1035800080916B0C8093A20A80916D0C8093A50AA8
:1035900080916E0C8093A60A80916F0C90E08E54FF
:1035A000984F9093A40A8093A30A62E370E080E0AE
:1035B00090E00C947109CF9391E09093BC0C98E645
:1035C0009093DD0C1092E30C1092E20C682F8FE9BF
:1035D0009AE10E94A11081E00E948B0E81110DC022
:1035E00061E088E60E947B0F1092E50C8093E40C6A
:1035F0008FE99AE10E945A10C82F8C2FCF9108951D
:103600001F93CF93DF9381E08093BC0C88E6809377
:10361000DD0C1092E30C1092E20C60E08FE99AE16D
:103620000E94A110C9E6DCE028811AE0822F612FF8
:103630000E94E756682F660F680F660F620F8FE9CA
:103640009AE10E94A1102981822F612F0E94E756E2
:10365000682F660F680F660F620F8FE99AE10E946C
:10366000A1102A81822F612F0E94E756682F660FD2
:10367000680F660F620F8FE99AE10E94A1106B81BB
:103680008FE99AE10E94A1102C81822F612F0E9464
:10369000E756682F660F680F660F620F8FE99AE191
:1036A0000E94A1102D81822F612F0E94E756682F62
:1036B000660F680F660F620F8FE99AE10E94A110F2
:1036C0002E812E51822F612F0E94E756682F660FA0
:1036D000680F660F620F8FE99AE10E94A11081E0E6
:1036E0000E948B0EC82F8FE00E94DB1A682F6F7725
:1036F0008FE00E94D0108C2FDF91CF911F91089501
:10370000CF93DF93C82FD62F8EE00E94DB1A4C2F69
:103710004150550B61E070E001C0660F4A95EAF731
:10372000DD2331F0682B8EE0DF91CF910C94D01027
:1037300060956823F8CFCF93DF93C82F8FE00E9466
:10374000DB1AC150DD0B21E030E001C0220FCA9529
:10375000EAF7982F922351F02095622F68238FE08B
:103760000E94D01081E0DF91CF91089580E0FBCFDF
:103770000F931F93CF93DF93EC010E94001A8E01E9
:10378000FE0101900020E9F73197EC1BFD0BC80109
:103790008C1B9D0B8E179F0740F4F80161918F01E0
:1037A0008CE29FE00E945718EBCF64E070E08CE25F
:1037B0009FE0DF91CF911F910F910C944019FC0174
:1037C00001900020E9F73197AF01481B590BBC016C
:1037D0008DEE9CE00C9451078CED91E00C94DF1B76
:1037E000CF93DF930E942308EC010E94EC1B8C0F07
:1037F0009D1FDF91CF910895CF93DF93FC0144810A
:103800005581608171818DEE9CE00E945107EC0131
:103810000E94EC1B8C0F9D1FDF91CF910895CF93D9
:10382000DF930E943E08EC010E94EC1B8C0F9D1F51
:10383000DF91CF9108958F929F92AF92BF920F9395
:103840001F93CF93DF93CDB7DEB7A1970FB6F89450
:10385000DEBF0FBECDBF19A2423008F44AE08E0190
:103860000F5D1F4F842E912CB12CA12CA50194012A
:103870000E946C55E62FB901CA01EA30F4F4E05D0C
:10388000D801EE938D01232B242B252B79F790E083
:1038900080E0109719F0CD010E94DF1BA1960FB6B2
:1038A000F894DEBF0FBECDBFDF91CF911F910F9176
:1038B000BF90AF909F908F900895E95CE1CF682F03
:1038C00070E090E080E04AE00C941B1CCF93DF9303
:1038D0000E945F1CEC010E94EC1B8C0F9D1FDF916E
:1038E000CF910895CF93DF934AE00E941B1CEC0117
:1038F0000E94EC1B8C0F9D1FDF91CF910895CF92FA
:10390000DF92EF92FF92CF93DF930E94A4096B01A5
:103910007C0120E1C20E27E2D21EE11CF11C1092B4
:10392000A90A1092A80A0E94A4096C157D058E05AB
:103930009F0508F044C08DEE9CE00E94AF0718166A
:1039400019068CF764E670E080E090E00E9471094F
:103950008DEE9CE00E94AF07F82EC1E0DAE0C09047
:10396000A80AD090A90AFC1690F08DEE9CE00E9467
:103970008E07DC9D9001DD9D300D1124C097280F2E
:10398000391F3093A90A2093A80ACF5FE8CF0D2CE6
:10399000000CEE08FF084AE0C701B601F7FE0BC0B5
:1039A0008DE20E943E0866277727CB016C197D09BE
:1039B0008E099F094AE00E941B1C0E94EC1B6AE0D2
:1039C00070E080E090E0DF91CF91FF90EF90DF908A
:1039D000CF900C947109CF93DF93D0E0C0E00097B3
:1039E00019F00E94DF1BEC010E94EC1B8C0F9D1F45
:1039F000DF91CF9108958F929F92AF92BF92CF9215
:103A0000DF92EF92FF921F93CF93DF93CDB7DEB794
:103A100064970FB6F894DEBF0FBECDBF6B017C017B
:103A200049015A0168E873E180E090E00E94D412F5
:103A3000182F882309F410C2C092200FD092210FB2
:103A4000E092220FF092230F8092240F9092250F84
:103A5000A092260FB092270F80E290E09093290F5A
:103A60008093280F80E090E190932B0F80932A0F92
:103A7000F8948FEF9FEFDC0180930C0F90930D0F64
:103A8000A0930E0FB0930F0F8093100F9093110F10
:103A9000A093120FB093130F8093140F9093150FF0
:103AA000A093160FB093170F8093180F9093190FD0
:103AB000A0931A0FB0931B0F6091200F7091210FEC
:103AC0008091220F9091230F0E946B14882309F498
:103AD000C0C08090200F9090210FA090220FB09036
:103AE000230F6091240F7091250F8091260F9091E4
:103AF000270F681979098A099B0996958795779503
:103B00006795680D791D8A1D9B1D0E946B14882383
:103B100009F49FC08091200F9091210FA091220F56
:103B2000B091230F898B9A8BAB8BBC8B8D879E8733
:103B3000AF87B88B69897A898B899C896093100FCC
:103B40007093110F8093120F9093130FCD84DE8426
:103B5000EF84F888C0920C0FD0920D0FE0920E0FF8
:103B6000F0920F0F0E9447146093140F7093150F7B
:103B70008093160F9093170F6B017C01CC2420EFDC
:103B8000D222FF246C157D058E059F0509F0A6C184
:103B90006093180F7093190F80931A0F90931B0F57
:103BA0006091180F7091190F80911A0F90911B0F4F
:103BB0000E9432066093180F7093190F80931A0FAA
:103BC00090931B0F8091100F9091110FA091120FE5
:103BD000B091130F0097A048B10508F486C1109268
:103BE0001C0F10921D0F10921E0F10921F0F789431
:103BF0008FED91E00E94EB1C0E94EC1B60910C0F7A
:103C000070910D0F80910E0F90910F0F0E94DE1793
:103C10006091100F7091110F8091120F9091130FFE
:103C20000E94DE178DEE9CE00E944308812F64966F
:103C30000FB6F894DEBF0FBECDBFDF91CF911F91BD
:103C4000FF90EF90DF90CF90BF90AF909F908F90BC
:103C500008958091200F9091210FA091220FB09193
:103C6000230F898B9A8BAB8BBC8BAE014B5F5F4F65
:103C70006FEFCE0141960E94521581111DC08091B7
:103C8000200F9091210FA091220FB091230F898BCB
:103C90009A8BAB8BBC8BAE014B5F5F4F61E0CE016B
:103CA00041960E945215811107C08FEF9FEFDC01F2
:103CB0008D839E83AF83B8872091280F3091290F81
:103CC0008091240F9091250FA091260FB091270F7E
:103CD000821B930BA109B109898B9A8BAB8BBC8B8F
:103CE000AE01475F5F4F6FEFCE0141960E945215C4
:103CF000811107C08FEF9FEFDC0189879A87AB871F
:103D0000BC8789849A84AB84BC848091200F909175
:103D1000210FA091220FB091230F4D815E816F8101
:103D200078854F3F5F4F6F4F7F4F09F18B208A207F
:103D30008920809409F096C08D879E87AF87B88BC5
:103D4000AE014F5F5F4F61E0CE010D960E945215AC
:103D50008823E1F12091280F3091290F8091240FC1
:103D60009091250FA091260FB091270F9AC0209116
:103D7000280F3091290F4091240F5091250F609109
:103D8000260F7091270F421B530B610971098B207D
:103D90008A208920809409F48DC0498B5A8B6B8BC3
:103DA0007C8B8D879E87AF87B88BAE014F5F5F4F4F
:103DB0006FEFCE0141960E945215882339F061E0E1
:103DC000CE010D960E94C7158111B4CE89899A89BA
:103DD000AB89BC89C816D906EA06FB06E1F58D85D4
:103DE0009E85AF85B889C816D906EA06FB0699F5FF
:103DF00080E090E0A0E8B0E08093100F9093110F66
:103E0000A093120FB093130F80930C0F90930D0F8C
:103E1000A0930E0FB0930F0FC092140FD092150FF6
:103E2000E092160FF092170F80E1D80EE11CF11C02
:103E3000C092180FD092190FE0921A0FF0921B0F38
:103E40008FEF9FEFDC0180931C0F90931D0FA093C9
:103E50001E0FB0931F0F789486EF91E00E94EB1C29
:103E600010E0E4CE19861A861B861C864FEF5FEFA2
:103E7000BA014D835E836F8378878D879E87AF8776
:103E8000B88B61E0CE010D960E94C715882309F416
:103E90009DCF2091280F3091290F8D859E85AF856C
:103EA000B889821B930BA109B109898B9A8BAB8BC3
:103EB000BC8B10C08D879E87AF87B88B498B5A8B80
:103EC0006B8B7C8B61E0CE010D960E94C715882319
:103ED00009F47CCF6FEFCE01419674CF705F8F4FA6
:103EE0009F4F6627707F992753CE4CE15FE061E0DA
:103EF00080E19FE00E9452157ACE0C94DF1B8091E6
:103F00001301882331F10E94621A65E38BE00E945D
:103F1000D01068E18CE00E94D01060E88DE00E9433
:103F2000D0108091A70A882371F084E192E00E946A
:103F30007D1F82E10E945F1C80E796E00E947D1F4A
:103F400083E20E94661C62E370E080E090E00C94E3
:103F500071090895CF93DF93482F5091030B852F5C
:103F600090E0E091ED0BE4133FC0CE2FD0E08C0F3A
:103F70009D1F6CE370E00E940757BE010E94075727
:103F8000E69FE02D1124E0938B0A20918B0A822F6B
:103F90006AE00E94E756C82FCC0FC80FCC0FC20FA3
:103FA00060E087E00E94D0106C2F88E00E94D01063
:103FB00060E889E00E94D01060E88AE00E94D0109A
:103FC0008091A70A882341F086E292E00E947D1F3B
:103FD00080918B0A0E94661C62E370E080E090E0B2
:103FE000DF91CF910C947109840F911D8C33910551
:103FF0003CF06CE370E00E94075780938B0AC5CFBA
:10400000450F40938B0AC1CFCF93DF93EC0188819A
:104010009981009711F00E94C757198218821D825A
:104020001C821B821A82DF91CF910895FC0180814E
:104030009181009711F00C94C75708952F923F92E9
:104040004F925F927F928F929F92AF92BF92CF9248
:10405000DF92EF92FF920F931F93CF93DF9300D0E5
:1040600000D000D0CDB7DEB74B015C01AE014F5F91
:104070005F4F0E949C14782E81111DC086E392E050
:104080000E94EB1C872D26960FB6F894DEBF0FBE5C
:10409000CDBFDF91CF911F910F91FF90EF90DF90F7
:1040A000CF90BF90AF909F908F907F905F904F90F8
:1040B0003F902F90089506E010E09E012F5F3F4F44
:1040C000B501A40180910A0F90910B0F0E94E71394
:1040D0004D805E80620186E0C81AD108C201059752
:1040E0000E942B577C010091240F1091250F2091E5
:1040F000260F3091270FB501A4014A5F5F4F6F4F24
:104100007F4FD501C401840D951DA11DB11D1C015A
:104110002D0180910A0F90910B0F021513052405B4
:10412000350560F5065011095801A818B908850130
:1041300097010E94E71386010A191B0997012A0DAE
:104140003B1D4091200F5091210F6091220F7091E3
:10415000230F80910A0F90910B0F0E94E713F70134
:10416000EC0DFD1D1082C7010E94EB1C8DEE9CE042
:104170000E944308C7010E94C75784CF8601970158
:10418000ECCF2F923F924F925F926F927F928F92DD
:104190009F92AF92BF92CF92DF92EF92FF920F93D6
:1041A0001F93CF93DF93CDB7DEB72A970FB6F8945E
:1041B000DEBF0FBECDBFFC01698304811581C8013C
:1041C00087509F4F6AEF70E00E94F356662309F410
:1041D0002AC129812A874F016150698790E080E0D8
:1041E000212C312C210133940115110509F41BC137
:1041F0000B3F110550F15C013AEFA30EB11C0A5FB1
:10420000110966246394712C681A790A6A0C7B1C64
:10421000498540934710A8E4B0E18A159B05D8F47E
:10422000F401248135818217930738F4208131818C
:10423000F901E80FF91F232B21F41092E60CE6EEAA
:10424000FCE020812D930196E8CF5801A80EB91EFD
:1042500010E000E0D6CFF090430FF394F092430FBC
:10426000C12CEE24E394EC0C8091460F8C1508F4DD
:10427000F4C080913C0F90913D0FDC01ED91FC91D9
:10428000008CF18DE02D6F2D099580913C0F909160
:104290003D0FDC01ED91FC91028CF38DE02D40E8A7
:1042A00060E009954A85662D87E490E10E940D073C
:1042B0000E940207BA85BF3F09F4D1C0E1E0EE15C4
:1042C00098F480913F0F9091400FA091410FB091D1
:1042D000420F0196A11DB11D80933F0F9093400F97
:1042E000A093410FB093420F0E94A40969837A837F
:1042F0008B839C83C090440FD090450F0E940B513C
:10430000A20191010E948E559B01AC01D6010E9431
:10431000AD55A20191010E948E552C0D3D1DCE2C54
:10432000C901B0E0A0E08D839E83AF83B8870E946F
:10433000A40929813A814B815C81621B730B840B38
:10434000950B2D813E814F81588562177307840735
:10435000950708F086CF80913C0F90913D0FDC01CE
:10436000ED91FC910280F381E02D09958823F9F20B
:1043700080913C0F90913D0FDC01ED91FC91048008
:10438000F581E02D50E040E070E060E00995882381
:1043900071F280913C0F90913D0FDC01ED91FC9109
:1043A00000A0F1A1E02D0995D82E80913C0F9091AD
:1043B0003D0FDC01ED91FC91068CF78DE02D099508
:1043C000782E80913C0F90913D0FDC01ED91FC9196
:1043D00002A0F3A1E02D0995E82E80913C0F909169
:1043E0003D0FDC01ED91FC9104A0F5A1E02D0995B4
:1043F000BA85BD1108C090913E0F971104C087FF88
:1044000002C0FE1461F187FD92CFED2DF0E0E45C77
:10441000F04F83858E118BCF4D2D6E2D8CE39FE059
:104420000E94130C84CF81E02A960FB6F894DEBF69
:104430000FBECDBFDF91CF911F910F91FF90EF90F5
:10444000DF90CF90BF90AF909F908F907F906F90B4
:104450005F904F903F902F90089580E0E5CFE985E1
:10446000E150E987C501C0CE0E9431590F931F93D7
:10447000CF93DF93EC0188819981009759F02A81CD
:104480003B812617370730F081E0DF91CF911F91F4
:104490000F9108958B016F5F7F4F0E9450580097D6
:1044A00059F0998388831B830A832C813D81232BB8
:1044B00059F7FC011082E8CF80E0E7CFEF92FF923E
:1044C0000F931F93CF93DF936115710541F480E043
:1044D000DF91CF911F910F91FF90EF9008954115BB
:1044E0005105B1F07B01EC010C811D81040F151FFA
:1044F000B8010E943622882351F3288139818C81AA
:104500009D81B701820F931F0E9465591D830C8303
:1045100081E0DECF0F931F93CF93DF9300D000D0C5
:10452000CDB7DEB74AE08E010F5F1F4FB80190E0B4
:104530000E947551F80101900020E9F73197AF0111
:10454000401B510BB8018BE692E10E945E220F9056
:104550000F900F900F90DF91CF911F910F910895C1
:104560000F931F93CF93DF93CDB7DEB764970FB64A
:10457000F894DEBF0FBECDBF8E010F5F1F4F22E04C
:1045800044E00E94A150FC0101900020E9F731971E
:10459000AF01481B590BBC018BE692E10E945E22E1
:1045A00064960FB6F894DEBF0FBECDBFDF91CF91FA
:1045B0001F910F910895CF93DF9300D0CDB7DEB751
:1045C00069831A8241E050E0BE016F5F7F4F0E9415
:1045D0005E220F900F90DF91CF910895FB01019023
:1045E0000020E9F73197AF01461B570B0C945E2270
:1045F000EF92FF920F931F93CF93DF93EC017B0118
:104600008A01BA010E94362281110BC0CE010E949C
:104610000420CE01DF91CF911F910F91FF90EF9079
:1046200008951D830C83B701888199810E94655983
:10463000F0CFFC0111821082138212821582148243
:1046400050E040E06EED71E00C94F822CF93DF93E0
:1046500000D000D000D0CDB7DEB70E94CD1964E6FF
:1046600070E080E090E00E947109CE0101960E9406
:10467000192360919E0ACE0101960E94DB226EE40E
:1046800072E0CE0101960E94EE22CE0101960E94B8
:104690001D1A6CE271E080E090E00E9471098CE2EA
:1046A0009FE00E94E118892B29F08CE29FE00E9494
:1046B000B218F5CF64E170E080E090E00E947109EB
:1046C0000E94BA1964E170E080E090E00E947109F4
:1046D000CE0101960E94162026960FB6F894DEBFF2
:1046E0000FBECDBFDF91CF910895CF93DF9300D060
:1046F00000D000D0CDB7DEB70E94CD1964E670E0DF
:1047000080E090E00E947109CE0101960E94192379
:1047100060919E0ACE0101960E94DB2262E572E062
:10472000CE0101960E94EE22CE0101960E941D1A32
:104730006CE271E080E090E00E9471098CE29FE001
:104740000E94E118892B29F08CE29FE00E94B218A8
:10475000F5CF64E170E080E090E00E9471090E9472
:10476000BA1964E170E080E090E00E947109CE0126
:1047700001960E94162026960FB6F894DEBF0FBE53
:10478000CDBFDF91CF910895FB0101900020E9F7A3
:104790003197AF01461B570B0C94F8220F931F93D0
:1047A000CF93DF9300D000D000D0CDB7DEB7182F65
:1047B000CE0101960E9419236EED71E0CE010196A3
:1047C0000E94C423612FCE0101960E94DB2265E97D
:1047D00074E0CE0101960E94EE2203E010E0CE01CB
:1047E00001960E941D1A64E670E080E090E00E944D
:1047F00071098CE29FE00E94E118181619064CF02E
:1048000064E670E080E090E00E94710901501109B7
:1048100031F78CE29FE00E94E11802979CF00E9421
:10482000290611E0CE0101960E941620812F2696BE
:104830000FB6F894DEBF0FBECDBFDF91CF911F91B1
:104840000F9108950E94290610E0ECCFCF93DF93DB
:10485000EC01FB018617970749F0608171816115B2
:10486000710541F0448155810E94F822CE01DF910B
:10487000CF9108950E940420F9CFCF93DF9300D009
:1048800000D000D0CDB7DEB71A8219821C821B82FD
:104890001E821D826BE672E1CE0101960E942624E3
:1048A000409175125091761260917112709172124E
:1048B000CE0101960E945E22811104C0CE010196B4
:1048C0000E940420BE016F5F7F4F81E792E10E944A
:1048D0002624CE0101960E94162064E670E080E056
:1048E00090E00E94710981E792E10E94FC1B62E363
:1048F00070E080E090E00E94710926960FB6F8946F
:10490000DEBF0FBECDBFDF91CF910895CF92DF9272
:10491000EF92FF920F931F93CF93DF93EC017B01F4
:104920008A01E881F9810280F381E02D0995D82E72
:10493000882329F1E114F104D1F001151105B9F032
:10494000CFB6F8948A8D8350990BF80120812817EF
:1049500019061CF08A8D84508083F801408150E054
:10496000BE01615E7F4FC7010E943659CFBE8FB72F
:10497000F894FE01E65EFE4F10821A8E8FBF8D2DD9
:10498000DF91CF911F910F91FF90EF90DF90CF902B
:104990000895EF92FF920F931F93CF93DF9300D070
:1049A0001F92CDB7DEB78C010E94F50BE82E811166
:1049B0000CC0E12C8E2D0F900F900F90DF91CF91B6
:1049C0001F910F91FF90EF900895F801808D8A302C
:1049D00009F47EC08B3009F47DC022E0F22E8230D3
:1049E00041F740E861E0C8010E94CB096AE070E04D
:1049F00080E090E00E94710961E0C8010E940B0B09
:104A00008038B9F660E0F801808D0E940909F8014C
:104A1000818D8F3F49F48091F00A843050F691E007
:104A2000980F9093F00A818FF801818DE82FF0E0C4
:104A3000EE0FFF1FEF50F54F118300836CEE7BE00C
:104A4000882349F063EE7BE0813029F0823009F061
:104A5000B0CF6AED7BE08F2D0E94300740E06EE022
:104A6000C8010E94CB0940E06FE0C8010E94CB0959
:104A7000C8010E94230A43E050E06CEC7AE0CE01CA
:104A800001960E946C5149816DE1C8010E94CB09D9
:104A90004A816EE1C8010E94CB094B8166E2C801E0
:104AA0000E94CB0940E060E2C8010E94CB0948E0C7
:104AB00061E2C8010E94CB0940E050EC64E674E476
:104AC000C8010E94370A6DE0C8010E94FB0972CF3D
:104AD000F12C87CFFF24F39484CF85ED8093BC0025
:104AE0008091B80C9091B90CA091BA0CB091BB0C0C
:104AF0000796A11DB11D23E0B695A79597958795BB
:104B00002A95D1F72091BC0024FD03C01092B60C69
:104B100008954091B80C5091B90C6091BA0C709105
:104B2000BB0C452B462B472B69F30097A105B1051C
:104B300041F02AE12A95F1F700C00197A109B109D6
:104B4000E1CF8091B70C0C946A0ECF92DF92EF9276
:104B5000FF921F93CF93DF93EBE0FBE088ECDF0144
:104B60001D928A95E9F762E370E080E090E00E9490
:104B700071090E94A4096B017C01B0E1CB0EB7E280
:104B8000DB1EE11CF11C0E94A4096C157D058E053D
:104B90009F0540F58DEE9CE00E94AF0718161906A0
:104BA00094F764E670E080E090E00E9471098DEE79
:104BB0009CE00E94AF07EC01F82E10E08DEE9CE027
:104BC0000E948E078D3039F08A3029F0E12FF0E015
:104BD000E55FF44F80831F5FF11680F7DD27C55F27
:104BE000D44F18828BE09BE0DF91CF911F91FF9013
:104BF000EF90DF90CF900C94EB1C0E94A525809144
:104C00000B0B882359F08F7D893559F08E3459F07C
:104C10008AEA9AE00E94F01B83E008958BEB9AE009
:104C2000F9CF81E0089582E008952F923F924F924C
:104C30005F926F927F928F929F92AF92BF92CF922C
:104C4000DF92EF92FF920F931F93CF93DF93CDB735
:104C5000DEB764970FB6F894DEBF0FBECDBFCDB6FA
:104C6000DEB6DE86CD860E943D24E0907512F0907F
:104C70007612FC8AEB8A2DB73EB72E193F090FB684
:104C8000F8943EBF0FBE2DBF8DB79EB701965C0155
:104C90006091711270917212A7010E94365980E5DD
:104CA00091E00E94AD1260E087E10E94DB088BEA90
:104CB0000E94A31261E087E10E94DB080E94821239
:104CC0006EE170E080E090E00E94710980912A0F0F
:104CD00090912B0F06978E159F05A8F586E592E01B
:104CE0000E94EB1C80E591E00E94AD1260E087E13C
:104CF0000E94DB0889EB0E94A31261E087E10E9419
:104D0000DB080E948212ED84FE840FB6F894FEBE8A
:104D10000FBEEDBE64960FB6F894DEBF0FBECDBFDA
:104D2000DF91CF911F910F91FF90EF90DF90CF9087
:104D3000BF90AF909F908F907F906F905F904F90BB
:104D40003F902F9008952DB63EB640901C0F509086
:104D50001D0F60901E0F70901F0F9FEF491A590A88
:104D6000690A790AEB88FC88A6E0EA0EF11C00913A
:104D7000280F1091290FC701B8010E94F356009720
:104D800009F466C10E0D1F1D081B190BEDB7FEB708
:104D9000E01BF10B0FB6F894FEBF0FBEEDBF2DB7B1
:104DA0003EB72F5F3F4F4901ADB7BEB711964D9249
:104DB0005D926D927C921497F901F582E4828DB731
:104DC0009EB707964B895C89B5010E943659A801A8
:104DD0004E195F0970E060E0C4018E0D9F1D0E94B6
:104DE0003F592801712C612C4091140F5091150FDF
:104DF0006091160F7091170FC090240FD090250F5F
:104E0000E090260FF090270FCF86D88AE98AFA8A99
:104E1000D301C801840F951FA61FB71FE0910A0F89
:104E2000F0910B0FC816D906EA06FB0608F012C16E
:104E30005601A41AB50A7801EA18FB088501940105
:104E4000CF010E94831364EF71E080E090E00E9444
:104E5000D41294012A0D3B1D4091200F5091210F37
:104E60006091220F7091230F870180910A0F90911A
:104E70000B0F0E9483138090140F9090150FA09039
:104E8000160FB090170F80911C0F90911D0FA091DD
:104E90001E0FB0911F0F0196A11DB11D80931C0F15
:104EA00090931D0FA0931E0FB0931F0FC301B2016B
:104EB000680D791D8A1D9B1D0E9432066093140F98
:104EC0007093150F8093160F9093170F705F8F4F8D
:104ED0009F4F6627707F99270E9432062B013C0165
:104EE0000E946B14811128C0C301B2010E944C13AF
:104EF000C301B201705F8F4F9F4F6627707F992764
:104F00000E9432066D837E838F839887AE014F5F48
:104F10005F4F61E0CE0105960E945215882361F033
:104F20008D819E81AF81B88580930C0F90930D0F7A
:104F3000A0930E0FB0930F0F4092180F5092190FBD
:104F400060921A0F70921B0F8092100F9092110FA7
:104F5000A092120FB092130F80910C0F90910D0F31
:104F6000A0910E0FB0910F0F0097A048B10540F02F
:104F700080920C0F90920D0FA0920E0FB0920F0F17
:104F80000FB6F8943EBE0FBE2DBE8091A70A8823AF
:104F900009F4A8CE6091100F7091110F8091120F3B
:104FA0009091130F0E941B147C016091100F70915F
:104FB000110F8091120F9091130F0E941B148C01FE
:104FC000009769F02091280F3091290FB9010E94B4
:104FD000F356009721F0020F131F081B190B8BE6E5
:104FE00092E00E947D1F60911C0F70911D0F8091B7
:104FF0001E0F90911F0F0E94721C8BE792E00E947F
:105000007D1F81E792E10E94FC1B82E892E00E94F2
:105010007D1FCB88DC88B60190E080E04AE00E94EA
:105020001B1C8EE892E00E947D1FB70190E080E09B
:105030004AE00E941B1C8BE992E00E947D1FB80190
:1050400090E080E04AE00E941B1C0E94EC1B4ACECC
:1050500087019CCE9401CF010CCF2F923F924F92AB
:105060005F926F927F928F929F92AF92BF92CF92F8
:10507000DF92EF92FF920F931F93CF93DF93CDB701
:10508000DEB7CE5FD1090FB6F894DEBF0FBECDBF3D
:105090002DB73EB7CB50DF4F39832883C55FD04053
:1050A0006EED71E081E792E10E94C4230E94CD1968
:1050B00064EF71E080E090E00E947109C651DF4F1B
:1050C0001882CA5ED040AE014F5F5F4F2A011E01B9
:1050D00059EC250E311C8091430390914403A0911B
:1050E0004503B0914603C950DF4F88839983AA8353
:1050F000BB83C75FD0402091470330914803409164
:10510000490350914A03C550DF4F288339834A83AE
:105110005B83CB5FD04080919F0AC651DF4F3881BF
:10512000CA5ED040381708F099C6832E912C01E84A
:10513000089DC001099D900D1124FC01E157FD4E11
:105140004081C151DF4F4883CF5ED0403093990AF0
:105150008C01DC01AC54BD4E7D016DEA72E0CD01E5
:105160000E945C59892B09F0B2C081E08093980AB3
:1051700064E670E080E090E00E9471099090980AE7
:105180008091990A082F10E0992009F4D3C5C151E4
:10519000DF4FB881CF5ED040CD52DF4FB883C35DC3
:1051A000D040CC52DF4F1882C45DD040E1E88E9FE2
:1051B000C00111246DEA72E08C549D4E0E945C592E
:1051C00067EB72E0892B11F46BEB72E0CE018C512E
:1051D0009F4F0E946559BE016C517F4FCE018D5289
:1051E0009F4F0E944659CE018D529F4F0E94B81B7F
:1051F00064EF71E080E090E00E9471098CE29FE032
:105200000E94E118843008F401C52DB73EB7CF5095
:10521000DF4F39832883C15FD040C853DF4F1882E6
:10522000C85CD040AE0142585F4F7A0110E000E008
:10523000B12CC02E8CE29FE00E94B218D82E68E0FC
:1052400070E080E090E00E947109D701DD927D015D
:10525000BDE0DB12D2C0EEE7F0E0EC0FFD1FE00F87
:10526000F11F10820E942906BC0CCB2CD12C860188
:10527000015011092DB73EB72C193D090FB6F8940E
:105280003EBF0FBE2DBF4DB75EB74F5F5F4F7A0178
:10529000A12C882483948EE7782EAB1408F0C7C025
:1052A000EEE7F0E0EC0FFD1FE80DF11D8081F70146
:1052B000EA0DF11D8B3209F0B1C07082839465E074
:1052C00070E080E090E00E947109A394E6CFC801ED
:1052D00087549D4E0E94B81B64E670E080E090E029
:1052E0000E9471098CE29FE00E94E11818161906CD
:1052F0000CF07AC06DB67EB681E08093980A8CE29D
:105300009FE00E94E118C851DF4F8883C85ED040FB
:105310006C01DD24EDB7FEB7EC19FD090FB6F8946A
:10532000FEBF0FBEEDBF0DB71EB70F5F1F4FC551BC
:10533000DF4F0883CB5ED04058018A2DC551DF4F27
:10534000F881CB5ED0408F1BC851DF4F2881C85EEB
:10535000D040821740F48CE29FE00E94B218D50141
:105360008D935D01EACF0C0D1D1DF80134978081EE
:10537000082E000C990BC09748EE53E0849F9001D3
:10538000859F300D949F300D11243093970A209300
:10539000960A62EB72E0C7010E945C59892B71F496
:1053A00081E8889DF001899DF00D1124E157FD4EA3
:1053B00003501109D8018C91805387A70FB6F89438
:1053C0007EBE0FBE6DBE6091960A7091970A072E41
:1053D000000C880B990B0E9471090E94290662E358
:1053E00070E080E090E0C8CE88EE93E09093970A5A
:1053F0008093960A1092980AE6CFEDE2DE1201C081
:10540000B3946AE070E080E090E00E9471090F5F61
:105410001F4F0B34110509F00CCF24CF8D3229F426
:10542000A3947082F701EA0DF11D808347CFF70145
:10543000E00FF11F10828091A70A882349F00E9493
:10544000EC1B8FEB92E00E947D1FC7010E94EB1CBA
:105450008091990AA82FB0E0C551DF4FB983A88386
:10546000CB5ED04011E8819FF0011124C851DF4F7D
:10547000F983E883C85ED04064ED72E0CF018C54BC
:105480009D4E0E945C59C851DF4F28813981C85E0A
:10549000D04020573D4E3901892B09F018C34DB734
:1054A0005EB7CD50DF4F59834883C35FD0408DB77F
:1054B0009EB78C199D090FB6F8949EBF0FBE8DBF85
:1054C0000DB71EB70F5F1F4F9E2D802ED801F7011D
:1054D0008E2F891B8B1518F481918D93F9CFC950AC
:1054E000DF4F288139814A815B81C75FD040C0523C
:1054F000DF4F288339834A835B83C05ED040D80165
:105500001196EC901197C452DF4FE882CC5DD040E9
:1055100012968C911297C352DF4F8883CD5DD04095
:105520001396FC90C252DF4FF882CE5DD040C1523C
:10553000DF4F1882CF5DD040BE0164527F4FCE0155
:1055400080529F4F0E945C59892B01F16EE270E0FE
:10555000C8010E945159801B910B823009F451C03F
:105560009927DC011197A00FB11F2C91F801E80FCA
:10557000F91F20830297F801E80FF91F80818C93AF
:105580008EE28083F801EC0DFD1D10828091A70A48
:10559000882339F089ED92E00E947D1FC8010E94A6
:1055A000EB1C8AEE92E00E947D1F6EE770E0C8015E
:1055B0000E947B59801B910B8E5F282F30E0C351D6
:1055C000DF4F39832883CD5ED040B9016150710926
:1055D0004DB75EB7421B530B0FB6F8945EBF0FBEBC
:1055E0004DBFADB7BEB711965D019D01D8019A2F91
:1055F0009819981708F042C09D91F90191939F0165
:10560000F6CF2DB73EB7EDB7FEB7EC19FD090FB6D3
:10561000F894FEBF0FBEEDBF3196D8018C91ADB7A7
:10562000BEB711968C938EE2818380E38283E382FE
:10563000F48244E0842F90E08C159D0568F05E2F85
:10564000C801DF014A2F451B4C151D0488F44D91FC
:10565000FC014193CF01F6CFBF01680F791F800F86
:10566000911FDC018C91DB0111968C934F5FE2CF8F
:105670000FB6F8943EBF0FBE2DBF84CFFB01EA0DDD
:10568000FB1D10828091A70A882319F0C5010E9492
:10569000EB1C0E94290664E170E080E090E00E942B
:1056A0007109C151DF4FF881CF5ED040C253DF4F47
:1056B000F883CE5CD040C153DF4F1882CF5CD0401E
:1056C000C550DF4F288139814A815B81CB5FD04053
:1056D000C852DF4F288339834A835B83C85DD0403B
:1056E000BE0168527F4FCE0182539F4F0E944659A0
:1056F000CE0182539F4F0E94B81B64EF71E080E09F
:1057000090E00E9471098CE29FE00E94E118482F0E
:105710004150550B7A01ADB7BEB7A41BB50B0FB600
:10572000F894BEBF0FBEADBF0DB71EB70F5F1F4FC2
:10573000863030F1812CC82CD12CCE14DF0404F536
:105740008CE29FE00E94B2188D3091F08A3071F0A7
:10575000F801EC0DFD1D8B3281F08D3271F08083EC
:105760006FE070E080E090E00E9471098394E3CFE5
:10577000F801EC0DFD1D1082F9CFBEE7B083F6CF26
:105780008091A70A882339F088EF92E00E947D1F5C
:10579000C8010E94EB1C6EE770E0C8010E947B59B3
:1057A000801B910B282FF801E80FF11D91E08FEF7E
:1057B000890F921760F432913E3749F0322F391B2E
:1057C000C051DF4F3883C05FD0409F5FF0CFC82EFD
:1057D000D12C96012F5F3F4F4DB75EB7421B530B45
:1057E0000FB6F8945EBF0FBE4DBFADB7BEB71196F2
:1057F0007D01D801C051DF4FE881C05FD040AE0FBE
:10580000B11D2E2DF7019E2F921B981718F49D9114
:105810009193F9CFF701EC0DFD1D108264E670E065
:1058200080E090E00E9471098091A70A882369F0C6
:105830008BE093E00E947D1FC7010E94EB1C64E196
:1058400070E080E090E00E947109C351DF4F288131
:105850003981CD5ED040C20ED31E4DB75EB74C1914
:105860005D090FB6F8945EBF0FBE4DBF0DB71EB7F2
:105870000F5F1F4F64E170E080E090E00E947109CB
:10588000B501C8010E94655962E370E080E090E0D4
:105890000E9471098EE7D8018C9362E370E080E08A
:1058A00090E00E947109B701C8010E94465962E365
:1058B00070E080E090E00E9471098091A70A88233F
:1058C00039F089E193E00E947D1FC8010E94EB1C22
:1058D00081E8C551DF4F28813981CB5ED040829F5E
:1058E000F001839FF00D1124E157FD4E20A9809116
:1058F0009F0A8150990BC551DF4F48815981CB5E7A
:10590000D0404817590709F4A1C0222309F47FC0E9
:105910001F930F93C851DF4F88819981C85ED04093
:1059200081549D4E9F938F937F926F9283E293E079
:105930009F938F935F924F920E94A0598DB79EB70D
:105940000A960FB6F8949EBF0FBE8DBF8091A70A2E
:10595000882319F0C2010E94EB1C64E670E080E02D
:1059600090E00E947109B20181E792E10E94EE226B
:1059700062E370E080E090E00E947109CD50DF4F5B
:1059800048815981C35FD0400FB6F8945EBF0FBE07
:105990004DBF64E170E080E090E00E947109CF505B
:1059A000DF4FA881B981C15FD0400FB6F894BEBF68
:1059B0000FBEADBF62E370E080E090E00E9471092D
:1059C00091100BC0B20181E792E10E94EE2262E3E6
:1059D00070E080E090E00E9471090E94290662E375
:1059E00070E080E090E00E94710964EF71E080E077
:1059F00090E00E947109C651DF4F5881CA5ED040C5
:105A00005F5FC651DF4F5883CA5ED04084CB85E0CC
:105A1000ECE4F3E0D10101900D928A95E1F71F9338
:105A20000F933F922F927F926F9283E293E09F9326
:105A30008F935F924F920E94A059ADB7BEB71A964E
:105A40000FB6F894BEBF0FBEADBF80CF2223F9F0D2
:105A50001F930F93C851DF4F88819981C85ED04052
:105A600081549D4E9F938F937F926F928CE293E02F
:105A70009F938F935F924F920E94A059EDB7FEB70C
:105A80003A960FB6F894FEBF0FBEEDBF5FCF85E02C
:105A9000ECE4F3E0D10101900D928A95E1F71F93B8
:105AA0000F933F922F927F926F928CE293E09F939D
:105AB0008F935F924F920E94A0592DB73EB7265FF9
:105AC0003F4F0FB6F8943EBF0FBE2DBF3FCFC5511D
:105AD000DF4F88819981CB5ED040189FF001199FDC
