:100000000C94CC050C9474440C9449440C941E44F8
:100010000C94F3460C94F6050C94F6050C940F47DB
:100020000C94F6050C94F6050C94F6050C94F60564
:100030000C94F6050C949F440C94F6050C94F6056C
:100040000C94F6050C94F6050C94D4430C94F60528
:100050000C949F430C9475430C94F6050C94F60590
:100060000C94F6050C94F6050C94CF450C94F6050B
:100070000C94F6050C94F6050C94F6050C94F60514
:100080000C94F6050C94F6050C94F60500407A10D5
:10009000F35A00A0724E18090010A5D4E80000E839
:1000A0007648170000E40B54020000CA9A3B000097
:1000B00000E1F505000080969800000040420F0026
:1000C0000000A08601000000102700000000E803E7
:1000D000000000006400000000000A0000000000B2
:1000E0000100000000002C76D888DC674F0823DF71
:1000F000C1DFAE59E1B1B796E5E3E453C63AE65144
:10010000997696E8E6C28426EB898C9B62ED407C6A
:100110006FFCEFBC9C9F40F2BAA56FA5F490055A06
:100120002AF75C936B6CF9676DC11BFCE0E40D472B
:10013000FEF520E6B500D0ED902E0300943577054E
:100140000080841E080000204E0A000000C80C3306
:100150003333330F986E12831141EF8D2114893B95
:10016000E65516CFFEE6DB18D1844B381BF77C1D15
:10017000901DA4BBE424203284725E228100C9F168
:1001800024ECA1E53D276364696E6F707375785840
:100190005B00446F6E65005363616E6E696E67202D
:1001A000666F72205344492D31322073656E736F30
:1001B00072732E2E2E002020696E707574206D696A
:1001C0006E7574653A20002020696E707574206821
:1001D0006F75723A202020002020696E707574209F
:1001E000796561723A202020002020696E70757454
:1001F000206461793A20202020002020696E7075EB
:1002000074206D6F6E74683A202000456E746572BC
:1002100020746865206461746520616E642074696F
:100220006D6520696E20436F6F7264696E617465DD
:100230006420556E6976657273616C2054696D65D2
:100240002028555443293A200044617461206C6F82
:100250006767696E67206F6E6C79206D6F646500EB
:1002600020202020456E7465722047617465776197
:100270007920726164696F2049443A2000417265B7
:1002800020796F75207573696E67206120476174EE
:10029000657761793F2028792F6E293A20004465DF
:1002A0006661756C7420726164696F2049442061D5
:1002B0006363657074656400526164696F204944CA
:1002C00020757064617465640020456E74657220E9
:1002D0006E657720726164696F2049443A20005747
:1002E0006F756C6420796F75206C696B6520746F15
:1002F000206368616E676520746865207261646957
:100300006F2049442066726F6D20746865206465B3
:100310006661756C742076616C75653F2028792F55
:100320006E293A2000496E76616C696420696E74AA
:10033000657276616C2E20456E746572206D656104
:10034000737572656D656E7420696E746572766121
:100350006C202865766572792031302C2031352C5F
:100360002032302C2033302C206F72203630206D1C
:10037000696E73293A2000456E746572206D65615F
:10038000737572656D656E7420696E7465727661E1
:100390006C202865766572792031302C2031352C1F
:1003A0002032302C2033302C206F72203630206DDC
:1003B000696E73293A200053756363657373004156
:1003C000646472657373206368616E67652066613B
:1003D000696C65640043757272656E742061646453
:1003E000726573733A20002020456E746572206137
:1003F0002050726F6A65637420494420287570200C
:10040000746F203520636861726163746572732C48
:100410002065783A20505341293A20004578697484
:100420000044656275672073746174656D656E74F0
:1004300073206F666600446562756720737461742B
:10044000656D656E7473206F6E005475726E2064F6
:10045000656275672073746174656D656E74732071
:100460006F6E3F2028792F6E293A2000446562750F
:10047000672073746174656D656E7473206F6E00B0
:1004800044656275672073746174656D656E74731D
:10049000206F6666005475726E2064656275672011
:1004A00073746174656D656E7473206F66663F204A
:1004B00028792F6E293A200041726520796F7520C6
:1004C0007375726520796F752077616E7420746F13
:1004D00020657261736520616C6C206461746120B9
:1004E00073746F72656420696E206D656D6F7279CB
:1004F0003F2028792F6E293A2000496E76616C6979
:100500006420696E7075742E2052657475726E6900
:100510006E6720746F206D656E752E00456E746574
:10052000722063686F6963653A2000202074202D73
:100530002D3E205072696E74206C61746573742056
:100540006461746100202061202D2D3E205072696D
:100550006E7420616C6C2074686520646174610045
:100560005072696E74206461746120746F207363CB
:100570007265656E3A200054657374206D65617311
:100580007572656D656E74733A0020202041726546
:1005900020796F75207375726520796F752077618A
:1005A0006E7420746F2065726173653F20456E74B0
:1005B000657220792F6E3A20002020204C61742F24
:1005C0006C6F6E672076616C7565732077696C6CF3
:1005D00020617070656172206173202D393939395D
:1005E000393939393920696E20746865206461743D
:1005F0006120737472696E672E00204552524F520B
:100600003A204C6F6E67697475646520696E636F1C
:10061000727265637421002020204C6F6E676974CC
:100620007564653A2000204552524F523A204C6181
:1006300074697475646520696E636F727265637442
:1006400021002020204C617469747564653A200093
:1006500020202053656C656374206F7074696F6E21
:100660003A200020202030203C2D2D20457261733F
:1006700065204C61742F4C6F6E672076616C7565D8
:10068000730020202031203C2D2D20456E74657292
:10069000204C61742F4C6F6E672076616C756573AA
:1006A00000456E7465722073656E736F72206465A9
:1006B000707468732E2055736520272B27206F7266
:1006C00020272D2720746F20696E6469636174652B
:1006D0002061626F7665206F722062656C6F772093
:1006E000736F696C20737572666163653A00456E5D
:1006F00074657220636F6E66696775726174696F85
:100700006E20737472696E673A200052454D494EEF
:100710004445523A2055736520272B27206F7220BD
:10072000272D2720746F20696E64696361746520CA
:1007300061626F7665206F722062656C6F772073DF
:100740006F696C207375726661636520666F7220D5
:100750006465707468732100456E74657220636807
:100760006F6963653A20002020207820203C2D2DE1
:10077000202045786974206D656E75002020206FFB
:1007800020203C2D2D20205475726E2064656275EA
:10079000672073746174656D656E7473206F6E2F5E
:1007A0006F6666002020206520203C2D2D202045EE
:1007B0007261736520616C6C20646174610020203B
:1007C000207020203C2D2D20205072696E742064F2
:1007D00061746120746F2073637265656E00202000
:1007E000207420203C2D2D202054657374207365C7
:1007F0006E736F7273002020206120203C2D2D200D
:10080000204368616E6765205344492D313220735F
:10081000656E736F722061646472657373657300D3
:100820002020206E20203C2D2D20205363616E203F
:10083000666F722064657669636573206F6E2053FE
:1008400044492D313220627573002020206D202014
:100850003C2D2D2020536574206D65617375726584
:100860006D656E7420696E74657276616C0020200F
:10087000207220203C2D2D20204368616E6765206A
:100880004E6F646520726164696F204944002020C6
:10089000206720203C2D2D2020456E746572204756
:1008A00061746577617920726164696F20494400E1
:1008B0002020206C20203C2D2D2020456E74657258
:1008C000206F72206572617365204C61742F4C6FCC
:1008D0006E672076616C756573002020206920208A
:1008E0003C2D2D2020456E7465722070726F6A65F4
:1008F0006374204944002020206320203C2D2D20BB
:100900002053657420636C6F636B0020202064208B
:10091000203C2D2D2020456E7465722073656E730A
:100920006F7220646570746873002020203020206E
:100930003C2D2D2020456E74657220636F6E6669B4
:100940006775726174696F6E20737472696E670087
:100950004D656E75206F7074696F6E733A20004339
:10096000757272656E742062617474657279207636
:100970006F6C746167653A20200043757272656E12
:1009800074206461746520262074696D653A2000C6
:100990004D6561737572656D656E7420496E746521
:1009A0007276616C3A2000476174657761792052F4
:1009B0006164696F2049443A2000526164696F2084
:1009C00049443A20004C61742F6C6F6E673A2000E6
:1009D00050726F6A6563742049443A20004C6F522C
:1009E0006120526164696F204672657120284D480C
:1009F0007A293A200053657269616C204E756D62E8
:100A000065723A200056657273696F6E2000536FED
:100A1000696C2057617465722044617461204E6571
:100A200074776F726B202D20576972656C657373D4
:100A3000205344492D313220446174616C6F6767E3
:100A40006572204E6F646500496E76616C69642042
:100A5000726573706F6E7365004E6F20757365728B
:100A600020726573706F6E7365007274009274000B
:100A700048940078C40000002100240027002A00C8
:100A800000002200250028002B0000002000230089
:100A900026002900020202020202020204040404E7
:100AA000040404040303030303030303010101011A
:100AB0000101010101020408102040800102040824
:100AC0001020408001020408102040800102040828
:100AD00010204080000000010200090A0000000010
:100AE00004030807000000000000000000000000F0
:100AF000000000004552524F523A204C6F6E676919
:100B00007475646520696E636F7272656374210029
:100B10004552524F523A204C617469747564652095
:100B2000696E636F727265637421004552524F5251
:100B30003A204D697373696E67202B2F2D206265F3
:100B4000666F726520646570746821004552524F6B
:100B5000523A20496E76616C696420696E746572E0
:100B600076616C202865766572792031302C2031D1
:100B7000352C2032302C2033302C206F7220363030
:100B8000206D696E73290070726F6A6563744944E1
:100B90003A200000CF478E4E11241FBECFEFD0E485
:100BA000DEBFCDBF17E0A0E0B1E0EAEAFBEB00E07A
:100BB0000BBF02C007900D92A43CB107D9F72AE100
:100BC000A4ECB7E001C01D92A237B207E1F715E02F
:100BD000CBECD5E004C02197FE010E942855CA3C09
:100BE000D107C9F70E94D9480C94C85D0C94000045
:100BF0001092AF0C1092AE0C1092FC0E0895089556
:100C00000895982F2091A50C81E0213208F043C06F
:100C10008091A40C8111FCCF80919D0C32E0309327
:100C2000A40C9093A30C9FEF90937B0C10927A0CE2
:100C30002093790CADE7BCE0E9E5FCE090E02913F6
:100C400031C01092580C9091580C880F892B8093CA
:100C5000580C8091A20C813049F51092A20C809121
:100C6000580C8093BB008091BC0083FDF8CF85ECCD
:100C70008093BC008091A40C8230E1F380917B0CC6
:100C80008F3FB1F080917B0C8032A1F080917B0C82
:100C9000803391F084E01092A60C1092A50C109273
:100CA0007C0C08953D9131939F5FC9CF85EEE0CFD5
:100CB00080E0F1CF82E0EFCF83E0EDCF9091A40C04
:100CC0009111FCCF91E09093A40C9093A30C2FEF83
:100CD00020937B0C10927A0C260F2093790C909322
:100CE000580C9091580C880F892B8093580C809148
:100CF000A20C8130F9F41092A20C8091580C8093D0
:100D0000BB008091BC0083FDF8CF85EC8093BC00D4
:100D10008091A40C8130E1F380917A0C861710F455
:100D200060917A0CA9E5BCE0E8E3FCE080E0861382
:100D300003C0089585EEEACF9D9191938F5FF7CF21
:100D40004F925F926F927F928F929F92AF92BF92DB
:100D5000CF92DF92EF92FF920F931F930091E70ED5
:100D60001091E80E2091E90E3091EA0EC090E30E4A
:100D7000D090E40EE090E50EF090E60E48015901A7
:100D80008C189D08AE08BF0826013701401A510A89
:100D9000620A730A601771078207930728F0640DCF
:100DA000751D861D971DF6CF6C157D058E059F055B
:100DB00028F4680D791D8A1D9B1DECCF1F910F91A2
:100DC000FF90EF90DF90CF90BF90AF909F908F906B
:100DD0007F906F905F904F900895BF92CF92DF9277
:100DE000EF92FF920F931F93CF93DF93EC01B62EF8
:100DF000C880D980EA80FB800091EB0E1091EC0E48
:100E0000980150E040E0C701B6010E947953662383
:100E100091F0862F90E098013695279582179307D9
:100E200000F1081B190BC00ED11EE11CF11CC88279
:100E3000D982EA82FB82688179818A819B81BB2089
:100E4000A9F00E94A006688379838A839B83DF913F
:100E5000CF911F910F91FF90EF90DF90CF90BF90B7
:100E60000895C61AD108E108F108E1CF0091E70E14
:100E70001091E80E2091E90E3091EA0E061717073F
:100E80002807390720F7088319832A833B83DFCF9C
:100E9000E0EBFCE0A089B18982E08C93A485B58564
:100EA0001C92A685B78580E18C93108EA489B589A4
:100EB00086E08C93A289B3898C9180618C93A289FE
:100EC000B3898C9188608C93A289B3898C91806856
:100ED0008C930288F389E02D80818F7D8083089533
:100EE0008091FF0E9091000FDC01ED91FC91048444
:100EF000F585E02D0994FF920F931F93CF93DF9315
:100F00008C01F62ECFEFDEE088819981DC01ED9136
:100F1000FC910488F589E02D642F099588819981D9
:100F2000DC01ED91FC910680F781E02D4F2DB80199
:100F3000DF91CF911F910F91FF900994E82FF0E07E
:100F4000EE0FFF1FE35FFE4F71836083813049F036
:100F5000823071F080916900836080936900E89A23
:100F60000895809169008C6080936900E99A0895E2
:100F700080916900806380936900EA9A0895AF9236
:100F8000BF92CF92DF92EF92FF920F931F93CF9376
:100F9000DF936C017B018B01040F151FEB015E01D8
:100FA000AE18BF08C017D10759F06991D601ED916D
:100FB000FC910190F081E02DC6010995892B79F70C
:100FC000C501DF91CF911F910F91FF90EF90DF90BE
:100FD000CF90BF90AF900895FC01538D448D252F85
:100FE00030E0842F90E0821B930B541718F081504F
:100FF0009F4F089501970895FC01918D828D981758
:1010000059F0A28DAE0FBF2FB11D5D968C91928DC0
:101010009F5F928F90E008958FEF9FEF0895FC01FE
:10102000918D828D981731F0828DE80FF11D858D9D
:1010300090E008958FEF9FEF0895FC01918D828DD0
:10104000981B892F90E0089580EB9CE00E941D087A
:1010500021E0892B09F420E0822F0895FC01A48D62
:10106000A80FB92FB11DA35EBE4F9C91848D8F5FD9
:10107000848FA689B7899C93A089B1898C9183704C
:1010800080648C93938D848D981306C00288F389B5
:10109000E02D80818F7D808308950F931F93CF93E0
:1010A000DF93EC0181E0888F9B8D8C8D981318C0A5
:1010B000E889F989808185FF13C09FB7F894EE898C
:1010C000FF896083E889F9898081837080648083E7
:1010D0009FBF81E090E0DF91CF911F910F91089524
:1010E000062F1B8D1F5F8C8D81130CC00FB607FC64
:1010F000FACFE889F989808185FFF5CFCE010E947A
:101100002E08F1CFEB8DEC0FFD2FF11DE35EFE4FAE
:1011100000839FB7F8941B8FEA89FB8980818062E6
:10112000D6CF0F931F93CF93DF938C01D0E0C0E015
:10113000F801EC0FFD1F6491662341F080EB9CE009
:101140000E944D08892B11F02196F2CFCE01DF913C
:10115000CF911F910F910895682F80EB9CE00C9424
:101160004D08CF93DF93EC01888D8823B9F0AA89CD
:10117000BB89E889F9898C9185FD03C0808186FD52
:101180000DC00FB607FCF7CF8C9185FFF2CF8081A1
:1011900085FFEDCFCE010E942E08E9CFDF91CF91E0
:1011A000089580E090E0892B29F00E9424088111A5
:1011B0000E94000080E090E0892B49F080E090E000
:1011C000892B29F00E94000081110C9400000895E1
:1011D00081508A3080F5E82FF0E0EF50F74F0C9403
:1011E000285505090909FB0801091B091B090C09F8
:1011F000120916091C09809180008F778093800066
:101200000895809180008F7DF9CF84B58F7784BD5C
:10121000089584B58F7DFBCF8091B0008F77809348
:10122000B00008958091B0008F7DF9CF809190003B
:101230008F77809390000895809190008F7DF9CFF3
:10124000CF93DF93282F30E0F901EC52F54F8491D2
:10125000F901EC54F54FD491F901EC56F54FC491D6
:10126000CC23A1F081110E94E808EC2FF0E0EE0FF2
:10127000FF1FE657F54FA591B491EC91ED2381E066
:1012800090E009F480E0DF91CF91089580E090E054
:10129000FACF1F93CF93DF93282F30E0F901EC5260
:1012A000F54F8491F901EC54F54FD491F901EC56C6
:1012B000F54FC491CC23A9F0162F81110E94E808A4
:1012C000EC2FF0E0EE0FFF1FE058F54FA591B49121
:1012D0008FB7F894EC91111108C0D095DE23DC9300
:1012E0008FBFDF91CF911F910895DE2BF8CF109221
:1012F000A80C1092A70C1092A60C1092A50C10929C
:10130000A40C81E08093A30C1092A20C61E081E117
:101310000E94490961E080E10E944909E9EBF0E09F
:1013200080818E7F808380818D7F808380E2809327
:10133000B80085E48093BC008FEF95E09093A10CFA
:101340008093A00C80E096E090939F0C80939E0C7D
:101350000895CF93DF9390E0FC01EC54F54F249176
:101360008C56954FFC0184918823D1F090E0880F32
:10137000991FFC01EA58F54FA591B491FC01E05882
:10138000F54FC591D49161110EC09FB7F8948C911F
:10139000E22FE0958E238C932881E223E8839FBF80
:1013A000DF91CF9108958FB7F894EC91E22BEC93F5
:1013B0008FBFF6CF8851806480937C0080917A0043
:1013C000806480937A0080917A0086FDFCCF8091C2
:1013D00078009091790008953FB7F8948091C40AFD
:1013E0009091C50AA091C60AB091C70A26B5A89BDC
:1013F00005C02F3F19F00196A11DB11D3FBFBA2FA7
:10140000A92F982F8827BC01CD01620F711D811D66
:10141000911D43E0660F771F881F991F4A95D1F7EA
:1014200008958F929F92AF92BF92CF92DF92EF92E8
:10143000FF926B017C010E94EC094B015C01C1141D
:10144000D104E104F104B9F00E94EC0968197909AA
:101450008A099B09683E73408105910580F321E06C
:10146000C21AD108E108F10888EE880E83E0981EC0
:10147000A11CB11CE4CFFF90EF90DF90CF90BF9004
:10148000AF909F908F9008952FB7F8946091C00A05
:101490007091C10A8091C20A9091C30A2FBF08952A
:1014A00008958BEF0895CF93DF93FC012281338160
:1014B0002230310569F0EC01638D818D0E9449096C
:1014C00060E0888D0E94490982E090E09B838A83D6
:1014D000DF91CF910895FF920F931F93CF93DF93E6
:1014E000EC01162FF42E0FB7F89460E08F890E945C
:1014F00049098D899E89612F6068DC01ED91FC911D
:101500000190F081E02D0995182F8D899E89DC01CD
:10151000ED91FC910190F081E02D6F2D099561E036
:101520008F890E9449090FBF812FDF91CF911F91B1
:101530000F91FF9008950F931F93CF938C01C62FA7
:1015400044E06DE40E946B0A4BEF4C0F406869E089
:10155000C801CF911F910F910C946B0ACF93DF9329
:10156000FC01228133812130310549F0EC0140E05A
:1015700061E00E946B0A81E090E09B838A8381E0B6
:10158000DF91CF910895CF93DF93FC0122813381C6
:101590002230310549F0EC0141E061E00E946B0A24
:1015A00082E090E09B838A83DF91CF910895CF9270
:1015B000DF92EF92FF92CF93DF93EC01CB01BA0160
:1015C00020E034E244E759E40E94A55220E034E2EE
:1015D00044E752E40E9449540E94BB546B017C01D1
:1015E000A7016627772766E0CE010E946B0A77275E
:1015F0006F2D5E2D4D2D67E0CE010E946B0A4C2DA4
:1016000068E0CE010E946B0A81E0DF91CF91FF90EC
:10161000EF90DF90CF900895CF92DF92EF92FF92FC
:101620000F931F93CF93DF934C3F08F067C0142FA5
:10163000072FF62EEC01E881F9810484F585E02D71
:101640000995CE010E94C30A40E06DE0CE010E94E0
:101650006B0A4A8560E0CE010E946B0A4B8560E010
:10166000CE010E946B0A4C8560E0CE010E946B0A9D
:101670004D8560E0CE010E946B0AEFB6F89460E001
:101680008F890E9449098D899E89DC01ED91FC9129
:101690000190F081E02D60E80995CF2CD02E012F2C
:1016A000015068F08D899E89F60161916F01DC011E
:1016B000ED91FC910190F081E02D0995F1CF61E071
:1016C0008F890E944909EFBE44E0410F62E2CE01DA
:1016D0000E946B0A8A819B81039771F043E061E06D
:1016E000CE010E946B0A40E460E4CE010E946B0AC6
:1016F00083E090E09B838A8381E001C080E0DF91FA
:10170000CF911F910F91FF90EF90DF90CF900895B0
:10171000CF93DF93FC012281338123303105C9F05F
:10172000EC0182819381049771F045E061E0CF0183
:101730000E946B0A40E060E4CE010E946B0A84E0E4
:1017400090E09B838A83C65EDE4F8881DF91CF91D4
:10175000089580E0FBCF0F931F93CF93DF93EC01AD
:10176000162F0FB7F89460E08F890E9449098D8980
:101770009E89DC01ED91FC910190F081E02D612FBB
:1017800009958D899E89DC01ED91FC910190F08194
:10179000E02D60E00995182F61E08F890E944909CA
:1017A0000FBF812FDF91CF911F910F910895DF928D
:1017B000EF92FF920F931F93CF93DF93EC0162E1BF
:1017C0000E94AB0B2A813B8124303105A1F4982F74
:1017D000907A89F08F8598890196988B8F874FEF43
:1017E00062E1CE01DF91CF911F910F91FF90EF90B9
:1017F000DF900C946B0A2A813B812430310511F46F
:1018000086FD0DC02A813B812330310541F783FFDE
:10181000E6CF8B899C8901969C8B8B8B67C063E19B
:10182000CE010E94AB0B082F60E1CE010E94AB0BF2
:10183000482F6DE0CE010E946B0ADFB6F89460E09D
:101840008F890E9449098D899E89DC01ED91FC9167
:101850000190F081E02D60E009957E01BBE1EB0E87
:10186000F11C102F115070F08D899E89DC01ED91D3
:10187000FC910190F081E02D60E00995F7018193E2
:101880007F01F0CF61E08F890E944909DFBE0A8F96
:101890004FEF62E1CE010E946B0A6AE1CE010E9425
:1018A000AB0B89588E878A8DFE01E65EFE4F843031
:1018B000C8F08B8D8E838C8D8F838D8D88878E8DD8
:1018C00089878D81811107C09E818C81981719F0BD
:1018D0008E818F3F39F489899A8901969A8B898BF9
:1018E00081E080838081882309F479CFCE010E9432
:1018F000C30A75CF8091BD0A9091BE0A009711F07E
:101900000C94D70B08958091BB0A9091BC0A009764
:1019100011F00C94D70B08958091B90A9091BA0AEE
:10192000009711F00C94D70B0895CF93DF93EC013F
:101930008D899E89DC01ED91FC910680F781E02D77
:10194000099561E08F890E94A90961E08F890E9451
:10195000490964E670E080E090E00E94110A81E0AD
:10196000DF91CF910895FF920F931F93CF93DF9351
:101970001F92CDB7DEB7F42E0FEF1EE0D8018D9188
:101980009C91DC01ED91FC91008CF18DE02D09958D
:10199000F80180819181DC01ED91FC91028CF38D45
:1019A000E02D40E060E8099581E289834F2D61E0F8
:1019B000CE0101960E947B070E9470070F90DF9175
:1019C000CF911F910F91FF9008952F923F924F92C8
:1019D0005F926F927F928F929F92AF92BF92CF92BF
:1019E000DF92EF92FF920F931F93CF93DF938C01BF
:1019F0005B016A0119010E94440A2B013C01F12C90
:101A0000E12C0E94440A64197509860997096C152E
:101A10007D058E059F0508F078C08091FF0E90919E
:101A2000000FDC01ED91FC910280F381E02D09951E
:101A3000882339F38091FF0E9091000FDC01ED9126
:101A4000FC910480F581E02DA501B8010995C82F0E
:101A50008823B9F28091FF0E9091000FDC01ED9187
:101A6000FC9100A0F1A1E02D0995D82F8091FF0EE7
:101A70009091000FDC01ED91FC91068CF78DE02D2B
:101A80000995882E8091FF0E9091000FDC01ED9159
:101A9000FC9102A0F3A1E02D0995982E8091FF0EF4
:101AA0009091000FDC01ED91FC9104A0F5A1E02DD7
:101AB000099587FDA6CFBFEF8B1631F04D2F692D0D
:101AC0008FEF9EE00E94B30CED2FF0E0E150F14F5C
:101AD000DF011B968385891509F493CFF101D0832B
:101AE0009C928C2FDF91CF911F910F91FF90EF90DF
:101AF000DF90CF90BF90AF909F908F907F906F902E
:101B00005F904F903F902F900895C0E0EACF9FB72D
:101B1000F8948091B70A882319F081508093B70A0E
:101B20008091B70A811105C08CB58F7B8CBD109256
:101B3000B60A9FBF08958CB58F778CBD08958CB57C
:101B400080688CBD0895FC01738362830895FC0155
:101B5000778366830895FC017583648308950895EF
:101B600080E00895FC0181850895FC018085089539
:101B7000FC0187810895FC01868108954095FC0150
:101B800025854223642B65870895FC0164870895A9
:101B9000FC0163870895FC0162870895FC0164835A
:101BA0000895FC01658308958F929F92AF92BF9232
:101BB000CF92DF92EF92FF92CF93DF93EC016B0114
:101BC0000E94440A4B015C01F12CE12C0E94440A62
:101BD000681979098A099B096C157D058E059F0591
:101BE00080F48A819B81039789F381E0DF91CF9113
:101BF000FF90EF90DF90CF90BF90AF909F908F902D
:101C0000089580E0F3CFFC01228133812330310538
:101C1000D1F381E008958F929F92AF92BF92CF92BD
:101C2000DF92EF92FF92CF93DF93EC016B010E9462
:101C3000440A4B015C01F12CE12C0E94440A681912
:101C400079098A099B096C157D058E059F05A0F40D
:101C5000E881F9810280F381E02DCE010995882386
:101C600061F3DF91CF91FF90EF90DF90CF90BF9025
:101C7000AF909F908F90089580E0F3CFCF93DF9344
:101C8000EC01E881F9810280F381E02DCE01099514
:101C90008823B9F3DF91CF91089581E008951F93D0
:101CA000CF93DF93EC01162F88819981DC01ED91B0
:101CB000FC910288F389E02D099588819981DC01E6
:101CC000ED91FC910688F789E02D612F09951A8323
:101CD000DF91CF911F910895CF92DF92EF92FF9203
:101CE0000F931F93CF936B017C01142F8091FF0EF4
:101CF0009091000FDC01ED91FC910190F081E02DBD
:101D00000995C82F882309F16091010F8FEF9EE09C
:101D10000E944F0E8CE291E09093080F8093070F82
:101D200083E08093090F612F8FEF9EE00E944F0E9A
:101D30000091FF0E1091000FB701A601C8010E948B
:101D4000D70A61E1C8010E949B0A8C2FCF911F9195
:101D50000F91FF90EF90DF90CF90089585ED8093E5
:101D6000BC008091BC0084FDFCCF1092A40C0895AF
:101D70002091930A260F3327331F21323105ECF4CB
:101D80002091A40CFC0190E080E0243069F082E016
:101D90000895A091930A2191AC014D58554FA40F7D
:101DA000B52FB11D2C930196861798F38091930A55
:101DB000680F6093930A80E0089581E00895089584
:101DC000E091A80C8091A70CE81730F4F0E0E85CF3
:101DD000F34F808190E008958FEF9FEF08959091E9
:101DE000A80C8091A70C2FEF3FEF981748F4E92F2C
:101DF000F0E0E85CF34F208130E09F5F9093A80C07
:101E0000C90108958091A70C9091A80C891B990B8A
:101E10000895CF92DF92EF92FF920F931F93CF938B
:101E2000DF937C01CB018A0120917C0C222389F075
:101E3000EB016B01C40ED51ECC15DD0569F069916F
:101E4000D701ED91FC910190F081E02DC70109953A
:101E5000F3CF642F0E94B80EC801DF91CF911F917C
:101E60000F91FF90EF90DF90CF900895CF93DF9385
:101E70001F92CDB7DEB7698320917C0C2223F9F045
:101E80002091A50C203258F021E030E0FC01338392
:101E9000228390E080E00F90DF91CF9108958091B0
:101EA000A60CE82FF0E0E358F34F998190838F5F01
:101EB0008093A60C8093A50C81E090E0ECCF61E0CC
:101EC000CE0101960E94B80EF7CFCF93C62F91E0B6
:101ED00090937C0C98E690939D0C1092A60C109217
:101EE000A50C682F82E69AE10E94360F6C2F82E6DD
:101EF0009AE10E94360F81E0CF910C940106CF93B6
:101F0000CFB7F8948091B70A811127C0E8E9FAE0C9
:101F10008491E8EBFAE09491E82FF0E0EE0FFF1FD8
:101F2000EA58F54FA591B491EC91E92321F461E0D1
:101F300084E00E94490961E084E00E94A9098CB50F
:101F400080618CBD8CB580648CBD61E087E00E94AF
:101F5000A90961E085E00E94A9098091B70A8F5F15
:101F60008093B70ACFBFCF910895FC0126813781B6
:101F70002115310591F12130310559F1223031051A
:101F800051F12330310549F52CE09CB5937F922B1C
:101F90009CBD84819581019711F58CB580628CBDC3
:101FA00082819381019784309105E0F4845B9E4F98
:101FB000FC0190818CB58C7F292F2370822B8CBDE6
:101FC0008DB592FB992790F98E7F892B8DBD0C944E
:101FD0007F0F24E0DACF28E0D8CF20E0D6CF8CB531
:101FE0008F7DDDCF95E0E6CFCF92DF92EF92FF922B
:101FF000CF93DF9360E08DE10E94A9098DE10E94FB
:10200000DA09B0E0A0E0BC01CD01660F771F881FA0
:10201000991F0E94445223E333E343E550E40E94B6
:10202000A55220E030E048EC52E40E94A55220E0A6
:1020300030E84FEF53E40E94DD5320E030EC4FE7EF
:1020400054E40E9449540E94BB54CB0164E670E002
:102050000E940055EB01BC0190E080E00E944452D8
:1020600020E030E048EC52E40E9449546B017C01CE
:10207000BE0190E080E00E9444529B01AC01C70188
:10208000B6010E94DD53DF91CF91FF90EF90DF907A
:10209000CF900895CF92DF92EF92FF92CF93DF938C
:1020A00061E08EE00E94A90960E088E10E94A90930
:1020B00061E08EE00E94490984EE93E00197F1F718
:1020C00088E10E94DA09EC0160E08EE00E94490993
:1020D000BE0190E080E022E0660F771F881F991F05
:1020E0002A95D1F70E94445223E333E343E550E4B9
:1020F0000E94A55220E030E048EC52E40E94A55234
:1021000020E030EC4FEB54E40E94DD5320E030ED52
:102110004FE355E40E9449540E94BB54CB0164E64E
:1021200070E00E940055EB01BC0190E080E00E944D
:10213000445220E030E048EC52E40E9449546B01E4
:102140007C01BE0190E080E00E9444529B01AC0102
:10215000C701B6010E94DD53DF91CF91FF90EF9050
:10216000DF90CF90089580EB9CE00E94B108E0EBF7
:10217000FCE0A289B3898C918F7E8C93A289B3896C
:102180008C91877F8C93A289B3898C918F778C9364
:10219000A289B3898C918F7D8C93828D818F60E031
:1021A0008FE00E94490960E080E00E94490960E0F8
:1021B00081E00E94490983E191E10E94AE0A80B763
:1021C0008F7780BFEAE7F0E080818F778083F89493
:1021D00085B7806885BF85B7806885BF789483B7E9
:1021E000817F846083BF83B7816083BF7894ABE6CF
:1021F000B0E08C9184608C93A8E6B0E08C91816013
:102200008C9383B7816083BF889583B78E7F83BFAC
:102210008081806880830E9448070E947F0F61E070
:1022200080E00E94490961E081E00C9449099FB770
:10223000F8942091B60A80911408213019F48DBBCE
:102240009FBF08958FBF0895CF93DF93EC0161E0A6
:1022500088810E9449098091B60A81110E94171154
:102260008B818CBD8C818DBDDF91CF9108958EBD0A
:1022700000000DB407FEFDCF8EB50895862F0C9497
:1022800037112091B60A222361F02FB7F8943091CC
:10229000B60A313049F43DB3309314083DB33DBB29
:1022A0002FBF8CBD9DBD089520931408FACFCF9306
:1022B000DF93EC018CB58B838DB58C838D819E81F2
:1022C0000E94411160E08881DF91CF910C9449090F
:1022D0008F929F92AF92BF92CF92DF92EF92FF9236
:1022E0000F931F93CF93DF934B015C0128E833E1F9
:1022F00040E050E00E9479532A31310510F029E185
:1023000030E06901F12CE12CC501B401A7010E9464
:1023100079538901D0E0C0E0C017D107C8F4A0907C
:10232000CD0EB090CE0EC5010E94571185E00E94DF
:10233000371180E00E943711982EC5010E942411A8
:1023400090FE14C0C701B6010E94110A2196E4CF85
:1023500080E0DF91CF911F910F91FF90EF90DF9080
:10236000CF90BF90AF909F908F90089581E0F1CF74
:102370000F931F93CF93DF93EC01162F442339F073
:1023800040E066E00E94B811CE010E942411CE0107
:102390000E94571185E00E94371180E00E9437119A
:1023A000082FCE010E94241100FDF1CFCE010E9422
:1023B0005711812FDF91CF911F910F910C943711FD
:1023C000FF920F931F93CF93DF93162F072FF82EB3
:1023D00068EE73E080E090E00E946811882301F1CC
:1023E000C091CD0ED091CE0E41E060E2CE010E94B0
:1023F000B8118F2D0E943711802F0E943711812F25
:102400000E943711CE010E94241168EE73E080E033
:1024100090E0DF91CF911F910F91FF900C94681184
:1024200080E0DF91CF911F910F91FF9008952F923F
:102430003F924F925F926F927F928F929F92AF9254
:10244000BF92CF92DF92EF92FF920F931F93CF93A1
:10245000DF936C012A013B0119019A01332780E0C7
:1024600091E0821B930B912C812C0115110581F1B8
:10247000E8018017910708F4EC0141E062E0C60131
:102480000E94B811862D0E943711852D0E943711A8
:10249000842D0E9437115101A80CB91C7501F70158
:1024A00081917F010E943711C7018A199B098C17FE
:1024B0009D07A8F3C6010E9424114C0E5D1E611CED
:1024C000711C8C0E9D1E0C1B1D0B80E091E0CDCF6E
:1024D000DF91CF911F910F91FF90EF90DF90CF9000
:1024E000BF90AF909F908F907F906F905F904F9034
:1024F0003F902F900895BF92CF92DF92EF92FF927C
:102500000F931F93CF93DF937C01EA01B62E6901ED
:1025100040E06BE00E94B8118B2D0E9437118D2F87
:102520000E9437118C2F0E94371180E00E943711D2
:10253000E6010C0D1D1DC017D10729F080E00E9497
:1025400037118993F8CFC701DF91CF911F910F9178
:10255000FF90EF90DF90CF90BF900C9424110F93D9
:102560001F93CF93DF9300D0CDB7DEB7AB01BC0193
:102570004C5F5F4F6F4F7F4F02E010E09E012F5F77
:102580003F4F8091CD0E9091CE0E0E947B122091F4
:10259000ED0E3091EE0E89819A812817390710F4DB
:1025A0001A82198289819A810F900F90DF91CF91C1
:1025B0001F910F910895CF92DF92EF92FF926B01DE
:1025C0007C010E94AF129C01009769F0E091EB0E34
:1025D000F091EC0EBF010E940055009721F02E0FE4
:1025E0003F1F281B390BC701B601620F731F811DE6
:1025F000911DFF90EF90DF90CF900C94A0060F9369
:102600001F93CF93DF93CDB7DEB760970FB6F894E3
:10261000DEBF0FBECDBFAB01BC0100E110E09E01EB
:102620002F5F3F4F8091CD0E9091CE0E0E947B1276
:10263000FE013196CE01419621912F3F79F4E817A2
:10264000F907D1F781E060960FB6F894DEBF0FBEB0
:10265000CDBFDF91CF911F910F91089580E0F3CF0F
:102660004F925F926F927F92AF92BF92CF92DF9222
:10267000EF92FF920F931F93CF93DF93CDB7DEB707
:102680002C970FB6F894DEBF0FBECDBF6B017C0157
:102690005A01FA01108211821282138204E010E0C2
:1026A0009A01BC01A6018091CD0E9091CE0E0E94A0
:1026B0007B12F50180819181A281B3818F3F9F4F71
:1026C000AF4FBF4F79F019861A861B861C86C7014B
:1026D000B6010E94DB122B013C01C414D504E604B0
:1026E000F70411F480E054C004E010E09E01275F7D
:1026F0003F4FBC01A2018091CD0E9091CE0E0E9461
:102700007B1249855A856B857C85F5018081918195
:10271000A281B3810196A11DB11D84179507A6075B
:10272000B70709F451C04F3F5F4F6F4F7F4FD1F64E
:10273000C301B2010E94FF128823A1F28091EB0E27
:102740009091EC0EC81AD90AE108F108CD82DE8218
:10275000EF82F886AE014F5F5F4F6FEFCE010596B7
:102760000E94E613882349F149815A816B817C815B
:102770004F5F5F4F6F4F7F4F81E0F501C080D18089
:10278000E280F3804C155D056E057F0509F0AACF48
:102790002C960FB6F894DEBF0FBECDBFDF91CF9160
:1027A0001F910F91FF90EF90DF90CF90BF90AF906F
:1027B0007F906F905F904F9008956D817E818F81A3
:1027C00098850E94FF12E4CF81E0E2CFCF92DF92A2
:1027D000EF92FF920F931F93CF93DF93EC01D62ECE
:1027E0007A01688179818A819B810E94FF12CC24C1
:1027F000C39410E000E0882391F08FEF9FEFDC019D
:10280000F70180839183A283B38380E0DF91CF912E
:102810001F910F91FF90EF90DF90CF900895688106
:1028200079818A819B81A7010E9430138111EECFAB
:10283000CC20D9F061E0CE010E94ED06688179815B
:102840008A819B810E94FF12C82E8111D6CF809170
:10285000ED0E9091EE0E6091EB0E7091EC0E0E94D9
:10286000005560177107D8F6C8CF88819981AA8171
:10287000BB814091EB0E5091EC0E70E060E01D14B6
:10288000ACF0841B950BA60BB70B88839983AA83A6
:10289000BB83688179818A819B810E94A0066883BD
:1028A00079838A839B830F5F1F4FC8CF840F951F47
:1028B000A61FB71FEACF2F923F924F925F926F925F
:1028C0007F928F929F92AF92BF92CF92DF92EF92C0
:1028D000FF920F931F93CF93DF93CDB7DEB72E9761
:1028E0000FB6F894DEBF0FBECDBF8C016D87FC0123
:1028F00060817181828193810E94FF128823C9F0D7
:10290000F80180809180A280B380FD85F13009F4C8
:10291000F5C08091E30E9091E40EA091E50EB09188
:10292000E60E75016401C81AD90AEA0AFB0A7D8419
:10293000F3C02091EB0E3091EC0E8091E70E909158
:10294000E80EA091E90EB091EA0E821B930BA1094B
:10295000B109F80180839183A283B383AE01475FFD
:102960005F4F6FEFC8010E94E61381110BC0F801A1
:1029700060817181828193810E94FF128111C0CF99
:10298000612C22C18091E30E9091E40EA091E50E9E
:10299000B091E60EF80180839183A283B383AE01E8
:1029A0004B5F5F4F61E0C8010E94E613F801608150
:1029B000718122819381811102C0822FDDCF4D80F0
:1029C0005E806F8078846B01E22EF92E8090E70E96
:1029D0009090E80EA090E90EB090EA0E8C189D0839
:1029E000AE08BF0822E9222E332433948091EB0EE7
:1029F0009091EC0EB0E0A0E088159905AA05BB0502
:102A000020F4B694A79497948794FFEF3F1252C096
:102A1000C814D904EA04FB0408F04CC08091E70E06
:102A20009091E80EA091E90EB091EA0E4091E30E6C
:102A30005091E40E6091E50E7091E60E841B950BAB
:102A4000A60BB70B8C0D9D1DAE1DBF1D6C017D012E
:102A5000C818D908EA08FB08F801C082D182E282CE
:102A6000F38260E0C8010E94ED06F8016081718187
:102A7000828193810E94FF12811142CFAE014F5F8C
:102A80005F4F632DC8010E94E613882341F18981BD
:102A90009A81AB81BC81F1E03F1219C048165906FA
:102AA0006A067B0640F52A94222009F469CF2C019E
:102AB0003D019CCFA32D032C000CBB0BA501940161
:102AC0000E94C553C60ED71EE81EF91EC5CF841539
:102AD0009505A605B70538F333243394E4CFF80100
:102AE00060817181828193810E94FF12811108CFE0
:102AF000D301C201D8CF33243A94D5CFC090E70E8A
:102B0000D090E80EE090E90EF090EA0EC818D908CF
:102B1000EA08FB0877247394F2E9FE87F8016081E4
:102B20007181828193810E94FF128111C7C0F801D7
:102B30002080318042805380C201B1016627707FBE
:102B400099277051810991090E94A0060E94FF12E5
:102B5000682E8823E9F0C201B1010E94FF128111A1
:102B600017C0FD85F130A1F4F80180819181A28127
:102B7000B3818827907FBB2780839183A283B3830F
:102B8000AE014F5F5F4F61E0C8010E94E6131CC0B9
:102B9000AE014B5F5F4F672DC8010E94E613F8013D
:102BA0004081518162817381882309F47EC0FD8553
:102BB000FF3F21F5CB01BA010E94DB120E94FF12F8
:102BC000682E882309F47EC0862D2E960FB6F894C1
:102BD000DEBF0FBECDBFDF91CF911F910F91FF9050
:102BE000EF90DF90CF90BF90AF909F908F907F90AD
:102BF0006F905F904F903F902F9008958091EB0ED3
:102C00009091EC0E2A013B01481A590A610871089B
:102C1000C301B2010E94FF12682E8111B1CF772447
:102C20007A948091EB0E9091EC0EB0E0A0E08C15C0
:102C30009D05AE05BF0520F4F694E794D794C7949C
:102C40008FEF781242C08C149D04AE04BF04E8F5E7
:102C50008091E70E9091E80EA091E90EB091EA0EF6
:102C60004091E30E5091E40E6091E50E7091E60EF6
:102C7000841B950BA60BB70B880D991DAA1DBB1DB8
:102C80004C015D018C189D08AE08BF08F8018082D8
:102C90009182A282B38260E0C8010E94ED06FE85A7
:102CA000F150FE87F1113ACF6BCECB01BA010E94F1
:102CB000FF12882309F4B5CF7194B3CF2D852F3F30
:102CC00009F4ADCF77247394ACCFA72D072C000C5B
:102CD000BB0BA70196010E94C553860E971EA81E26
:102CE000B91ED4CFCF93DF9300D000D0CDB7DEB7DD
:102CF000AE014F5F5F4F0E943013882359F0698106
:102D00007A818B819C810F900F900F900F90DF91B3
:102D1000CF9108956FEF7FEFCB01F5CF282F30E0F3
:102D200094E0359527959A95E1F7922F990F990F91
:102D3000291B220F820F0895EF92FF920F931F938A
:102D4000CF93DF938C01C62FF894F090B20061E02E
:102D5000FC0184850E9449099C2F80E031E0992381
:102D600029F083272FEF290F9223F9CFF0E88F9FC7
:102D7000C0011124C82B80E8D9E0982F9C2319F0BA
:102D8000D1508695FACF8091B2008F198A31D8F34D
:102D9000F090B200EE24E394F8018485ED1678F407
:102DA00060E0C0FF61E00E9449098091B2008F1984
:102DB0008A31D8F3F090B200C695E394EDCF60E08D
:102DC0000E94490978948AE090E08D1B91099AE16C
:102DD000899F802D11249091B2009F199817D8F3E4
:102DE000DF91CF911F910F91FF90EF900895FC011B
:102DF00015869091AE0C8091AF0C981799F0E091E8
:102E0000AE0CF0E0EC53F84F20818091AE0C90E0D6
:102E100001966BE470E00E9414558093AE0C822FF3
:102E200090E008958FEF9FEF08959091AE0C809100
:102E3000AF0C981741F0E091AE0CF0E0EC53F84F76
:102E4000808190E008958FEF9FEF0895FC018585C4
:102E500081110EC08091AF0C2091AE0C90E0855B8B
:102E60009F4F821B91096BE470E00E9414550895F6
:102E70008FEF9FEF089590E080E00895DC011C96AD
:102E80009C911C97ECE6F0E0983050F0E3E7F0E01E
:102E9000903130F0EBE6F0E0983110F4EDE6F0E040
:102EA0008081977021E030E001C0220F9A95EAF707
:102EB0002095282320831C968C91ECE6F0E0883046
:102EC00050F0E3E7F0E0803130F0EBE6F0E08831FD
:102ED00010F4EDE6F0E09081911110C0F0E0E0E038
:102EE000803210F4E8E6F0E09081883040F08031E4
:102EF00040F0883140F08EEF8923808308958DEF74
:102F0000FBCF87EFF9CF8BEFF7CFCF93DF93EC01B8
:102F10006330710521F164307105E1F162307105B2
:102F200009F05FC060E083E00E94A90961E083E0EE
:102F30000E94A90961E083E00E94490960E08C8554
:102F40000E94A90961E08C850E94A90960E08C8536
:102F50000E944909CE01DF91CF910C943E1760E0A9
:102F600083E00E94A90961E083E00E94A90961E071
:102F700083E00E94490962E070E080E090E00E94F6
:102F8000110A60E08C850E94A90961E08C850E948D
:102F9000A909E0CF61E083E00E94A90960E083E035
:102FA0000E94490962E070E080E090E00E94110A0E
:102FB00060E08C850E94490960E08C850E94A90927
:102FC0007894809168008860809368008091730095
:102FD0008460809373008FEF80931308DF91CF910B
:102FE000089561E083E00E94A90961E083E00E9406
:102FF000490960E08C850E94490960E0C7CF70E014
:1030000060E08FEE9EE00E9485171092AD0C10924A
:10301000AC0C8091AB0C8093B0008091AA0C809393
:10302000B10008958091AC0C9091AD0C8F5E9E40E4
:1030300061F062E070E08FEE9EE00E9485178FEEF7
:103040009EE09093AD0C8093AC0C86E990E0A0E0FC
:10305000B0E08093F30E9093F40EA093F50EB0932E
:10306000F60E81EF98ED9093FE0E8093FD0E809109
:10307000B0008093AB0C8091B1008093AA0C1092A9
:10308000B00086E08093B1000895CF93DF9363E0B2
:1030900070E08FEE9EE00E948517CFEEDEE061E0EB
:1030A0008C850E9449098CE895E60197F1F760E06C
:1030B0008C850E9449098CE496E40197F1F7DF9131
:1030C000CF9108950F931F93CF93DF938C010E94AC
:1030D0004518D0E0C0E0D80114968D919C911597C9
:1030E000C817D90790F4ED91FC91309759F41092DC
:1030F000A90CE9EAFCE060818FEE9EE00E949C163C
:103100002196E9CFEC0FFD1FF6CF64E070E08FEE63
:103110009EE0DF91CF911F910F910C9485171F9323
:10312000CF93DF93EC01162F63E070E00E948517C8
:10313000612FCE010E949C1664E070E0CE010E94D7
:10314000851781E090E0DF91CF911F91089581E094
:1031500080937C0C88E680939D0C1092A60C1092B4
:10316000A50C60E082E69AE10E94360F81E00E94A1
:103170000106811142C067E088E60E945E06109257
:10318000A80C8093A70C82E69AE10E94EF0E8F773D
:103190000E948E168093310C82E69AE10E94EF0E17
:1031A0000E948E168093320C82E69AE10E94EF0E06
:1031B0008F7B0E948E168093330C82E69AE10E94E8
:1031C000EF0E8093340C82E69AE10E94EF0E0E948B
:1031D0008E168093350C82E69AE10E94EF0E8F776F
:1031E0000E948E168093360C82E69AE10E94EF0EC2
:1031F0000E948E16825E8093370C8091310C8093F2
:103200006A0A8091320C8093CB0A8091330C8093B0
:103210006B0A8091350C80936E0A8091360C8093F6
:103220006F0A8091370C90E08E54984F90936D0AFE
:1032300080936C0A62E370E080E090E00C94110AE5
:10324000CF9391E090937C0C98E690939D0C109214
:10325000A60C1092A50C682F82E69AE10E94360F08
:1032600081E00E94010681110DC061E088E60E94A4
:103270005E061092A80C8093A70C82E69AE10E9449
:10328000EF0EC82F8C2FCF9108951F93CF93DF930C
:1032900081E080937C0C88E680939D0C1092A60CB4
:1032A0001092A50C60E082E69AE10E94360FC1E31D
:1032B000DCE028811AE0822F612F0E94F454682FED
:1032C000660F680F660F620F82E69AE10E94360F62
:1032D0002981822F612F0E94F454682F660F680F96
:1032E000660F620F82E69AE10E94360F2A81822FD2
:1032F000612F0E94F454682F660F680F660F620FEB
:1033000082E69AE10E94360F6B8182E69AE10E9482
:10331000360F2C81822F612F0E94F454682F660F84
:10332000680F660F620F82E69AE10E94360F2D81C8
:10333000822F612F0E94F454682F660F680F660F6A
:10334000620F82E69AE10E94360F2E812E51822F63
:10335000612F0E94F454682F660F680F660F620F8A
:1033600082E69AE10E94360F81E00E940106C82F92
:103370008FE00E942019682F6F778FE00E94650F01
:103380008C2FDF91CF911F910895CF93DF93C82F9A
:10339000D62F8EE00E9420194C2F4150550B61E032
:1033A00070E001C0660F4A95EAF7DD2331F0682B23
:1033B0008EE0DF91CF910C94650F60956823F8CF74
:1033C000CF93DF93C82F8FE00E942019C150DD0BEF
:1033D00021E030E001C0220FCA95EAF7982F92232E
:1033E00051F02095622F68238FE00E94650F81E0E5
:1033F000DF91CF91089580E0FBCF0F931F93CF9380
:10340000DF93EC010E9445188E01FE01019000201F
:10341000E9F73197EC1BFD0BC8018C1B9D0B8E1738
:103420009F0740F4F80161918F018FEE9EE00E94AA
:103430009C16EBCF64E070E08FEE9EE0DF91CF91C1
:103440001F910F910C948517FC0101900020E9F762
:103450003197AF01481B590BBC0180EB9CE00C94E9
:10346000BF078CED91E00C94241ACF93DF930E9458
:103470009108EC010E94311A8C0F9D1FDF91CF91B2
:103480000895CF93DF93FC01448155816081718160
:1034900080EB9CE00E94BF07EC010E94311A8C0F68
:1034A0009D1FDF91CF910895CF93DF930E94AC08C9
:1034B000EC010E94311A8C0F9D1FDF91CF9108956E
:1034C0008F929F92AF92BF920F931F93CF93DF93F0
:1034D000CDB7DEB7A1970FB6F894DEBF0FBECDBF54
:1034E00019A2423008F44AE08E010F5D1F4F842E6E
:1034F000912CB12CA12CA50194010E947953E62FA7
:10350000B901CA01EA30F4F4E05DD801EE938D010F
:10351000232B242B252B79F790E080E0109719F0CE
:10352000CD010E94241AA1960FB6F894DEBF0FBEFB
:10353000CDBFDF91CF911F910F91BF90AF909F9022
:103540008F900895E95CE1CF682F70E090E080E013
:103550004AE00C94601ACF93DF930E94A41AEC0106
:103560000E94311A8C0F9D1FDF91CF910895CF9249
:10357000DF92EF92FF92CF93DF9397FF19C06B0119
:103580007C018DE20E94AC08EC0166277727CB0115
:103590006C197D098E099F094AE00E94601A8C0F00
:1035A0009D1FDF91CF91FF90EF90DF90CF90089516
:1035B0004AE0DF91CF91FF90EF90DF90CF900C9495
:1035C000601ACF92DF92EF92FF920F931F93CF93E7
:1035D000DF930E94440A6B017C0120E1C20E27E2C6
:1035E000D21EE11CF11C1092720A1092710A0E9404
:1035F000440A6C157D058E059F05A0F580EB9CE0C7
:103600000E941D081816190694F764E670E080E021
:1036100090E00E94110A80EB9CE00E941D08F82EA9
:1036200011E00AE0C091710AD091720AF11690F08F
:1036300080EB9CE00E94FC070C9F90010D9F300DD9
:103640001124C097280F391F3093720A2093710AF2
:103650001F5FE8CFBE01DD0F880B990B0E94B71AE0
:103660000E94311A6AE070E080E090E0DF91CF9133
:103670001F910F91FF90EF90DF90CF900C94110A63
:10368000CF93DF934AE00E94601AEC010E94311A46
:103690008C0F9D1FDF91CF910895CF93DF93D0E0E2
:1036A000C0E0009719F00E94241AEC010E94311A20
:1036B0008C0F9D1FDF91CF9108958F929F92AF92B3
:1036C000BF92CF92DF92EF92FF921F93CF93DF933F
:1036D000CDB7DEB764970FB6F894DEBF0FBECDBF8F
:1036E0006B017C0149015A0168E873E180E090E0D8
:1036F0000E946811182F882309F410C2C092E30EAB
:10370000D092E40EE092E50EF092E60E8092E70E83
:103710009092E80EA092E90EB092EA0E80E290E05C
:103720009093EC0E8093EB0E80E090E19093EE0E80
:103730008093ED0EF8948FEF9FEFDC018093CF0E16
:103740009093D00EA093D10EB093D20E8093D30E4F
:103750009093D40EA093D50EB093D60E8093D70E2F
:103760009093D80EA093D90EB093DA0E8093DB0E0F
:103770009093DC0EA093DD0EB093DE0E6091E30E0D
:103780007091E40E8091E50E9091E60E0E94FF127A
:10379000882309F4C0C08090E30E9090E40EA090BE
:1037A000E50EB090E60E6091E70E7091E80E809104
:1037B000E90E9091EA0E681979098A099B09969594
:1037C000879577956795680D791D8A1D9B1D0E94C9
:1037D000FF12882309F49FC08091E30E9091E40EBC
:1037E000A091E50EB091E60E898B9A8BAB8BBC8BCA
:1037F0008D879E87AF87B88B69897A898B899C89E9
:103800006093D30E7093D40E8093D50E9093D60E02
:10381000CD84DE84EF84F888C092CF0ED092D00E93
:10382000E092D10EF092D20E0E94DB126093D70E7E
:103830007093D80E8093D90E9093DA0E6B017C01B1
:10384000CC2420EFD222FF246C157D058E059F0528
:1038500009F0A6C16093DB0E7093DC0E8093DD0E41
:103860009093DE0E6091DB0E7091DC0E8091DD0E88
:103870009091DE0E0E94A0066093DB0E7093DC0E2A
:103880008093DD0E9093DE0E8091D30E9091D40E36
:10389000A091D50EB091D60E0097A048B10508F4BE
:1038A00086C11092DF0E1092E00E1092E10E10927F
:1038B000E20E78948FED91E00E944D1B0E94311A28
:1038C0006091CF0E7091D00E8091D10E9091D20E5A
:1038D0000E9472166091D30E7091D40E8091D50E15
:1038E0009091D60E0E94721680EB9CE00E94B10867
:1038F000812F64960FB6F894DEBF0FBECDBFDF9167
:10390000CF911F91FF90EF90DF90CF90BF90AF903D
:103910009F908F9008958091E30E9091E40EA09176
:10392000E50EB091E60E898B9A8BAB8BBC8BAE010A
:103930004B5F5F4F6FEFCE0141960E94E6138111FE
:103940001DC08091E30E9091E40EA091E50EB09120
:10395000E60E898B9A8BAB8BBC8BAE014B5F5F4FB6
:1039600061E0CE0141960E94E613811107C08FEFFE
:103970009FEFDC018D839E83AF83B8872091EB0E90
:103980003091EC0E8091E70E9091E80EA091E90E37
:10399000B091EA0E821B930BA109B109898B9A8B16
:1039A000AB8BBC8BAE01475F5F4F6FEFCE01419693
:1039B0000E94E613811107C08FEF9FEFDC0189871A
:1039C0009A87AB87BC8789849A84AB84BC848091B6
:1039D000E30E9091E40EA091E50EB091E60E4D81BC
:1039E0005E816F8178854F3F5F4F6F4F7F4F09F149
:1039F0008B208A208920809409F096C08D879E872D
:103A0000AF87B88BAE014F5F5F4F61E0CE010D967F
:103A10000E94E6138823E1F12091EB0E3091EC0E29
:103A20008091E70E9091E80EA091E90EB091EA0E18
:103A30009AC02091EB0E3091EC0E4091E70E509120
:103A4000E80E6091E90E7091EA0E421B530B61097A
:103A500071098B208A208920809409F48DC0498BBC
:103A60005A8B6B8B7C8B8D879E87AF87B88BAE0113
:103A70004F5F5F4F6FEFCE0141960E94E6138823A0
:103A800039F061E0CE010D960E945B148111B4CE35
:103A900089899A89AB89BC89C816D906EA06FB06CA
:103AA000E1F58D859E85AF85B889C816D906EA06E9
:103AB000FB0699F580E090E0A0E8B0E08093D30E9B
:103AC0009093D40EA093D50EB093D60E8093CF0EC4
:103AD0009093D00EA093D10EB093D20EC092D70E79
:103AE000D092D80EE092D90EF092DA0E80E1D80E84
:103AF000E11CF11CC092DB0ED092DC0EE092DD0ED8
:103B0000F092DE0E8FEF9FEFDC018093DF0E90933B
:103B1000E00EA093E10EB093E20E789486EF91E070
:103B20000E944D1B10E0E4CE19861A861B861C8667
:103B30004FEF5FEFBA014D835E836F8378878D8788
:103B40009E87AF87B88B61E0CE010D960E945B1413
:103B5000882309F49DCF2091EB0E3091EC0E8D85DA
:103B60009E85AF85B889821B930BA109B109898B0A
:103B70009A8BAB8BBC8B10C08D879E87AF87B88B21
:103B8000498B5A8B6B8B7C8B61E0CE010D960E942A
:103B90005B14882309F47CCF6FEFCE01419674CF7C
:103BA000705F8F4F9F4F6627707F992753CE4FEDE1
:103BB0005EE061E083ED9EE00E94E6137ACE0C9415
:103BC000241A80911301882331F10E94A71865E31C
:103BD0008BE00E94650F68E18CE00E94650F60E851
:103BE0008DE00E94650F8091700A882371F084E156
:103BF00092E00E94DF1D82E10E94A41A8AE396E00F
:103C00000E94DF1D83E20E94AB1A62E370E080E055
:103C100090E00C94110A0895CF93DF93482F5091B0
:103C2000CB0A852F90E0E091B50BE4133FC0CE2F77
:103C3000D0E08C0F9D1F6CE370E00E941455BE0114
:103C40000E941455E69FE02D1124E093550A20911F
:103C5000550A822F6AE00E94F454C82FCC0FC80F77
:103C6000CC0FC20F60E087E00E94650F6C2F88E0E8
:103C70000E94650F60E889E00E94650F60E88AE0B5
:103C80000E94650F8091700A882341F086E292E0DD
:103C90000E94DF1D8091550A0E94AB1A62E370E01A
:103CA00080E090E0DF91CF910C94110A840F911D78
:103CB0008C3391053CF06CE370E00E9414558093C6
:103CC000550AC5CF450F4093550AC1CFCF93DF9317
:103CD000EC0188819981009711F00E94D4551982D6
:103CE00018821D821C821B821A82DF91CF91089557
:103CF000FC01808191810C94D4552F923F924F9278
:103D00005F927F928F929F92AF92BF92CF92DF92FB
:103D1000EF92FF920F931F93CF93DF9300D000D0C9
:103D200000D0CDB7DEB74B015C01AE014F5F5F4FF6
:103D30000E943013782E81111DC086E392E00E940C
:103D40004D1B872D26960FB6F894DEBF0FBECDBF54
:103D5000DF91CF911F910F91FF90EF90DF90CF9067
:103D6000BF90AF909F908F907F905F904F903F90CB
:103D70002F90089506E010E09E012F5F3F4FB501A0
:103D8000A4018091CD0E9091CE0E0E947B124D80A9
:103D90005E80620186E0C81AD108C20105970E94C0
:103DA00038557C010091E70E1091E80E2091E90E44
:103DB0003091EA0EB501A4014A5F5F4F6F4F7F4F0C
:103DC000D501C401840D951DA11DB11D1C012D013E
:103DD0008091CD0E9091CE0E021513052405350568
:103DE00060F5065011095801A818B9088501970116
:103DF0000E947B1286010A191B0997012A0D3B1D9F
:103E00004091E30E5091E40E6091E50E7091E60E44
:103E10008091CD0E9091CE0E0E947B12F701EC0D99
:103E2000FD1D1082C7010E944D1B80EB9CE00E948B
:103E3000B108C7010E94D45584CF86019701ECCF09
:103E40002F923F924F925F926F927F928F929F92AA
:103E5000AF92BF92CF92DF92EF92FF920F931F9398
:103E6000CF93DF93CDB7DEB72A970FB6F894DEBFB6
:103E70000FBECDBFFC01698304811581C801875045
:103E80009F4F6AEF70E00E940055662309F42AC133
:103E900029812A874F016150698790E080E0212CB9
:103EA000312C210133940115110509F41BC10B3F7D
:103EB000110550F15C013AEFA30EB11C0A5F110924
:103EC00066246394712C681A790A6A0C7B1C4985F4
:103ED00040930A10ABE0B0E18A159B05D8F4F401D9
:103EE000248135818217930738F420813181F901CB
:103EF000E80FF91F232B21F41092A90CE9EAFCE04A
:103F000020812D930196E8CF5801A80EB91E10E02C
:103F100000E0D6CFF090060FF394F092060FC12C7C
:103F2000EE24E394EC0C8091090F8C1508F4F4C096
:103F30008091FF0E9091000FDC01ED91FC91008CBF
:103F4000F18DE02D6F2D09958091FF0E9091000F5E
:103F5000DC01ED91FC91028CF38DE02D40E860E0F6
:103F600009954A85662D8AE090E10E947B070E94B0
:103F70007007BA85BF3F09F4D1C0E1E0EE1598F4AF
:103F80008091020F9091030FA091040FB091050F43
:103F90000196A11DB11D8093020F9093030FA09372
:103FA000040FB093050F0E94440A69837A838B83C0
:103FB0009C83C090070FD090080F0E94184FA20159
:103FC00091010E949B539B01AC01D6010E94BA5300
:103FD000A20191010E949B532C0D3D1DCE2CC901C5
:103FE000B0E0A0E08D839E83AF83B8870E94440A2F
:103FF00029813A814B815C81621B730B840B950B89
:104000002D813E814F81588562177307840795077C
:1040100008F086CF8091FF0E9091000FDC01ED91AA
:10402000FC910280F381E02D09958823F9F28091BB
:10403000FF0E9091000FDC01ED91FC910480F58161
:10404000E02D50E040E070E060E00995882371F2D7
:104050008091FF0E9091000FDC01ED91FC9100A08A
:10406000F1A1E02D0995D82E8091FF0E9091000FBF
:10407000DC01ED91FC91068CF78DE02D0995782EF1
:104080008091FF0E9091000FDC01ED91FC9102A058
:10409000F3A1E02D0995E82E8091FF0E9091000F7D
:1040A000DC01ED91FC9104A0F5A1E02D0995BA8504
:1040B000BD1108C09091010F971104C087FF02C085
:1040C000FE1461F187FD92CFED2DF0E0E150F14F4C
:1040D00083858E118BCF4D2D6E2D8FEF9EE00E942C
:1040E000B30C84CF81E02A960FB6F894DEBF0FBEE2
:1040F000CDBFDF91CF911F910F91FF90EF90DF9097
:10410000CF90BF90AF909F908F907F906F905F9077
:104110004F903F902F90089580E0E5CFE985E150E2
:10412000E987C501C0CE0E943E570F931F93CF93DE
:10413000DF93EC0188819981009759F02A813B81B6
:104140002617370730F081E0DF91CF911F910F9153
:1041500008958B016F5F7F4F0E945D56009759F065
:10416000998388831B830A832C813D81232B59F7F4
:10417000FC011082E8CF80E0E7CFEF92FF920F932F
:104180001F93CF93DF936115710541F480E0DF91B8
:10419000CF911F910F91FF90EF9008954115510518
:1041A000B1F07B01EC010C811D81040F151FB801DA
:1041B0000E949520882351F3288139818C819D812B
:1041C000B701820F931F0E9472571D830C8381E0F9
:1041D000DECF0F931F93CF93DF9300D000D0CDB7E6
:1041E000DEB74AE08E010F5F1F4FB80190E00E94DA
:1041F000824FF80101900020E9F73197AF01401B91
:10420000510BB8018EE292E10E94BD200F900F90F9
:104210000F900F90DF91CF911F910F9108950F9301
:104220001F93CF93DF93CDB7DEB764970FB6F894A3
:10423000DEBF0FBECDBF8E010F5F1F4F22E044E0F7
:104240000E94AE4EFC0101900020E9F73197AF01CA
:10425000481B590BBC018EE292E10E94BD2064967E
:104260000FB6F894DEBF0FBECDBFDF91CF911F9187
:104270000F910895CF93DF9300D0CDB7DEB7698358
:104280001A8241E050E0BE016F5F7F4F0E94BD2067
:104290000F900F90DF91CF910895FB0101900020C6
:1042A000E9F73197AF01461B570B0C94BD20EF92F5
:1042B000FF920F931F93CF93DF93EC017B018A0151
:1042C000BA010E94952081110BC0CE010E94661E8A
:1042D000CE01DF91CF911F910F91FF90EF90089544
:1042E0001D830C83B701888199810E947257F0CF9A
:1042F000FC0111821082138212821582148250E016
:1043000040E06EED71E00C945721CF93DF9300D025
:1043100000D000D0CDB7DEB70E94121864E670E07E
:1043200080E090E00E94110ACE0101960E9478215F
:104330006091680ACE0101960E943A216EE472E013
:10434000CE0101960E944D21CE0101960E94621875
:104350006CE271E080E090E00E94110A8FEE9EE036
:104360000E942617892B29F08FEE9EE00E94F716F7
:10437000F5CF64E170E080E090E00E94110A0E94B5
:10438000FF1764E170E080E090E00E94110ACE0126
:1043900001960E94781E26960FB6F894DEBF0FBED7
:1043A000CDBFDF91CF910895CF93DF9300D000D0A0
:1043B00000D0CDB7DEB70E94121864E670E080E04E
:1043C00090E00E94110ACE0101960E94782160912E
:1043D000680ACE0101960E943A2162E572E0CE01A0
:1043E00001960E944D21CE0101960E9462186CE256
:1043F00071E080E090E00E94110A8FEE9EE00E9442
:104400002617892B29F08FEE9EE00E94F716F5CF34
:1044100064E170E080E090E00E94110A0E94FF17C2
:1044200064E170E080E090E00E94110ACE01019604
:104430000E94781E26960FB6F894DEBF0FBECDBF41
:10444000DF91CF910895FB0101900020E9F73197AA
:10445000AF01461B570B0C9457210F931F93CF931B
:10446000DF9300D000D000D0CDB7DEB7182FCE013B
:1044700001960E9478216EED71E0CE0101960E94B6
:104480002322612FCE0101960E943A2163EA74E053
:10449000CE0101960E944D2103E010E0CE0101966D
:1044A0000E94621864E670E080E090E00E94110AC9
:1044B0008FEE9EE00E942617181619064CF064E64F
:1044C00070E080E090E00E94110A0150110931F77C
:1044D0008FEE9EE00E94261702979CF00E94F8053E
:1044E00011E0CE0101960E94781E812F26960FB60C
:1044F000F894DEBF0FBECDBFDF91CF911F910F911A
:1045000008950E94F80510E0ECCFCF93DF93EC0103
:10451000FB018617970749F060817181611571056C
:1045200041F0448155810E945721CE01DF91CF9106
:1045300008950E94661EF9CFCF93DF9300D000D07C
:1045400000D0CDB7DEB71A8219821C821B821E8270
:104550001D826EE272E1CE0101960E948522409199
:104560003812509139126091341270913512CE0187
:1045700001960E94BD20811104C0CE0101960E94C7
:10458000661EBE016F5F7F4F84E392E10E94852229
:10459000CE0101960E94781E64E670E080E090E013
:1045A0000E94110A84E392E10E94411A62E370E0E2
:1045B00080E090E00E94110A26960FB6F894DEBFC4
:1045C0000FBECDBFDF91CF910895CF92DF92EF92D2
:1045D000FF920F931F93CF93DF93EC017B018A012E
:1045E000E881F9810280F381E02D0995D82E882396
:1045F00029F1E114F104D1F001151105B9F0CFB69C
:10460000F8948A8D8350990BF80120812817190698
:104610001CF08A8D84508083F801408150E0BE01F7
:10462000615E7F4FC7010E944357CFBE8FB7F8949A
:10463000FE01E65EFE4F10821A8E8FBF8D2DDF9138
:10464000CF911F910F91FF90EF90DF90CF90089541
:10465000EF92FF920F931F93CF93DF9300D01F929F
:10466000CDB7DEB78C010E94950CE82E81110CC0ED
:10467000E12C8E2D0F900F900F90DF91CF911F9115
:104680000F91FF90EF900895F801808D8A3009F422
:104690007EC08B3009F47DC022E0F22E823041F7DB
:1046A00040E861E0C8010E946B0A6AE070E080E0C7
:1046B00090E00E94110A61E0C8010E94AB0B8038B3
:1046C000B9F660E0F801808D0E94A909F801818D9A
:1046D0008F3F49F48091B80A843050F691E0980FEA
:1046E0009093B80A818FF801818DE82FF0E0EE0FEA
:1046F000FF1FE754F54F118300836CE87CE08823AB
:1047000049F063E87CE0813029F0823009F0B0CFD5
:104710006AE77CE08F2D0E949E0740E06EE0C801B2
:104720000E946B0A40E06FE0C8010E946B0AC8015A
:104730000E94C30A43E050E06AE67AE0CE010196A7
:104740000E94794F49816DE1C8010E946B0A4A813C
:104750006EE1C8010E946B0A4B8166E2C8010E94AB
:104760006B0A40E060E2C8010E946B0A48E061E227
:10477000C8010E946B0A40E050EC64E674E4C80192
:104780000E94D70A6DE0C8010E949B0A72CFF12CEB
:1047900087CFFF24F39484CFCF92DF92EF92FF92E2
:1047A0001F93CF93DF93E3EDFAE088ECDF011D92D6
:1047B0008A95E9F762E370E080E090E00E94110AD8
:1047C0000E94440A6B017C01B0E1CB0EB7E2DB1E14
:1047D000E11CF11C0E94440A6C157D058E059F05A5
:1047E00040F580EB9CE00E941D081816190694F70E
:1047F00064E670E080E090E00E94110A80EB9CE0AB
:104800000E941D08EC01F82E10E080EB9CE00E9455
:10481000FC078D3039F08A3029F0E12FF0E0ED52BD
:10482000F54F80831F5FF11680F7DD27CD52D54FFE
:10483000188283ED9AE0DF91CF911F91FF90EF9066
:10484000DF90CF900C944D1B0E94CC238091D30A13
:10485000882359F08F7D893559F08E3459F088E4DA
:104860009AE00E94351A83E0089589E59AE0F9CF2D
:1048700081E0089582E008952F923F924F925F92D7
:104880006F927F928F929F92AF92BF92CF92DF9260
:10489000EF92FF920F931F93CF93DF93CDB7DEB7C5
:1048A00064970FB6F894DEBF0FBECDBFCDB6DEB6AF
:1048B000DE86CD860E949C22E0903812F09039125C
:1048C000FC8AEB8A2DB73EB72E193F090FB6F89434
:1048D0003EBF0FBE2DBF8DB79EB701965C016091A4
:1048E000341270913512A7010E9443578091ED0E4A
:1048F0009091EE0E06978E159F05C0F586E592E025
:104900000E944D1B80E591E00E94411160E087E12B
:104910000E94490989EB0E94371161E087E10E94FA
:1049200049098091B60A81110E941711ED84FE8415
:104930000FB6F894FEBE0FBEEDBE64960FB6F894A7
:10494000DEBF0FBECDBFDF91CF911F910F91FF90C2
:10495000EF90DF90CF90BF90AF909F908F907F901F
:104960006F905F904F903F902F9008952DB63EB678
:104970004090DF0E5090E00E6090E10E7090E20EDD
:104980009FEF491A590A690A790AEB88FC88A6E060
:10499000EA0EF11C0091EB0E1091EC0EC701B8016C
:1049A0000E940055009709F466C10E0D1F1D081BDB
:1049B000190BEDB7FEB7E01BF10B0FB6F894FEBF75
:1049C0000FBEEDBF2DB73EB72F5F3F4F4901ADB7CB
:1049D000BEB711964D925D926D927C921497F9013B
:1049E000F582E4828DB79EB707964B895C89B50145
:1049F0000E944357A8014E195F0970E060E0C401AE
:104A00008E0D9F1D0E944C572801712C612C4091E6
:104A1000D70E5091D80E6091D90E7091DA0EC090D9
:104A2000E70ED090E80EE090E90EF090EA0ECF8607
:104A3000D88AE98AFA8AD301C801840F951FA61F74
:104A4000B71FE091CD0EF091CE0EC816D906EA063A
:104A5000FB0608F012C15601A41AB50A7801EA183B
:104A6000FB0885019401CF010E94171264EF71E0E9
:104A700080E090E00E94681194012A0D3B1D409156
:104A8000E30E5091E40E6091E50E7091E60E870101
:104A90008091CD0E9091CE0E0E9417128090D70E6D
:104AA0009090D80EA090D90EB090DA0E8091DF0EC3
:104AB0009091E00EA091E10EB091E20E0196A11D41
:104AC000B11D8093DF0E9093E00EA093E10EB093A2
:104AD000E20EC301B201680D791D8A1D9B1D0E9463
:104AE000A0066093D70E7093D80E8093D90E909342
:104AF000DA0E705F8F4F9F4F6627707F99270E9455
:104B0000A0062B013C010E94FF12811128C0C301A5
:104B1000B2010E94E011C301B201705F8F4F9F4F3D
:104B20006627707F99270E94A0066D837E838F83FE
:104B30009887AE014F5F5F4F61E0CE0105960E94FE
:104B4000E613882361F08D819E81AF81B8858093C3
:104B5000CF0E9093D00EA093D10EB093D20E409270
:104B6000DB0E5092DC0E6092DD0E7092DE0E8092B3
:104B7000D30E9092D40EA092D50EB092D60E809104
:104B8000CF0E9091D00EA091D10EB091D20E009781
:104B9000A048B10540F08092CF0E9092D00EA09226
:104BA000D10EB092D20E0FB6F8943EBE0FBE2DBEFF
:104BB0008091700A882309F4A5CE6091D30E70917C
:104BC000D40E8091D50E9091D60E0E94AF127C012A
:104BD0006091D30E7091D40E8091D50E9091D60E27
:104BE0000E94AF128C01009769F02091EB0E30917A
:104BF000EC0EB9010E940055009721F0020F131F1F
:104C0000081B190B8BE692E00E94DF1D6091DF0EFE
:104C10007091E00E8091E10E9091E20E0E94401B97
:104C20008BE792E00E94DF1D84E392E10E94411A2B
:104C300082E892E00E94DF1DCB88DC88B60190E01C
:104C400080E04AE00E94601A8EE892E00E94DF1D38
:104C5000B70190E080E04AE00E94601A8BE992E0A0
:104C60000E94DF1DB80190E080E04AE00E94601AD7
:104C70000E94311A47CE87019CCE9401CF010CCF00
:104C80002F923F924F925F926F927F928F929F925C
:104C9000AF92BF92CF92DF92EF92FF920F931F934A
:104CA000CF93DF93CDB7DEB7CE5FD1090FB6F894BF
:104CB000DEBF0FBECDBF2DB73EB7CB50DF4F398320
:104CC0002883C55FD0406EED71E084E392E10E94DD
:104CD00023220E94121864EF71E080E090E00E94AD
:104CE000110AC651DF4F1882CA5ED040AE014F5F35
:104CF0005F4F2A011E0159EC250E311C80914303A0
:104D000090914403A0914503B0914603C950DF4FF1
:104D100088839983AA83BB83C75FD04020914703D0
:104D2000309148034091490350914A03C550DF4FE9
:104D3000288339834A835B83CB5FD0408091690AA3
:104D4000C651DF4F3881CA5ED040381708F099C687
:104D5000832E912C01E8089DC001099D900D11241E
:104D6000FC01EE5AFD4E4081C151DF4F4883CF5EBA
:104D7000D0403093630A8C01DC01A958BD4E7D01FF
:104D80006DEA72E0CD010E946957892B09F0B2C02B
:104D900081E08093620A64E670E080E090E00E9427
:104DA000110A9090620A8091630A082F10E09920FE
:104DB00009F4D3C5C151DF4FB881CF5ED040CD5289
:104DC000DF4FB883C35DD040CC52DF4F1882C45D43
:104DD000D040E1E88E9FC00111246DEA72E089584D
:104DE0009D4E0E94695767EB72E0892B11F46BEBC3
:104DF00072E0CE018C519F4F0E947257BE016C51E0
:104E00007F4FCE018D529F4F0E945357CE018D523E
:104E10009F4F0E94FD1964EF71E080E090E00E94D6
:104E2000110A8FEE9EE00E942617843008F401C517
:104E30002DB73EB7CF50DF4F39832883C15FD040B5
:104E4000C853DF4F1882C85CD040AE0142585F4F54
:104E50007A0110E000E0B12CC02E8FEE9EE00E949F
:104E6000F716D82E68E070E080E090E00E94110A0A
:104E7000D701DD927D01BDE0DB12D2C0EEE7F0E0AC
:104E8000EC0FFD1FE00FF11F10820E94F805BC0C13
:104E9000CB2CD12C8601015011092DB73EB72C190E
:104EA0003D090FB6F8943EBF0FBE2DBF4DB75EB79C
:104EB0004F5F5F4F7A01A12C882483948EE7782E70
:104EC000AB1408F0C7C0EEE7F0E0EC0FFD1FE80DF3
:104ED000F11D8081F701EA0DF11D8B3209F0B1C09F
:104EE0007082839465E070E080E090E00E94110A97
:104EF000A394E6CFC80184589D4E0E94FD1964E634
:104F000070E080E090E00E94110A8FEE9EE00E9427
:104F10002617181619060CF07AC06DB67EB681E019
:104F20008093620A8FEE9EE00E942617C851DF4FE1
:104F30008883C85ED0406C01DD24EDB7FEB7EC1964
:104F4000FD090FB6F894FEBF0FBEEDBF0DB71EB73B
:104F50000F5F1F4FC551DF4F0883CB5ED040580114
:104F60008A2DC551DF4FF881CB5ED0408F1BC851D1
:104F7000DF4F2881C85ED040821740F48FEE9EE05C
:104F80000E94F716D5018D935D01EACF0C0D1D1D12
:104F9000F80134978081082E000C990BC09748EED9
:104FA00053E0849F9001859F300D949F300D112414
:104FB0003093610A2093600A62EB72E0C7010E949D
:104FC0006957892B71F481E8889DF001899DF00D66
:104FD0001124EE5AFD4E03501109D8018C918053D3
:104FE00087A70FB6F8947EBE0FBE6DBE6091600AB3
:104FF0007091610A072E000C880B990B0E94110A10
:105000000E94F80562E370E080E090E0C8CE88EE90
:1050100093E09093610A8093600A1092620AE6CF4F
:10502000EDE2DE1201C0B3946AE070E080E090E04F
:105030000E94110A0F5F1F4F0B34110509F00CCFAE
:1050400024CF8D3229F4A3947082F701EA0DF11D6B
:10505000808347CFF701E00FF11F10828091700A23
:10506000882349F00E94311A8FEB92E00E94DF1DE5
:10507000C7010E944D1B8091630AA82FB0E0C55163
:10508000DF4FB983A883CB5ED04011E8819FF00148
:105090001124C851DF4FF983E883C85ED04064ED26
:1050A00072E0CF0189589D4E0E946957C851DF4F69
:1050B00028813981C85ED0402D5A3D4E3901892B57
:1050C00009F018C34DB75EB7CD50DF4F5983488301
:1050D000C35FD0408DB79EB78C199D090FB6F89469
:1050E0009EBF0FBE8DBF0DB71EB70F5F1F4F9E2D0A
:1050F000802ED801F7018E2F891B8B1518F4819112
:105100008D93F9CFC950DF4F288139814A815B8166
:10511000C75FD040C052DF4F288339834A835B8307
:10512000C05ED040D8011196EC901197C452DF4F69
:10513000E882CC5DD04012968C911297C352DF4F1B
:105140008883CD5DD0401396FC90C252DF4FF88229
:10515000CE5DD040C152DF4F1882CF5DD040BE013E
:1051600064527F4FCE0180529F4F0E946957892B16
:1051700001F16EE270E0C8010E945E57801B910B46
:10518000823009F451C09927DC011197A00FB11F9B
:105190002C91F801E80FF91F20830297F801E80F1E
:1051A000F91F80818C938EE28083F801EC0DFD1D48
:1051B00010828091700A882339F089ED92E00E9474
:1051C000DF1DC8010E944D1B8AEE92E00E94DF1D88
:1051D0006EE770E0C8010E948857801B910B8E5FBC
:1051E000282F30E0C351DF4F39832883CD5ED04074
:1051F000B901615071094DB75EB7421B530B0FB631
:10520000F8945EBF0FBE4DBFADB7BEB711965D013E
:105210009D01D8019A2F9819981708F042C09D91C6
:10522000F90191939F01F6CF2DB73EB7EDB7FEB7C9
:10523000EC19FD090FB6F894FEBF0FBEEDBF319615
:10524000D8018C91ADB7BEB711968C938EE2818355
:1052500080E38283E382F48244E0842F90E08C1523
:105260009D0568F05E2FC801DF014A2F451B4C15D4
:105270001D0488F44D91FC014193CF01F6CFBF018D
:10528000680F791F800F911FDC018C91DB01119653
:105290008C934F5FE2CF0FB6F8943EBF0FBE2DBF89
:1052A00084CFFB01EA0DFB1D10828091700A8823D8
:1052B00019F0C5010E944D1B0E94F80564E170E0E1
:1052C00080E090E00E94110AC151DF4FF881CF5E6B
:1052D000D040C253DF4FF883CE5CD040C153DF4F84
:1052E0001882CF5CD040C550DF4F288139814A8178
:1052F0005B81CB5FD040C852DF4F288339834A831C
:105300005B83C85DD040BE0168527F4FCE0182539F
:105310009F4F0E945357CE0182539F4F0E94FD1909
:1053200064EF71E080E090E00E94110A8FEE9EE051
:105330000E942617482F4150550B7A01ADB7BEB7D2
:10534000A41BB50B0FB6F894BEBF0FBEADBF0DB713
:105350001EB70F5F1F4F863030F1812CC82CD12C27
:10536000CE14DF0404F58FEE9EE00E94F7168D3018
:1053700091F08A3071F0F801EC0DFD1D8B3281F057
:105380008D3271F080836FE070E080E090E00E94E9
:10539000110A8394E3CFF801EC0DFD1D1082F9CFC3
:1053A000BEE7B083F6CF8091700A882339F088EF8A
:1053B00092E00E94DF1DC8010E944D1B6EE770E065
:1053C000C8010E948857801B910B282FF801E80F15
:1053D000F11D91E08FEF890F921760F432913E3703
:1053E00049F0322F391BC051DF4F3883C05FD040A6
:1053F0009F5FF0CFC82ED12C96012F5F3F4F4DB746
:105400005EB7421B530B0FB6F8945EBF0FBE4DBF85
:10541000ADB7BEB711967D01D801C051DF4FE8810D
:10542000C05FD040AE0FB11D2E2DF7019E2F921BF5
:10543000981718F49D919193F9CFF701EC0DFD1D8C
:10544000108264E670E080E090E00E94110A809192
:10545000700A882369F08BE093E00E94DF1DC7018A
:105460000E944D1B64E170E080E090E00E94110A10
:10547000C351DF4F28813981CD5ED040C20ED31E8B
:105480004DB75EB74C195D090FB6F8945EBF0FBEFD
:105490004DBF0DB71EB70F5F1F4F64E170E080E096
:1054A00090E00E94110AB501C8010E94725762E3A0
:1054B00070E080E090E00E94110A8EE7D8018C93A2
:1054C00062E370E080E090E00E94110AB701C80139
:1054D0000E94535762E370E080E090E00E94110A5E
:1054E0008091700A882339F089E193E00E94DF1DE2
:1054F000C8010E944D1B81E8C551DF4F28813981C9
:10550000CB5ED040829FF001839FF00D1124EE5AB4
:10551000FD4E20A98091690A8150990BC551DF4F3A
:1055200048815981CB5ED0404817590709F4A1C082
:10553000222309F47FC01F930F93C851DF4F888146
:105540009981C85ED0408E579D4E9F938F937F92D6
:105550006F9283E293E09F938F935F924F920E94AA
:10556000AD578DB79EB70A960FB6F8949EBF0FBE83
:105570008DBF8091700A882319F0C2010E944D1BD3
:1055800064E670E080E090E00E94110AB20184E3DA
:1055900092E10E944D2162E370E080E090E00E9481
:1055A000110ACD50DF4F48815981C35FD0400FB6FB
:1055B000F8945EBF0FBE4DBF64E170E080E090E004
:1055C0000E94110ACF50DF4FA881B981C15FD0403E
:1055D0000FB6F894BEBF0FBEADBF62E370E080E0CF
:1055E00090E00E94110A91100BC0B20184E392E195
:1055F0000E944D2162E370E080E090E00E94110A79
:105600000E94F80562E370E080E090E00E94110AD9
:1056100064EF71E080E090E00E94110AC651DF4F14
:105620005881CA5ED0405F5FC651DF4F5883CA5E63
:10563000D04084CB85E0ECE4F3E0D10101900D9201
:105640008A95E1F71F930F933F922F927F926F926B
:1056500083E293E09F938F935F924F920E94AD57A6
:10566000ADB7BEB71A960FB6F894BEBF0FBEADBFAA
:1056700080CF2223F9F01F930F93C851DF4F888109
:105680009981C85ED0408E579D4E9F938F937F9295
:105690006F928CE293E09F938F935F924F920E9460
:1056A000AD57EDB7FEB73A960FB6F894FEBF0FBEF2
:1056B000EDBF5FCF85E0ECE4F3E0D10101900D9206
:1056C0008A95E1F71F930F933F922F927F926F92EB
:1056D0008CE293E09F938F935F924F920E94AD571D
:1056E0002DB73EB7265F3F4F0FB6F8943EBF0FBEB3
:1056F0002DBF3FCFC551DF4F88819981CB5ED04010
:10570000189FF001199FF00D1124EE5AFD4E20A9AB
:105710008091690A8150990BC551DF4FA881B981E9
:10572000CB5ED040A817B90709F442C0222301F18B
:10573000FF92EF92C851DF4F88819981C85ED040B7
:105740008E579D4E9F938F937F926F9283E293E04B
:105750009F938F935F924F920E94AD57EDB7FEB724
:105760003A960FB6F894FEBF0FBEEDBF912C2ACF2C
:1057700085E0ECE4F3E0D10101900D928A95E1F728
:10578000FF92EF923F922F927F926F9283E293E08B
:105790009F938F935F924F920E94AD572DB73EB764
:1057A000265F3F4F0FB6F8943EBF0FBE2DBFDECF32
:1057B000222301F1FF92EF92C851DF4F8881998136
:1057C000C85ED0408E579D4E9F938F937F926F926D
:1057D0008CE293E09F938F935F924F920E94AD571C
:1057E0004DB75EB7465F5F4F0FB6F8945EBF0FBE12
:1057F0004DBFBCCF85E0ECE4F3E0D10101900D9208
:105800008A95E1F7FF92EF923F922F927F926F92EB
:105810008CE293E09F938F935F924F920E94AD57DB
:105820008DB79EB70A960FB6F8949EBF0FBE8DBF78
:105830009DCFEDB6FEB686E0EBE4F3E0DE01A258C4
:10584000BF4F01900D928A95E1F781E8809FF001AA
:10585000819FF00D1124EE5AFD4EC7A48C2D880FA8
:105860008C0D880FEDB7FEB7E81BF1090FB6F89461
:10587000FEBF0FBEEDBF0DB71EB70F5F1F4F902EBF
:10588000A12EBE0162587F4FC8010E947257F1E0FD
:10589000FC1588F4B12C2C2D2150330B6901BC145C
:1058A0001D044CF4BE0162587F4F892D9A2D0E9431
:1058B0005357B394F4CF8091700A882339F084E36E
:1058C00093E00E94DF1DC8010E944D1B6091630A96
:1058D00031E8639FC00111249C012E573D4E8D5A23
:1058E0009D4E4091690A4150550B64171506F1F021
:1058F0001F930F933F932F939F938F9383E293E094
:105900009F938F935F924F920E94AD574DB75EB7B2
:10591000465F5F4F0FB6F8945EBF0FBE4DBF0FB628
:10592000F894FEBE0FBEEDBE912C57CE1F930F9381
:105930003F932F939F938F938CE293E09F938F934A
:105940005F924F920E94AD578DB79EB70A960FB6E1
:10595000F8949EBF0FBE8DBFE2CFCDB6DEB686E017
:10596000EBE4F3E0DE01A258BF4F01900D928A955F
:10597000E1F781E8809FF001819FF00D1124EE5A3C
:10598000FD4EE7A48E2D880F8E0D880FADB7BEB7E4
:10599000A81BB1090FB6F894BEBF0FBEADBF0DB7BF
:1059A0001EB70F5F1F4F802EA12EBE0162587F4F82
:1059B000C8010E947257B1E0BE1588F4B12CEE2DDB
:1059C000E150FF0B7F01BE141F044CF4BE0162586E
:1059D0007F4F882D9A2D0E945357B394F4CF809116
:1059E000700A882339F084E393E00E94DF1DC80128
:1059F0000E944D1B6091630AF1E86F9FC001112462
:105A00009C012E573D4E8D5A9D4E4091690A415042
:105A1000550B64171506E9F01F930F933F932F93CF
:105A20009F938F9383E293E09F938F935F924F9224
:105A30000E94AD572DB73EB7265F3F4F0FB6F89483
:105A40003EBF0FBE2DBF0FB6F894DEBE0FBECDBE5B
:105A5000C4CD1F930F933F932F939F938F938CE20B
:105A600093E09F938F935F924F920E94AD574DB7F3
:105A70005EB7465F5F4F0FB6F8945EBF0FBE4DBF77
:105A8000E2CF0E94FF1762E370E080E090E00E94A6
:105A9000110ACB50DF4F88819981C55FD0400FB686
:105AA000F8949EBF0FBE8DBFC250DF4F0FB6F89463
:105AB000DEBF0FBECDBFDF91CF911F910F91FF9041
:105AC000EF90DF90CF90BF90AF909F908F907F909E
:105AD0006F905F904F903F902F9008952F923F923C
