:100000000C9402070C94C55B0C949A5B0C946F5B88
:100010000C94445E0C942C070C942C070C942C0725
:100020000C942C070C942C070C942C070C942C0784
:100030000C942C070C94F05B0C942C070C942C075C
:100040000C942C070C942C070C94255B0C942C0717
:100050000C94F05A0C94C65A0C942C070C942C0750
:100060000C942C070C942C070C94205D0C942C07FA
:100070000C94915A0C94675A0C942C070C942C07EE
:100080000C942C070C942C070C942C0741542B43F4
:10009000434944002B43474154543A200041542BD8
:1000A00043474154543F002B43475245473A2000B1
:1000B00041542B43475245473F0047505253206F0E
:1000C0006E004552524F523A2047505253206661BB
:1000D000696C656420746F207475726E206F6E0099
:1000E0005265676973746572656420726F616D69CA
:1000F0006E6700556E6B6E6F776E0044656E696556
:1001000064004E6F7420726567697374657265640C
:100110002028736561726368696E6729005265679C
:10012000697374657265642028686F6D6529004E77
:100130006F742072656769737465726564003A2034
:10014000004E6574776F726B2073746174757320E1
:10015000005475726E696E672063656C6C206D6FFC
:1001600064756C65206F66662E2E2E0052535349BF
:10017000202864426D293A202D00456E7465722056
:1001800027782720617420616E792074696D65205D
:10019000746F2073746F70005475726E696E67208F
:1001A00063656C6C206D6F64756C65206F6E2E2EB0
:1001B0002E004552524F523A204C6F6E676974754B
:1001C000646520696E636F727265637421004552C5
:1001D000524F523A204C6174697475646520696E9F
:1001E000636F727265637421004552524F523A2018
:1001F000496E76616C69642075706C6F616420690A
:100200006E74657276616C2028657665727920312E
:10021000206F72203420686F7572732900526563F5
:100220006569766572206D6F64653A206E6F207522
:10023000706C6F616473004552524F523A20496EA0
:1002400076616C696420696E74657276616C2028D1
:1002500065766572792031302C2031352C20323092
:100260002C2033302C206F72203630206D696E7355
:10027000290070726F6A65637449443A2000202037
:10028000696E707574206D696E7574653A20002012
:1002900020696E70757420686F75723A2020200096
:1002A0002020696E70757420796561723A20202073
:1002B000002020696E707574206461793A202020D6
:1002C00020002020696E707574206D6F6E74683A1E
:1002D00020200053796E6368726F6E697A61746969
:1002E0006F6E206661696C65642E20506C65617369
:1002F0006520656E7465722074696D65206D616E30
:1003000075616C6C7920696E205554433A20005316
:10031000796E6368726F6E697A696E6720636C6F5D
:10032000636B20746F204E49535420736572766559
:1003300072202E2E2E200044656661756C7420722A
:100340006164696F2049442061636365707465640A
:1003500000526164696F204944207570646174655E
:100360006400456E746572206E6577207261646901
:100370006F2049443A2000576F756C6420796F757F
:10038000206C696B6520746F206368616E676520FF
:1003900074686520726164696F2049442066726FD9
:1003A0006D207468652064656661756C7420766183
:1003B0006C75653F20792F6E3A2000456E7465722A
:1003C0002074686520486F6C6F6772616D2064658A
:1003D00076696365206B657920666F722074686941
:1003E0007320476174657761793A2000456E7465C2
:1003F000722074686520726164696F2049442066C8
:100400006F72204E6F64652000293F00496E76614F
:100410006C6964206E756D626572206F66206E6F08
:100420006465732E2020486F77206D616E79206E91
:100430006F646573206172652061742074686973EC
:10044000207369746520286D61782E00486F7720CD
:100450006D616E79206E6F646573206172652061D5
:10046000742074686973207369746520286D6178DD
:100470002E2000496E76616C696420696E74657225
:1004800076616C2E20456E746572206D65617375A2
:1004900072656D656E7420696E74657276616C202C
:1004A0002831302C2031352C2032302C2033302C88
:1004B000206F72203630293A2000456E7465722014
:1004C0006D6561737572656D656E7420696E7465B6
:1004D0007276616C202831302C2031352C2032305E
:1004E0002C2033302C206F72203630206D696E73D3
:1004F000293A2000436865636B696E672046504C5B
:100500004D4E2E2E2E0045786974002020526563D2
:100510006569766572204D6F6465206465616374FA
:10052000697661746564002020526563656976654B
:1005300072204D6F646520616374697661746564CF
:1005400000576F756C6420796F75206C696B65203E
:10055000746F2075736520526563656976657220D6
:100560004D6F64653F20792F6E3A20004E4F544501
:100570003A205265636569766572206D6F64652007
:1005800077696C6C206E6F742075706C6F6164207D
:100590006461746120746F20486F6C6F6772616D65
:1005A000002020456E74657220612050726F6A656C
:1005B00063742049442028757020746F20352063AF
:1005C0006861726163746572732C2065783A20509B
:1005D0005341293A200020204552524F523A205090
:1005E000726F6A6563742049442065786365656449
:1005F00073203520636861726163746572732100D2
:100600002020456E74657220612050726F6A6563A8
:10061000742049442028757020746F203520636849
:1006200061726163746572732C2065783A2050534F
:1006300041293A2000457869740041726520796F3C
:1006400075207375726520796F752077616E7420DF
:10065000746F20636C656172207468652046504C2D
:100660004D4E3F20792F6E3A2000212121205553F5
:100670004520574954482043415554494F4E202165
:10068000212100576F756C6420796F75206C696B40
:100690006520746F207475726E20646562756720C2
:1006A00073746174656D656E7473206F6E3F20792D
:1006B0002F6E3A2000576F756C6420796F75206C2F
:1006C000696B6520746F207475726E206465627545
:1006D000672073746174656D656E7473206F6666F0
:1006E0003F20792F6E3A2000457261736520534494
:1006F00020636172643A20005072696E74206461F4
:1007000074612066696C65733A2000536176656494
:100710002066696C65733A200041726520796F75B7
:10072000207375726520796F752077616E742074FF
:100730006F2065726173653F20456E746572207924
:100740002F6E3A20004C61742F6C6F6E67207661BB
:100750006C7565732077696C6C206170706561726F
:10076000206173202D3939393939393939392069BE
:100770006E20746865206461746120737472696EA0
:10078000672E004552524F523A204C6F6E67697483
:1007900075646520696E636F727265637421004CC5
:1007A0006F6E6769747564653A20004552524F5206
:1007B0003A204C6174697475646520696E636F7268
:1007C0007265637421004C617469747564653A20C4
:1007D0000053656C656374206F7074696F6E3A20A6
:1007E0000020202030203C2D2D2045726173652093
:1007F0004C61742F4C6F6E672076616C7565730069
:1008000020202031203C2D2D20456E746572204C17
:1008100061742F4C6F6E672076616C75657300454F
:100820006E74657220636F6E666967757261746954
:100830006F6E20737472696E673A2000456E74653E
:10084000722063686F6963653A2000202078202059
:100850003C2D2D202045786974206D656E75002033
:10086000207220203C2D2D2020526563656976651D
:1008700072204D6F6465206F6E2F6F6666002020BA
:100880006D20203C2D2D2020536574206D656173F3
:100890007572656D656E7420696E74657276616CD3
:1008A0000020207520203C2D2D20205365742067CA
:1008B000617465776179206461746120696E746523
:1008C0007276616C0020207520203C2D2D20205355
:1008D000657420646174612075706C6F616420744C
:1008E0006F20636C6F756420696E74657276616CDD
:1008F0000020206E20203C2D2D2020456E74657236
:10090000204E6F646520726164696F2049447300F2
:1009100020206420203C2D2D2020456E74657220FF
:10092000486F6C6F6772616D2044657669636520FE
:100930004B65790020206720203C2D2D2020436826
:10094000616E6765204761746577617920726164C3
:10095000696F2049440020206C20203C2D2D202050
:10096000456E746572206F72206572617365204CEC
:1009700061742F4C6F6E672076616C756573002013
:10098000206920203C2D2D2020456E74657220703A
:10099000726F6A6563742049440020203020203C37
:1009A0002D2D2020456E74657220636F6E66696719
:1009B00075726174696F6E20737472696E6700433B
:1009C0006F6E66696775726174696F6E204F7074BF
:1009D000696F6E733A0020203420203C2D2D20209A
:1009E000436C65617220666F7262696464656E2033
:1009F0006E6574776F726B73206C6973740020205E
:100A00006F20203C2D2D2020446562756720737473
:100A10006174656D656E7473206F6E2F6F6666000E
:100A200020206520203C2D2D2020457261736520FB
:100A30006D6963726F5344206361726400202066A5
:100A400020203C2D2D2020536565206C6973742077
:100A50006F662073617665642066696C657300203B
:100A6000207020203C2D2D20205072696E74206E45
:100A70006F6465206461746120746F2073637265B4
:100A8000656E0020206320203C2D2D2020536574AE
:100A900020636C6F636B0020203120203C2D2D20C3
:100AA0002043656C6C756C6172205369676E616C74
:100AB0002053636F7574696E67204D6F64650055D0
:100AC000736572204F7074696F6E733A004465628B
:100AD0007567206F6666004465627567206F6E00FB
:100AE00043757272656E74206261747465727920E8
:100AF000766F6C746167653A20200030003A0030F0
:100B0000003A002D002D0043757272656E742064EA
:100B100061746520262074696D653A200047617410
:100B200065776179206461746120696E746572769D
:100B3000616C2028687273293A200055706C6F61CF
:100B40006420696E74657276616C202868727329FE
:100B50003A20004D6561737572656D656E7420494C
:100B60006E74657276616C3A20004461746120662F
:100B7000696C653A20004E6574776F726B6564200E
:100B80004E6F6465204944733A200023206F66202D
:100B90006E6F6465733A2000446576696365206B07
:100BA00065793A2000476174657761792052616404
:100BB000696F2049443A20004C61742F6C6F6E6756
:100BC0003A200050726F6A6563742049443A2000ED
:100BD0004C6F526120526164696F204672657120CA
:100BE000284D487A293A200053657269616C204E7D
:100BF000756D6265723A200056657273696F6E207A
:100C0000002D2D2D205265636569766572204D6F2C
:100C10006465202D2D2D00536F696C20576174651C
:100C2000722044617461204E6574776F726B202D61
:100C30002043656C6C756C617220476174657761E7
:100C40007900496E76616C696420696E74657276AC
:100C5000616C2E20506C6561736520656E746572E1
:100C60002031206F7220342E00456E746572202270
:100C70003122206F72202234223A200020696E74C3
:100C8000657276616C20746F2031206F7220342081
:100C9000686F7572732E00206761746577617920C3
:100CA00064617461002075706C6F616400536574D9
:100CB000007C3C3E5E2B3D3F2F5B5D3B2C2A225C43
:100CC0000072740092740048940078C400000021FF
:100CD00000240027002A0000002200250028002B05
:100CE0000000002000230026002900020202020268
:100CF00002020204040404040404040303030303BF
:100D000003030301010101010101010102040810B3
:100D100020408001020408102040800102040810D5
:100D200020408001020408102040800000000102E1
:100D300000090A000000000403080700000000008A
:100D400000000000000000000000002B4353513A57
:100D5000200041542B435351002B435245473A2026
:100D60000041542B435245473F0041542B43504DC3
:100D7000533D22534D222C22534D222C22534D22DF
:100D80000053494D383030480053494D434F4D5F73
:100D900053494D35333230450053494D434F4D5F34
:100DA00053494D35333230410053494D38303020AE
:100DB0005231330053494D383038205231330053CB
:100DC000494D383038205231340041542B43564875
:100DD000553D3000415445300041544530004154A8
:100DE000004154004154004154004154004154001A
:100DF0004F4B00464F4E4100464F4E416E657400CA
:100E0000605EC46411241FBECFEFD0E4DEBFCDBF4F
:100E10001EE0A0E0B1E0E8E9FCED00E00BBF02C09D
:100E200007900D92A43CB107D9F723E2A4ECBEE0F1
:100E300001C01D92AA3DB207E1F717E0C1E0D7E07B
:100E400004C02197FE010E94286AC030D107C9F76B
:100E50000E9436600C943F6E0C9400000895089533
:100E6000982F20914A1A81E0213208F043C08091E6
:100E7000491A8111FCCF8091421A32E03093491A0D
:100E80009093481A9FEF9093201A10921F1A209364
:100E90001E1AA2E2BAE1EEEFF9E190E0291331C0A7
:100EA0001092FD199091FD19880F892B8093FD19DF
:100EB0008091471A813049F51092471A8091FD19A7
:100EC0008093BB008091BC0083FDF8CF85EC8093BC
:100ED000BC008091491A8230E1F38091201A8F3F43
:100EE000B1F08091201A8032A1F08091201A8033D5
:100EF00091F084E010924B1A10924A1A1092211A23
:100F000008953D9131939F5FC9CF85EEE0CF80E09A
:100F1000F1CF82E0EFCF83E0EDCF9091491A9111AC
:100F2000FCCF91E09093491A9093481A2FEF2093A9
:100F3000201A10921F1A260F20931E1A9093FD1943
:100F40009091FD19880F892B8093FD198091471A84
:100F50008130F9F41092471A8091FD198093BB00FB
:100F60008091BC0083FDF8CF85EC8093BC0080911C
:100F7000491A8130E1F380911F1A861710F46091AD
:100F80001F1AAEEFB9E1EDEDF9E180E0861303C081
:100F9000089585EEEACF9D9191938F5FF7CF0F93E0
:100FA0001F93CF93DF93EC019A01AB01E889F98994
:100FB00082E08083EC85FD8510820E851F8560E8C8
:100FC00074E88EE190E00E94A46821503109410943
:100FD00051095695479537952795F8012083188E26
:100FE000EC89FD8986E08083EA89FB8980818061C4
:100FF0008083EA89FB89808188608083EA89FB8914
:10100000808180688083EA89FB8980818F7D8083ED
:10101000DF91CF911F910F91089580915920909168
:101020005A20DC01ED91FC910484F585E02D0994B2
:10103000FF920F931F93CF93DF938C01F62EC9E598
:10104000D0E288819981DC01ED91FC910488F589D9
:10105000E02D642F099588819981DC01ED91FC9147
:101060000680F781E02D4F2DB801DF91CF911F91C0
:101070000F91FF900994E82FF0E0EE0FFF1FE25D63
:10108000FE4F71836083813049F0823071F080912E
:101090006900836080936900E89A089580916900EF
:1010A0008C6080936900E99A08958091690080635B
:1010B00080936900EA9A0895DC01ED91FC9101901A
:1010C000F081E02D0994EF92FF920F931F93CF933D
:1010D000DF938C017B01D0E0C0E0F701EC0FFD1F36
:1010E0006491662361F0D801ED91FC910190F0814B
:1010F000E02DC8010995892B11F02196EECFCE0184
:10110000DF91CF911F910F91FF90EF900895AF92D3
:10111000BF92CF92DF92EF92FF920F931F93CF93E4
:10112000DF936C017B018B01040F151FEB015E0146
:10113000AE18BF08C017D10759F06991D601ED91DB
:10114000FC910190F081E02DC6010995892B79F77A
:10115000C501DF91CF911F910F91FF90EF90DF902C
:10116000CF90BF90AF900895FC01538D448D252FF3
:1011700030E0842F90E0821B930B541718F08150BD
:101180009F4F089501970895FC01918D828D9817C6
:1011900059F0A28DAE0FBF2FB11D5D968C91928D2F
:1011A0009F5F928F90E008958FEF9FEF0895FC016D
:1011B000918D828D981731F0828DE80FF11D858D0C
:1011C00090E008958FEF9FEF0895FC01918D828D3F
:1011D000981B892F90E008958EE49AE10E94E5081B
:1011E00021E0892B09F420E0822F08958BE69CE111
:1011F0000E94E50821E0892B09F420E0822F089560
:10120000CF93DF93EC01E881F9810680F781E02D2F
:101210000995EA89FB8980818F7E8083EA89FB8931
:101220008081877F8083EA89FB8980818F778083B3
:10123000EA89FB8980818F7D80838A8D898FDF9108
:10124000CF910895FC01A48DA80FB92FB11DA35E05
:10125000BE4F9C91848D8F5F848FA689B7899C93A4
:10126000A089B1898C91837080648C93938D848DD7
:10127000981306C00288F389E02D80818F7D8083DA
:1012800008950F931F93CF93DF93EC0181E0888F34
:101290009B8D8C8D981318C0E889F989808185FF12
:1012A00013C09FB7F894EE89FF896083E889F989B4
:1012B00080818370806480839FBF81E090E0DF91B4
:1012C000CF911F910F910895062F1B8D1F5F8C8D5D
:1012D00081130CC00FB607FCFACFE889F989808129
:1012E00085FFF5CFCE010E942209F1CFEB8DEC0FE7
:1012F000FD2FF11DE35EFE4F00839FB7F8941B8F17
:10130000EA89FB8980818062D6CFCF93DF93EC019D
:10131000888D8823B9F0AA89BB89E889F9898C91DD
:1013200085FD03C0808186FD0DC00FB607FCF7CF99
:101330008C9185FFF2CF808185FFEDCFCE010E9499
:101340002209E9CFDF91CF91089580E090E0892BC9
:1013500029F00E94F60881110E94000080E090E0D0
:10136000892B29F00E94EC0881110C94000008954B
:1013700081508A3080F5E82FF0E0EF53F64F0C945F
:10138000286AD509D909CB09D109EB09EB09DC0990
:10139000E209E609EC09809180008F778093800054
:1013A0000895809180008F7DF9CF84B58F7784BDBB
:1013B000089584B58F7DFBCF8091B0008F778093A7
:1013C000B00008958091B0008F7DF9CF809190009A
:1013D0008F77809390000895809190008F7DF9CF52
:1013E000CF93DF93282F30E0F901E55DF24F849130
:1013F000F901E55FF24FD491F901E551F34FC49142
:10140000CC23A1F081110E94B809EC2FF0E0EE0F7F
:10141000FF1FEF51F34FA591B491EC91ED2381E0C3
:1014200090E009F480E0DF91CF91089580E090E0B2
:10143000FACF1F93CF93DF93282F30E0F901E55DBA
:10144000F24F8491F901E55FF24FD491F901E55132
:10145000F34FC491CC23A9F0162F81110E94B80933
:10146000EC2FF0E0EE0FFF1FE952F34FA591B4917E
:101470008FB7F894EC91111108C0D095DE23DC935E
:101480008FBFDF91CF911F910895DE2BF8CF10927F
:101490004D1A10924C1A10924B1A10924A1A10922E
:1014A000491A81E08093481A1092471A61E081E15D
:1014B0000E94190A61E080E10E94190AE9EBF0E05C
:1014C00080818E7F808380818D7F808380E2809386
:1014D000B80085E48093BC008EE297E09093461AB2
:1014E0008093451A8FE297E09093441A8093431AB1
:1014F0000895CF93DF9390E0FC01E55FF24F2491D4
:101500008551934FFC0184918823D1F090E0880F9E
:10151000991FFC01E353F34FA591B491FC01E952EB
:10152000F34FC591D49161110EC09FB7F8948C917F
:10153000E22FE0958E238C932881E223E8839FBFDE
:10154000DF91CF9108958FB7F894EC91E22BEC9353
:101550008FBFF6CF883108F0885187708064809300
:101560007C0080917A00806480937A0080917A0078
:1015700086FDFCCF809178009091790008953FB767
:10158000F89480918F1790919017A0919117B09136
:10159000921726B5A89B05C02F3F19F00196A11DF3
:1015A000B11D3FBFBA2FA92F982F8827BC01CD01AD
:1015B000620F711D811D911D43E0660F771F881F0B
:1015C000991F4A95D1F708958F929F92AF92BF923B
:1015D000CF92DF92EF92FF924B015C010E94BF0A13
:1015E0006B017C010E94BF0A6C197D098E099F095D
:1015F000683E734081059105A8F321E0821A9108A5
:10160000A108B10888EEC80E83E0D81EE11CF11CC9
:1016100081149104A104B10429F7FF90EF90DF90A9
:10162000CF90BF90AF909F908F900895FF920F93AF
:101630001F93CF93DF93F82E04EF11E0D0E0C0E0CA
:101640008091572090915820DC01ED91FC9100840D
:10165000F185E02D0995892BC9F080915720909153
:101660005820DC01ED91FC910284F385E02D099571
:101670008D3031F38A3021F4209711F3FF2091F05F
:10168000FE01E15CF04E86872196DACF0150110908
:1016900049F061E070E080E090E00E94E40ACE3F13
:1016A000D10570F2FE01E15CF04E16868C2FDF91C1
:1016B000CF911F910F91FF9008952FB7F8946091EB
:1016C0008B1770918C1780918D1790918E172FBF6B
:1016D00008950895885E9E4FDC018D919C91DC01F8
:1016E000ED91FC910680F781E02D0994885E9E4F74
:1016F000DC018D919C91DC01ED91FC910484F585D8
:10170000E02D0994885E9E4FDC018D919C91DC0157
:10171000ED91FC910284F385E02D0994885E9E4F43
:10172000DC018D919C91DC01ED91FC910190F081A7
:10173000E02D0994885E9E4FDC018D919C91DC0127
:10174000ED91FC910084F185E02D0994CF93DF9316
:1017500090E080E0EC0121968897A8F48FE39FE168
:101760000E949A0B892B39F08FE39FE10E94820B34
:10177000D0E0C0E0F3CF61E070E080E090E00E9454
:10178000E40ACE01E7CFDF91CF9108958BEF089562
:10179000CF93DF93FC01228133812230310569F040
:1017A000EC01638D818D0E94190A60E0888D0E9492
:1017B000190A82E090E09B838A83DF91CF9108959C
:1017C000FF920F931F93CF93DF93EC01162FF42E0C
:1017D0000FB7F89460E08F890E94190A8D899E895D
:1017E000612F6068DC01ED91FC910190F081E02DAA
:1017F0000995182F8D899E89DC01ED91FC9101904E
:10180000F081E02D6F2D099561E08F890E94190A02
:101810000FBF812FDF91CF911F910F91FF900895FE
:101820000F931F93CF938C01C62F44E06DE40E9469
:10183000E00B4BEF4C0F406869E0C801CF911F915E
:101840000F910C94E00BCF93DF93FC012281338145
:101850002130310549F0EC0140E061E00E94E00BED
:1018600081E090E09B838A8381E0DF91CF910895AE
:10187000CF93DF93FC01228133812230310549F07F
:10188000EC0141E061E00E94E00B82E090E09B838C
:101890008A83DF91CF910895CF92DF92EF92FF92EA
:1018A000CF93DF93EC01CB01BA0120E034E244E7AF
:1018B00059E40E949E6720E034E244E752E40E942B
:1018C00042690E94BB696B017C01A70166277727EB
:1018D00066E0CE010E94E00B77276F2D5E2D4D2D27
:1018E00067E0CE010E94E00B4C2D68E0CE010E9423
:1018F000E00B81E0DF91CF91FF90EF90DF90CF90F0
:101900000895CF92DF92EF92FF920F931F93CF93A0
:10191000DF934C3F08F067C0142F072FF62EEC0121
:10192000E881F9810484F585E02D0995CE010E94B6
:10193000380C40E06DE0CE010E94E00B4A8560E08B
:10194000CE010E94E00B4B8560E0CE010E94E00BCF
:101950004C8560E0CE010E94E00B4D8560E0CE0139
:101960000E94E00BEFB6F89460E08F890E94190A9C
:101970008D899E89DC01ED91FC910190F081E02D33
:1019800060E80995CF2CD02E012F015068F08D8989
:101990009E89F60161916F01DC01ED91FC9101904E
:1019A000F081E02D0995F1CF61E08F890E94190A3D
:1019B000EFBE44E0410F62E2CE010E94E00B8A815B
:1019C0009B81039771F043E061E0CE010E94E00B40
:1019D00040E460E4CE010E94E00B83E090E09B8352
:1019E0008A8381E001C080E0DF91CF911F910F9148
:1019F000FF90EF90DF90CF900895CF93DF93FC019D
:101A00002281338123303105C9F0EC018281938139
:101A1000049771F045E061E0CF010E94E00B40E0E7
:101A200060E4CE010E94E00B84E090E09B838A8317
:101A3000C65EDE4F8881DF91CF91089580E0FBCFB5
:101A40000F931F93CF93DF93EC01162F0FB7F894EA
:101A500060E08F890E94190A8D899E89DC01ED91D1
:101A6000FC910190F081E02D612F09958D899E896F
:101A7000DC01ED91FC910190F081E02D60E0099591
:101A8000182F61E08F890E94190A0FBF812FDF9103
:101A9000CF911F910F910895DF92EF92FF920F93D4
:101AA0001F93CF93DF93EC0162E10E94200D2A8106
:101AB0003B8124303105A1F4982F907A89F08F85ED
:101AC00098890196988B8F874FEF62E1CE01DF9165
:101AD000CF911F910F91FF90EF90DF900C94E00B4E
:101AE0002A813B812430310511F486FD0DC02A8105
:101AF0003B812330310541F783FFE6CF8B899C89F9
:101B000001969C8B8B8B67C063E1CE010E94200DF8
:101B1000082F60E1CE010E94200D482F6DE0CE011C
:101B20000E94E00BDFB6F89460E08F890E94190AEA
:101B30008D899E89DC01ED91FC910190F081E02D71
:101B400060E009957E01BBE1EB0EF11C102F1150F6
:101B500070F08D899E89DC01ED91FC910190F081FE
:101B6000E02D60E00995F70181937F01F0CF61E0FE
:101B70008F890E94190ADFBE0A8F4FEF62E1CE0102
:101B80000E94E00B6AE1CE010E94200D89588E87E9
:101B90008A8DFE01E65EFE4F8430C8F08B8D8E8309
:101BA0008C8D8F838D8D88878E8D89878D81811116
:101BB00007C09E818C81981719F08E818F3F39F470
:101BC00089899A8901969A8B898B81E080838081AB
:101BD000882309F479CFCE010E94380C75CF80910B
:101BE000881790918917009711F00C944C0D089567
:101BF0008091861790918717009711F00C944C0DE7
:101C000008958091841790918517009711F00C9496
:101C10004C0D0895CF93DF93EC018D899E89DC01F3
:101C2000ED91FC910680F781E02D099561E08F89A7
:101C30000E94790A61E08F890E94190A64E670E0C7
:101C400080E090E00E94E40A81E0DF91CF91089566
:101C5000FF920F931F93CF93DF931F92CDB7DEB701
:101C6000F42E09E510E2D8018D919C91DC01ED91F3
:101C7000FC91008CF18DE02D0995F8018081918116
:101C8000DC01ED91FC91028CF38DE02D40E060E8E9
:101C9000099581E289834F2D61E0CE0101960E9472
:101CA00018080E940D080F90DF91CF911F910F919E
:101CB000FF900895CF92DF92EF92FF920F931F93C0
:101CC000CF93DF93EC018B017A0169018091592058
:101CD00090915A20DC01ED91FC910280F381E02D7E
:101CE000099581110BC010E0812FDF91CF911F91D9
:101CF0000F91FF90EF90DF90CF9008958091592041
:101D000090915A20DC01ED91FC910480F581E02D49
:101D1000A701B8010995182F882329F3809159202C
:101D200090915A20DC01ED91FC9100A0F1A1E02DF1
:101D30000995F82E8091592090915A20DC01ED915F
:101D4000FC91068CF78DE02D0995E82E80915920A5
:101D500090915A20DC01ED91FC9102A0F3A1E02DBD
:101D60000995082F8091592090915A20DC01ED911E
:101D7000FC9104A0F5A1E02D099587FDB4CFBFEF3C
:101D8000EB1629F04F2D602FCE010E94280ECF0DAB
:101D9000D11D8B85801709F4A6CFF601F0820B8741
:101DA000A3CF9FB7F89480918217882319F08150B0
:101DB0008093821780918217811105C08CB58F7B2B
:101DC0008CBD1092BC179FBF08958CB58F778CBDCA
:101DD00008958CB580688CBD0895FC01738362837F
:101DE0000895FC01778366830895FC0175836483FD
:101DF0000895089580E00895FC0181850895FC010F
:101E000080850895FC0187810895FC0186810895ED
:101E10004095FC0125854223642B65870895FC01CC
:101E200064870895FC0163870895FC016287089523
:101E3000FC0164830895FC01658308958F929F924D
:101E4000AF92BF92CF92DF92EF92FF92CF93DF9348
:101E5000EC016B010E945D0B4B015C01F12CE12C4C
:101E60000E945D0B681979098A099B096C157D052B
:101E70008E059F0580F48A819B81039789F381E019
:101E8000DF91CF91FF90EF90DF90CF90BF90AF9018
:101E90009F908F90089580E0F3CFFC0122813381E1
:101EA00023303105D1F381E008958F929F92AF9254
:101EB000BF92CF92DF92EF92FF92CF93DF93EC012C
:101EC0006B010E945D0B4B015C01F12CE12C0E9427
:101ED0005D0B681979098A099B096C157D058E05CA
:101EE0009F05A0F4E881F9810280F381E02DCE0105
:101EF0000995882361F3DF91CF91FF90EF90DF90F8
:101F0000CF90BF90AF909F908F90089580E0F3CFD7
:101F1000CF93DF93EC01E881F9810280F381E02D1A
:101F2000CE0109958823B9F3DF91CF91089581E01F
:101F300008951F93CF93DF93EC01162F8881998129
:101F4000DC01ED91FC910288F389E02D09958881EF
:101F50009981DC01ED91FC910688F789E02D612FD4
:101F600009951A83DF91CF911F910895CF92DF9247
:101F7000EF92FF920F931F93CF936B017C01142F6D
:101F80008091592090915A20DC01ED91FC910190B3
:101F9000F081E02D0995C82F882309F160915B201D
:101FA00089E590E20E94990F8CE291E09093622083
:101FB0008093612083E080936320612F89E590E224
:101FC0000E94990F0091592010915A20B701A60143
:101FD000C8010E944C0C61E1C8010E94100C8C2FBA
:101FE000CF911F910F91FF90EF90DF90CF900895C8
:101FF00085ED8093BC008091BC0084FDFCCF1092E5
:10200000491A089520915F17260F3327331F213275
:102010003105ECF42091491AFC0190E080E0243075
:1020200069F082E00895A0915F172191AC01415CB5
:10203000584EA40FB52FB11D2C930196861798F317
:1020400080915F17680F60935F1780E0089581E0CB
:1020500008950895E0914D1A80914C1AE81730F4D4
:10206000F0E0E352F64E808190E008958FEF9FEF0D
:10207000089590914D1A80914C1A2FEF3FEF9817C9
:1020800048F4E92FF0E0E352F64E208130E09F5F04
:1020900090934D1AC901089580914C1A90914D1A50
:1020A000891B990B0895CF92DF92EF92FF920F93C5
:1020B0001F93CF93DF937C01CB018A012091211ADA
:1020C000222389F0EB016B01C40ED51ECC15DD0572
:1020D00069F06991D701ED91FC910190F081E02DBB
:1020E000C7010995F3CF642F0E940210C801DF9148
:1020F000CF911F910F91FF90EF90DF90CF900895B7
:10210000CF93DF931F92CDB7DEB769832091211A59
:102110002223F9F020914A1A203258F021E030E0D1
:10212000FC013383228390E080E00F90DF91CF9118
:10213000089580914B1AE82FF0E0EE5DF54E9981FD
:1021400090838F5F80934B1A80934A1A81E090E0CE
:10215000ECCF61E0CE0101960E940210F7CFCF9341
:10216000C62F91E09093211A98E69093421A10920C
:102170004B1A10924A1A682F8AEC93E20E94801040
:102180006C2F8AEC93E20E94801081E0CF910C9436
:102190003007CF93CFB7F89480918217811127C071
:1021A000EFEEFCE08491EFE0FDE09491E82FF0E0A9
:1021B000EE0FFF1FE353F34FA591B491EC91E92388
:1021C00021F461E084E00E94190A61E084E00E9449
:1021D000790A8CB580618CBD8CB580648CBD61E062
:1021E00087E00E94790A61E085E00E94790A809187
:1021F00082178F5F80938217CFBFCF910895FC0124
:10220000268137812115310591F12130310559F1B0
:102210002230310551F12330310549F52CE09CB5D0
:10222000937F922B9CBD84819581019711F58CB58C
:1022300080628CBD82819381019784309105E0F4A6
:1022400082599E4FFC0190818CB58C7F292F237081
:10225000822B8CBD8DB592FB992790F98E7F892BAF
:102260008DBD0C94C91024E0DACF28E0D8CF20E04F
:10227000D6CF8CB58F7DDDCF95E0E6CF9FB7F894B4
:102280002091BC1780913917213019F48DBB9FBF65
:1022900008958FBF089561E0FC0184810E94190AAE
:1022A00080913817882339F0109238178091BC1725
:1022B00081110C943E1108958EBD00000DB407FEEF
:1022C000FDCF8EB50895862F0C945C118FEF0C9482
:1022D0005C110F931F93CF93DF93EC010E945D0B72
:1022E0008B010E9466118F3F69F00E945D0B601B9D
:1022F000710B6C177D07A8F380E0DF91CF911F91E0
:102300000F91089581E0F9CF2091BC17222361F04D
:102310002FB7F8943091BC17313049F43DB3309366
:1023200039173DB33DBB2FBF8CBD9DBD0895209394
:102330003917FACFCF93DF93EC01809138178111D1
:1023400009C081E0809338178091881E9091891E82
:102350000E94841160E08C81DF91CF910C94190A66
:102360008F929F92AF92BF92FF920F931F93CF9342
:10237000DF93EC01F62E49015A018E81882389F002
:102380008F8198859C012F5F3F4F38872F83823044
:10239000924018F40E946611F3CFCE010E944B11B7
:1023A0001E82CE010E949A118CE291E00E94691176
:1023B0008F2D80640E945C1108E110E0D501C401FA
:1023C000002E04C0B695A795979587950A94D2F7E5
:1023D0000E945C1108501109083F8FEF180771F730
:1023E00085E9FF2021F028E087E8F2128FEF0E94B4
:1023F0005C1110E00E9466118A8787FF04C01F3FAE
:1024000011F01F5FF7CFDF91CF911F910F91FF90D8
:10241000BF90AF909F908F900895AF92BF92CF9250
:10242000DF92EF92FF920F931F93CF93DF93EC0114
:102430006901C801820F931F8130924050F58E814F
:10244000882379F088819981AA81BB8184179507B7
:10245000A607B70731F48F819885C816D90608F00A
:1024600042C0488359836A837B838B85833039F0EC
:1024700089E0440F551F661F771F8A95D1F79A018F
:10248000AB0161E1CE010E94B011882389F083E0A5
:102490008D83CE010E944B1180E0DF91CF911F917F
:1024A0000F91FF90EF90DF90CF90BF90AF90089585
:1024B0000E945D0B5B010E9466118A878F3F69F461
:1024C0000E945D0B6A197B096D327140A0F38FE0A9
:1024D0008D83CE010E944B11DCCF8E3F89F418868C
:1024E0001F8281E08E838F8198858C159D0550F425
:1024F0000E9466118F819885019698878F83F3CF0C
:102500008DE0E6CF6701E00EF11E0E946611F60134
:1025100081936F01EE15FF05C1F78F819885080F34
:10252000191F18870F838985882319F00115124018
:10253000A0F08E81882389F08F8198859C012F5F80
:102540003F4F38872F838230924018F40E946611E3
:10255000F3CFCE010E944B111E8281E09ECFEF92FD
:10256000FF920F931F93CF93DF93EC01790182E1E8
:10257000411551056105710599F08B85833039F05E
:1025800089E0440F551F661F771F8A95D1F79A017E
:10259000AB0168E1CE010E94B011882319F084E0FC
:1025A0008D8330C08EEF0E945C1187018EEFF81A88
:1025B000F80181918F010E945C110E151F05C1F772
:1025C0008FEF0E945C118FEF0E945C110E946611D8
:1025D0008A878F71853089F488E592E00E946911BD
:1025E0008823A9F020E030E0A9016DE0CE010E942F
:1025F000B011882371F084E1D3CF81E18D83CE01C6
:102600000E944B11CE010E944B1180E00AC085E16F
:10261000C7CF0E9466118111EECFCE010E944B11EF
:1026200081E0DF91CF911F910F91FF90EF9008957E
:10263000CF93DF9380913A178823A9F1C091BD17FA
:10264000D091BE1740911201509113016091140175
:10265000709115012FEB37E1CE010E94AF1281116D
:1026600004C080E0DF91CF91089540913B175091D5
:102670003C1760913D1770913E174115510561055A
:10268000710579F02FEB37E1CE010E94AF1288235C
:1026900041F310923B1710923C1710923D17109285
:1026A0003E1710923A1781E0DDCF8F929F92AF9242
:1026B000BF92EF92FF920F931F93CF934B015C0158
:1026C000C42F8091120190911301A0911401B09137
:1026D000150188159905AA05BB0549F10E94181333
:1026E00081110BC080E0CF911F910F91FF90EF906F
:1026F000BF90AF909F908F9008958FEBE82E87E169
:10270000F82E00E012E030E020E0B501A401809155
:10271000BD179091BE170E940D12882319F3809265
:10272000120190921301A0921401B09215014091F0
:102730003A174C2B40933A1781E0D5CFCF93DF93D4
:10274000EC016E857F858889998941E00E94551347
:10275000882351F08A8920E2829FC001112481548C
:10276000984EDF91CF91089590E080E0FACF8F925C
:102770009F92AF92BF92CF92DF92EF92FF92CF9350
:102780002AE83EE13093BE172093BD17882309F451
:102790006DC040E060E070E0CB010E9455138111F4
:1027A0000BC080E0CF91FF90EF90DF90CF90BF9073
:1027B000AF909F908F90089580917D198F7789F7C2
:1027C0008091891990918A19A0918B19B0918C19D7
:1027D00084369105A105B10520F3C0908519D090EC
:1027E0008619E0908719F0908819C114D104E1048A
:1027F000F104B9F240E0C701B6010E9455138823E5
:1028000081F28091CA179091CB178115924049F6B9
:10281000A091CF17AA2329F26091CD177091CE17FE
:102820006115710509F4BDCF2091CC17222309F45D
:10283000B8CFA093A81E20939A1E90E080E030E0CD
:10284000E1E0F0E0C82FAF01082E02C0440F551F91
:102850000A94E2F72417350769F041E0480F019622
:102860008930910579F74093A31E9BCFC12CD12CC1
:102870007601C0CF8093A31E2091D5173091D61733
:1028800050E040E02115310541F42091E3173091EB
:10289000E4174091E5175091E61720939B1E309363
:1028A0009C1E40939D1E50939E1E46015701860E0E
:1028B000971EA11CB11C8092A91E9092AA1EA092E4
:1028C000AB1EB092AC1EE091D017F091D117F093EF
:1028D000AF1EE093AE1EB0E00E949168DC01CB0118
:1028E000880D991DAA1DBB1D8093B01E9093B11E2B
:1028F000A093B21EB093B31E25E0EE0FFF1F2A95E2
:10290000E1F7E150FE4FEF2FFF27E6958E0F9F1F57
:10291000A11DB11D8093A41E9093A51EA093A61E79
:10292000B093A71E8090D2179090D317B12CA12CF2
:102930008114910441F48090DF179090E017A090EB
:10294000E117B090E217C81AD90AEA0AFB0AC80CC4
:10295000D91CEA1CFB1C04C0F694E794D794C794D6
:10296000CA95D2F7C0929F1ED092A01EE092A11EDF
:10297000F092A21E85EFC8168FE0D806E104F1049C
:1029800028F48CE08093AD1E81E00CCF80E125EF30
:10299000C2162FEFD206E104F104A0F38091EB17E9
:1029A0009091EC17A091ED17B091EE178093B01EA7
:1029B0009093B11EA093B21EB093B31E80E2E2CFFB
:1029C0004F925F926F927F928F929F92AF92BF923F
:1029D000CF92DF92EF92FF920F931F93CF93DF93EB
:1029E000EC01423051056105710590F480E0DF9102
:1029F000CF911F910F91FF90EF90DF90CF90BF90FC
:102A0000AF909F908F907F906F905F904F900895C0
:102A100089859A85AB85BC850196A11DB11D84175A
:102A20009507A607B70710F3CB88DC88ED88FE88EA
:102A30008F89803109F042C0BB27A72F962F852FA1
:102A4000480159012A013B01C80ED91EEA1EFB1E8E
:102A50008091120190911301A0911401B091150180
:102A6000C816D906EA06FB0699F58F898031C1F5AB
:102A7000B301A201552766277727440F551F4154FC
:102A8000584EFA019182808280913A17816080933A
:102A90003A178A89823080F08D819E81AF81B88516
:102AA0008C0D9D1DAE1DBF1D80933B1790933C1751
:102AB000A0933D17B0933E1781E099CFDB01CA0187
:102AC000E7E0B695A79597958795EA95D1F7B8CFA2
:102AD00040E0C701B6010E9455138111C6CF86CFD1
:102AE000B301A2014F77552766277727440F551F5B
:102AF000440F551F4154584EFA0180829182A282A0
:102B0000B382C2CF8F929F92AF92BF92CF92DF9249
:102B1000EF92FF920F931F93CF93DF93FC01818578
:102B20009285A385B4850196A11DB11D84179507D3
:102B3000A607B70770F480E0DF91CF911F910F9146
:102B4000FF90EF90DF90CF90BF90AF909F908F90CD
:102B5000089583889488A588B6888789803189F507
:102B6000BB27A72F962F852FE9016A017B018F01D3
:102B7000BC01CD01680D791D8A1D9B1D809012013D
:102B800090901301A0901401B0901501861697063D
:102B9000A806B90601F5F8018789803111F5DD2411
:102BA000EE24FF24F601EE0FFF1FE154F84E808162
:102BB0009181B0E0A0E088839983AA83BB8381E000
:102BC000BBCFDB01CA01C7E0B695A795979587955E
:102BD000CA95D1F7C9CF40E00E9455138111DBCFD0
:102BE000AACFE894C7F8DD24EE24FF24F601EE0F07
:102BF000FF1FEE0FFF1FE154F84E80819181A281EB
:102C0000B381BF70D8CF4F925F926F927F92AF9295
:102C1000BF92CF92DF92EF92FF920F931F93CF93C9
:102C2000DF9300D000D0CDB7DEB78C0149835A8343
:102C30006B837C835901C12CD12C7601412C82E01D
:102C4000582E612C712C49815A816B817C819E01A7
:102C50002F5F3F4FC8010E948215882339F1F80188
:102C60008585A301920104C0220F331F441F551F05
:102C70008A95D2F7DA01C901C80ED91EEA1EFB1ED9
:102C800049815A816B817C818789803111F188EF7C
:102C90009FEFAFEFBFE0481759076A077B0798F22D
:102CA000F501C082D182E282F38281E00F900F9021
:102CB0000F900F90DF91CF911F910F91FF90EF90A8
:102CC000DF90CF90BF90AF907F906F905F904F90CC
:102CD000089588EF9FEFA0E0B0E0DDCFCF93DF93C2
:102CE000FC012581222321F080E0DF91CF9108951E
:102CF000EC018091AD1E803159F582E08583178A01
:102D0000108E118E128E8091AE1E9091AF1EB0E08B
:102D1000A0E025E0880F991FAA1FBB1F2A95D1F7B5
:102D2000838B948BA58BB68B86E99EE19C8F8B8FD2
:102D300081E08C831E821F82188619861A861B8664
:102D40001C861D861E861F86188A198A1A8ACDCF70
:102D5000803251F683E085834091B01E5091B11EC0
:102D60006091B21E7091B31E478B508F618F728F2E
:102D70009F012D5E3F4F86E99EE10E94031681115F
:102D8000D3CFB2CF8F929F92AF92BF92CF92DF926A
:102D9000EF92FF920F931F93CF93DF93EC018D81FE
:102DA00081110EC080E0DF91CF911F910F91FF90B4
:102DB000EF90DF90CF90BF90AF909F908F9008954D
:102DC0000B891C892D893E890417150726073707AB
:102DD00048F34A015B01823031F48A869B86AC86D7
:102DE000BD8681E0E0CF81149104A104B10449F4CF
:102DF0001E821F82188619861A861B861C861D86CF
:102E0000F0CF0A851B852C853D85EB8DFC8D858556
:102E100090E00996B901A801415051096109710971
:102E2000082E04C076956795579547950A94D2F772
:102E300075016401E1E0CE1AD108E108F10804C08F
:102E4000F694E794D794C7948A95D2F7C416D5061A
:102E5000E606F70620F0012B022B032B11F58F89D4
:102E6000988DA98DBA8D8E839F83A887B9878E018F
:102E70000A5F1F4FC114D104E104F10409F4ADCF7E
:102E80004E815F816885798598018B8D9C8D0E942C
:102E9000821591E0C91AD108E108F1088111EACF41
:102EA00081CFC41AD50AE60AF70AE1CF3F924F92C2
:102EB0005F926F927F928F929F92AF92BF92CF92CA
:102EC000DF92EF92FF920F931F93CF93DF93CDB7D3
:102ED000DEB72C970FB6F894DEBF0FBECDBF5C01F6
:102EE000DC015B968D909C905C9716964D905D9062
:102EF0006D907C901997411451046104710409F498
:102F000068C0BFEF4B1A5B0A6B0A7B0A312CF401D5
:102F100081859285A385B4859C01AD012F5F3F4FCC
:102F20004F4F5F4F29873A874B875C877301620158
:102F30001D821E821F821886F40181859285A385D9
:102F4000B4852D813E814F815885281739074A075E
:102F50005B0708F056C089859A85AB85BC858C15C2
:102F60009D05AE05BF0550F482E0C82ED12CE12CA2
:102F7000F12C92E0492E512C612C712C9E012F5F77
:102F80003F4FB701A601C4010E9482158823C9F1F1
:102F900089819A81AB81BC81892B8A2B8B2B09F18A
:102FA000260137019FEF491A590A690A790A2D81CA
:102FB0003E814F8158852F5F3F4F4F4F5F4F2D838D
:102FC0003E834F8358873FEFC31AD30AE30AF30ABD
:102FD000B3CFF401408051806280738033243394F6
:102FE00096CFC414D504E604F70409F70FEF1FEFDA
:102FF0002FEF3FE0B701A601C4010E94E014811148
:1030000019C080E02C960FB6F894DEBF0FBECDBF7E
:10301000DF91CF911F910F91FF90EF90DF90CF90B4
:10302000BF90AF909F908F907F906F905F904F90E8
:103030003F900895F501468157816085718541155E
:1030400051056105710539F097018601C4010E949F
:10305000E0148823B1F2D5011696CD92DD92ED925F
:10306000FC921997332051F0D701C6010196A11D9A
:10307000B11DF40180839183A283B383F501878915
:10308000908DA18DB28D892B8A2B8B2B39F4C78A19
:10309000D08EE18EF28E84818068848381E0B2CF0D
:1030A0002F923F924F925F926F927F928F929F9258
:1030B000AF92BF92CF92DF92EF92FF920F931F9346
:1030C000CF93DF93EC015B012A018D81811115C043
:1030D0008FEF9FEFDF91CF911F910F91FF90EF90B6
:1030E000DF90CF90BF90AF909F908F907F906F9028
:1030F0005F904F903F902F9008958C8180FFE8CF94
:103100000B891C892D893E894A855B856C857D8567
:10311000C201B0E0A0E068017901C41AD50AE60A4C
:10312000F70AC816D906EA06FB0618F42801441A5D
:10313000550A42011E0126E0220E311C8114910421
:1031400009F4B3C04A855B856C857D856A0181E0A1
:10315000D8228B8D9C8D8A019B01E9E036952795BD
:1031600017950795EA95D1F7ED81E230E1F5FC017D
:10317000628D738D848D958D600F711F821F931FDB
:10318000612C22E0722E6C187D088614970408F4D6
:1031900034012C8126FD04C06114F2E07F0671F435
:1031A0000091120110911301209114013091150129
:1031B000061717072807390709F053C040E00E9497
:1031C0005513882309F484CFC6018154984ED50144
:1031D0009C01260D371DFC012E173F0709F460C026
:1031E00041914D93F9CFFC0174807A947022C114FF
:1031F000D10471F471100CC0452B462B472B39F5C7
:103200008F89988DA98DBA8D8E839F83A887B98762
:10321000EB8DFC8D6E817F81888599856250710967
:1032200081099109258504C0660F771F881F991FA2
:103230002A95D2F70685178520893189600F711F7D
:10324000821F931F670D711D811D911D99CF4E81A6
:103250005F816885798591010E9482158111D8CF9F
:1032600037CF750183019601AB01BC018091BD1779
:103270009091BE170E940D12882309F429CFA60C45
:10328000B71C8A859B85AC85BD85860D971DA11DC4
:10329000B11D8A879B87AC87BD87861897084ECF5C
:1032A000281B390BA20EB31EECCFC20113CFCF9354
:1032B000DF93EC018D81882329F18C8187FF1EC06B
:1032C000CE010E949E13FC01892BE1F08D8182309A
:1032D00040F48B899C89AD89BE89848F958FA68F98
:1032E000B78F8F89988D938F828F8F89988DA98DB5
:1032F000BA8DB58BA48B8C818F778C83DF91CF9126
:103300000C94181380E0DF91CF910895CF93DF9351
:10331000EC010E945719882311F01D8281E0DF9192
:10332000CF910895CF92DF92EF92FF921F93CF93A8
:10333000DF938091B91E882321F084EB9EE10E94E7
:1033400086191092951E1092931E1092901E109244
:103350008F1E83E080938E1E0E945D0BEB0161E067
:1033600080918E1E0E94790A61E080918E1E0E94DB
:10337000190A0E94C91082E58093881E81E080931B
:10338000891E8091881E9091891E0E9484111AE0E6
:103390008FEF0E945C111150D9F78091BC178111F9
:1033A0000E943E118AE89EE10E949A1120E030E0DE
:1033B000A90160E08AE89EE10E94B011182F809375
:1033C000941E813081F00E945D0B6C1B7D0B613D72
:1033D000774060F381E080938F1E8AE89EE10E942F
:1033E0004B1190E078C02AEA31E040E050E068E01C
:1033F0008AE89EE10E94B01182FF2AC01093951EB8
:103400008091951EC12CD12C7601823029F4C12CDB
:10341000D12CE12C80E4F82E20E030E0A90167E314
:103420008AE89EE10E94B011A701960169E28AE84C
:103430009EE10E94B0118093941E8823C1F00E94E7
:103440005D0B6C1B7D0B613D774030F388E0C3CF93
:1034500014E00E9466118093941E1150D1F78A3AAD
:1034600011F082E0B8CF82E08093951EC9CF8091A1
:10347000951E8230D1F420E030E0A9016AE38AE8A9
:103480009EE10E94B011882311F086E0A4CF0E9433
:103490006611807C803C19F483E08093951E0E9425
:1034A00066110E9466110E9466118AE89EE10E94E0
:1034B0004B1180E58093881E81E08093891E0E94D5
:1034C000B713882389F084EB9EE10E946E1691E089
:1034D000882309F486CF892FDF91CF911F91FF9028
:1034E000EF90DF90CF90089580E00E94B71388237B
:1034F00009F477CFE8CF2F923F924F925F926F926D
:103500007F928F929F92AF92BF92CF92DF92EF9273
:10351000FF920F931F93CF93DF9300D000D0CDB7CE
:10352000DEB78C015B011A01DC0115968C911597B1
:10353000813009F0C8C014968C9181FFC4C082FD0F
:10354000AEC06101D8011A964D915D916D917C914B
:103550001D97C114D10409F429C15B968D919C91EA
:103560005C97FC0174802FEF270D2A013B0139E0A5
:1035700076946794579447943A95D1F7722E7420B5
:103580007A01F1E0FF22711020C0E114F104E9F4A6
:1035900016964D915D916D917C911997411551054C
:1035A0006105710509F098C057968D919D910D9018
:1035B000BC91A02D0097A105B10509F0AFC0C801CD
:1035C0000E945617882309F47EC080E092E08E198D
:1035D0009F0946018C159D0508F44C01D8015B96A6
:1035E0004D915C915C9716968D919D910D90BC913B
:1035F000A02D0297A109B109FA01258504C0880F01
:10360000991FAA1FBB1F2A95D2F746855785608947
:103610007189840F951FA61FB71F9C01AD01270D4F
:10362000311D411D511D29013A01811432E09306DB
:1036300009F07AC08091120190911301A0911401B8
:10364000B091150184159505A605B70559F48FEFBE
:103650009FEFDC018093120190931301A09314015A
:10366000B09315019501B301A2018091BD1790910E
:10367000BE170E94AF12882331F19EEFB91AC81805
:10368000D908F80182859385A485B585880D991D93
:10369000A11DB11D82879387A487B58753CFF801F9
:1036A000438954896589768982859385A485B58502
:1036B000481759076A077B0709F443CFC8010E94DE
:1036C000C21681113ECF81E090E0D80113969C9301
:1036D0008E93129780E007C09E012F5F3F4F0E949C
:1036E0008215811102C090E077C089819A81AB81F7
:1036F000BC81F801238D348DF901278948EF5FEFF4
:1037000060E070E0203121F048EF5FEF6FEF7FE085
:1037100084179507A607B70708F051CFF8018683ED
:103720009783A087B18751CFE114F10491F5D801B7
:103730001A964D915D916D917C911D9753968D9147
:103740009D910D90BC91A02D481759076A077B07E2
:1037500000F10E941813882309F4B5CF409212019A
:1037600050921301609214017092150180913A17E2
:10377000816080933A1797012154384ED501C901D1
:10378000880D991DF9018E179F0759F04D914193AE
:10379000FACF41E0C301B2010E9455138111EBCF72
:1037A00092CF821B930BA80EB91E69CFF8018389B3
:1037B0009489A589B68984179507A607B70738F4B1
:1037C0008481438B548B658B768B80688483F8016E
:1037D000848183FD18C0C1010F900F900F900F904E
:1037E000DF91CF911F910F91FF90EF90DF90CF90DD
:1037F000BF90AF909F908F907F906F905F904F9011
:103800003F902F900895C8010E945719882309F40A
:103810005ACFE1CFCF93DF931F92CDB7DEB7698345
:1038200041E050E0BE016F5F7F4F0E947B1A0F9016
:10383000DF91CF910895FC01DB0112968D919C914F
:1038400013979383828384EC91E091838083149611
:103850008C911497848315968C9115978583169671
:103860004D915D916D917C91199746835783608747
:1038700071871A964D915D916D917C911D9742874C
:103880005387648775871E964D915D916D917C91EC
:10389000519746875787608B718B52968C915297C0
:1038A000828B53964D915D916D917C915697438B90
:1038B000548B658B768B57964D915D916D917C9174
:1038C0005A97478B508F618F728F5B968D919C9129
:1038D000948F838F0895DC015996ED91FC91309778
:1038E00021F081E09581911101C080E00895FC01F3
:1038F000818D928D009711F00C9457190895DC0179
:103900005996ED91FC913097B9F083899489A589F6
:10391000B6894285538564857585841B950BA60BF6
:10392000B70B811520E89207A105B10538F08FEF9C
:103930009FE7A0E0B0E0089590E080E00895CF9385
:10394000DF93EC01E98DFA8D309749F481E090E046
:103950009B838A8390E080E0DF91CF91089513826A
:103960001282898D9A8D0E947B1AE98DFA8D2281AF
:103970003381232B59F7F0CFCF93DF931F92CDB72D
:10398000DEB76983DC01ED91FC910280F381E02DCB
:1039900041E050E0BE016F5F7F4F09950F90DF91CE
:1039A000CF910895CF93DF931F92CDB7DEB741E05B
:1039B00050E0BE016F5F7F4F0E945018019731F4B5
:1039C000898190E00F90DF91CF9108958FEF9FEF65
:1039D000F9CF1F93CF93DF93FC012581223030F480
:1039E00090E080E0DF91CF911F910895EC01428536
:1039F00053856485758585E07695679557954795D8
:103A00008A95D1F7142F1F70CF010E94D21C97FD09
:103A1000E7CF8A859B85AC85BD854F96A11DB11DDD
:103A20008A879B87AC87BD87F0E21F9FC001112466
:103A30008154984ED7CFFC01818D928D009711F063
:103A40000C94D21C8FEF9FEF08950F931F93CF9389
:103A5000DF93EC01898D9A8D10E000E0009799F0DA
:103A60000E94D21C8C010F3F100769F0898D9A8D3E
:103A7000FC01428553856485758541505109610972
:103A800071090E94C216C801DF91CF911F910F9159
:103A90000895CF93DF93EC01FB01828193819B8397
:103AA0008A8384819581A681B7818C839D83AE832F
:103AB000BF8380859185A285B38588879987AA87EA
:103AC000BB8780ED91E0998388838DE03C96DE0191
:103AD0001C9601900D928A95E1F7FB01818D928DE4
:103AE0009A8F898FDF91CF910895CF92DF92EF92D5
:103AF000FF92CF93DF9360E08DE10E94790A8DE120
:103B00000E94AA0AB0E0A0E0BC01CD01660F771FB9
:103B1000881F991F0E943D6723E333E343E550E488
:103B20000E949E6720E030E048EC52E40E949E67CD
:103B300020E030E84FEF53E40E94D66820E030ECFC
:103B40004FE754E40E9442690E94BB69CB0164E6DE
:103B500070E00E94006AEB01BC0190E080E00E94EE
:103B60003D6720E030E048EC52E40E9442696B017E
:103B70007C01BE0190E080E00E943D679B01AC01AA
:103B8000C701B6010E94D668DF91CF91FF90EF90F8
:103B9000DF90CF90089560E080E00E94190A68EB02
:103BA0007BE080E090E00E94E40A61E080E00C9419
:103BB000190ACF93DF9380B7806880BF61E08EE001
:103BC0000E94190A62E370E080E090E00E94E40A3B
:103BD00088E10E94AA0AEC0160E08EE00E94190AC6
:103BE000BE01DD0F880B990B0E943F6723EA36E088
:103BF00043E55BE30E949E672EEB3FE94AEA5FE301
:103C00000E949E67DF91CF910895CF93DF93FB01D0
:103C100022813381DC0113963C932E9312974481C9
:103C200055816681778114964D935D936D937C9356
:103C30001797408551856285738518964D935D93DE
:103C40006D937C931B971C96EF012C969C01275E2D
:103C50003F4F49914D93A217B307D9F7218D328D6C
:103C6000FC01328F218FDF91CF910895CF93DF93A5
:103C70008BE69CE10E9400098DE692E20E94230CF3
:103C800080B78F7780BFCAE7D0E088818F7788833D
:103C9000F89485B7806885BF85B7806885BF7894BC
:103CA00061E081E00E94190A8CB58F7B8CBD61E0D8
:103CB00085E00E94790A60E085E00E94190A83B7D6
:103CC000817F846083BF83B7816083BF7894EBE694
:103CD000F0E0808184608083E8E6F0E080818160AC
:103CE000808383B7816083BF889583B78E7F83BFCE
:103CF00088818068888360E081E00E94190A8CB521
:103D000080648CBD40E051EE60E070E08BE69CE1A9
:103D10000E94CF0768EE73E080E090E0DF91CF91E2
:103D20000C94E40A90E080E00895282F30E094E0BD
:103D3000359527959A95E1F7922F990F990F291BA1
:103D4000220F820F089581E08093211A88E68093E4
:103D5000421A10924B1A10924A1A60E08AEC93E2CF
:103D60000E94801081E00E943007811142C067E00C
:103D700088E60E948D0710924D1A80934C1A8AECA7
:103D800093E20E9439108F770E94951E8093D61976
:103D90008AEC93E20E9439100E94951E8093D719F5
:103DA0008AEC93E20E9439108F7B0E94951E8093CB
:103DB000D8198AEC93E20E9439108093D9198AECC1
:103DC00093E20E9439100E94951E8093DA198AECC2
:103DD00093E20E9439108F770E94951E8093DB1921
:103DE0008AEC93E20E9439100E94951E825E8093B5
:103DF000DC198091D6198093B3128091D7198093E2
:103E0000B4178091D8198093B5178091DA198093EF
:103E1000B6128091DB198093B7128091DC1990E083
:103E20008E54984F9093B5128093B41262E370E071
:103E300080E090E00C94E40ACF9391E09093211AF3
:103E400098E69093421A10924B1A10924A1A682FD1
:103E50008AEC93E20E94801081E00E943007811179
:103E60000DC061E088E60E948D0710924D1A809384
:103E70004C1A8AEC93E20E943910C82F8C2FCF91F4
:103E800008951F93CF93DF9381E08093211A88E6F2
:103E90008093421A10924B1A10924A1A60E08AECF0
:103EA00093E20E948010C6EDD9E128811AE0822FAA
:103EB000612F0E94F469682F660F680F660F620F0A
:103EC0008AEC93E20E9480102981822F612F0E9448
:103ED000F469682F660F680F660F620F8AEC93E231
:103EE0000E9480102A81822F612F0E94F469682F1E
:103EF000660F680F660F620F8AEC93E20E948010D3
:103F00006B818AEC93E20E9480102C81822F612FBA
:103F10000E94F469682F660F680F660F620F8AECC3
:103F200093E20E9480102D81822F612F0E94F469FC
:103F3000682F660F680F660F620F8AEC93E20E948B
:103F400080102E812E51822F612F0E94F469682FDC
:103F5000660F680F660F620F8AEC93E20E94801072
:103F600081E00E943007C82F8FE00E941C1F682F3D
:103F70006F778FE00E94AF108C2FDF91CF911F9150
:103F80000895CF93DF93C82FD62F8EE00E941C1F79
:103F90004C2F4150550B61E070E001C0660F4A950F
:103FA000EAF7DD2331F0682B8EE0DF91CF910C949E
:103FB000AF1060956823F8CFCF93DF93C82F8FE0C1
:103FC0000E941C1FC150DD0B21E030E001C0220F18
:103FD000CA95EAF7982F922351F02095622F682313
:103FE0008FE00E94AF1081E0DF91CF91089580E0D3
:103FF000FBCFCF9382E10E941C1FC82F81E10E945A
:104000001C1F2C2F382F37FF02C0215C3F4FC901E6
:1040100026E0959587952A95E1F7CF9108958F929F
:104020009F92AF92BF92CF92DF92EF92FF920F9347
:104030001F93CF93DF9300D000D0CDB7DEB7FC0144
:104040008581813091F080E00F900F900F900F905C
:10405000DF91CF911F910F91FF90EF90DF90CF9064
:10406000BF90AF909F908F900895848181FFEBCF98
:1040700083899489A589B689892B8A2B8B2B09F48E
:104080005EC07F0140E050E0BA01CF010E94C2163D
:104090008823C9F2F701C38CD48C8788908CA18CBB
:1040A000B28C82E090E0A0E0B0E0F60180839183E2
:1040B000A283B3839E012F5F3F4FB501A401C601C8
:1040C0000E948215882309F4BECF00E010E0980119
:1040D000B501A401C6010E94E014882309F4B3CFFE
:1040E00089809A80AB80BC80F6018789803111F18C
:1040F00088EF9FEFAFEFBFE088169906AA06BB06D0
:10410000C8F2F701178A108E118E128E138A148A44
:10411000158A168A848180688483C7010E94571992
:10412000882309F490CF40E050E0BA01C7010E9413
:10413000C2168ACF88EF9FEFA0E0B0E0DDCF81E02C
:1041400083CFCF93DF93EC010E940F20882369F087
:10415000CE010E949E13009741F025EEFC012083C2
:104160001D82DF91CF910C94181380E0DF91CF91E5
:104170000895CF92DF92EF92FF921F93CF93DF9338
:10418000EC0180E2689FF0011124E154F84E938520
:10419000917161F0842F827449F080E0DF91CF91BA
:1041A0001F91FF90EF90DF90CF900895142F6A8BAE
:1041B0008091120190911301A0911401B091150109
:1041C0008E879F87A88BB98BC488D588F12CE12C6A
:1041D0007601DD24CC24CF8AD88EE98EFA8E828DAA
:1041E000938DB0E0A0E0AC01BD014C295D296E29A2
:1041F0007F294F8B588F698F7A8F83858871B1F4AF
:10420000848D958DA68DB78D8B8B9C8BAD8BBE8B46
:1042100081E08D831F701C831E821F821886198681
:104220001A861B861C861D8681E0B8CF803109F076
:10423000B4CF9E012D5E3F4F8B8D9C8D0E94031647
:10424000882309F4AACF84E0E4CF2F923F924F92C3
:104250005F926F927F928F929F92AF92BF92CF9216
:10426000DF92EF92FF920F931F93CF93DF9300D0D3
:1042700000D000D0CDB7DEB78C016B83498380912D
:10428000602022242394280E20926020312CC12CFF
:10429000D12C7601D39477247394730C809163208E
:1042A000831508F4EFC08091592090915A20DC01C9
:1042B000ED91FC91008CF18DE02D622D099580919E
:1042C000592090915A20DC01ED91FC91028CF38DE4
:1042D000E02D40E860E0099549816B81C8010E94AA
:1042E00018080E940D08B981BF3FD1F481E02696DD
:1042F0000FB6F894DEBF0FBECDBFDF91CF911F91F7
:104300000F91FF90EF90DF90CF90BF90AF909F9074
:104310008F907F906F905F904F903F902F90089577
:1043200021E0271598F480915C2090915D20A09168
:104330005E20B0915F200196A11DB11D80935C208D
:1043400090935D20A0935E20B0935F200E945D0B50
:104350004B015C0180916120909162209D838C8350
:104360000E945066A70196010E9472689B01AC01F1
:10437000AC81BD810E949168A70196010E9472687C
:10438000AC81BD812A0F3B1F372C2901712C612C78
:104390000E945D0B681979098A099B0964157505E6
:1043A0008605970508F077CF8091592090915A2083
:1043B000DC01ED91FC910280F381E02D09958823C9
:1043C00039F38091592090915A20DC01ED91FC91B4
:1043D0000480F581E02D50E040E070E060E0099558
:1043E0008823B1F28091592090915A20DC01ED91FF
:1043F000FC9100A0F1A1E02D09958E8380915920B8
:1044000090915A20DC01ED91FC91068CF78DE02D06
:1044100009958A838091592090915A20DC01ED9171
:10442000FC9102A0F3A1E02D09958C838091592085
:1044300090915A20DC01ED91FC9104A0F5A1E02DB2
:104440000995B9812E81B2130BC090915B20AA818E
:104450009A1306C087FF04C0BC812B1609F446CF0F
:1044600087FD96CF2E81E22FF0E0E75AFF4D83853E
:104470009C8189138DCF422F692F89E590E20E949C
:10448000280E86CF80E033CF0F931F93CF93DF9317
:104490004115510541F0FC010481158101151105FB
:1044A00039F4FB011082DF91CF911F910F91089594
:1044B000415051094017510708F48A01EB01FC01F2
:1044C00060817181A801CE010E943F6BC00FD11F96
:1044D0001882E9CFFB0101900020E9F73197AF0185
:1044E000461B570BDC01ED91FC910280F381E02D1E
:1044F00009948F929F92AF92BF92EF92FF920F9387
:104500001F93CF93DF93CDB7DEB7A1970FB6F89483
:10451000DEBF0FBECDBF7C01FA01CB0119A2223054
:1045200008F42AE08E010F5D1F4F822E912CB12CD2
:10453000A12CBF01A50194010E94A468F901CA0140
:104540006A300CF5605DD8016E938D01232B242B0E
:10455000252B79F790E080E0109721F0BD01C7018D
:104560000E946A22A1960FB6F894DEBF0FBECDBF9F
:10457000DF91CF911F910F91FF90EF90BF90AF907F
:104580009F908F900895695CDECF482F50E070E0D7
:1045900060E02AE08BE69CE10C947922CF92DF92D6
:1045A000EF92FF920F931F93CF93DF9377FF1DC07E
:1045B0006A017B01EC016DE20E945C088C014427DA
:1045C0005527BA014C195D096E097F092AE0CE0111
:1045D0000E947922800F911FDF91CF911F910F913F
:1045E000FF90EF90DF90CF9008952AE0DF91CF9178
:1045F0001F910F91FF90EF90DF90CF900C94792254
:1046000069E678E00C946A22CF93DF930E94C5227A
:10461000EC018BE69CE10E9400238C0F9D1FDF9133
:10462000CF910895CF92DF92EF92FF92CF930E94A5
:104630005D0B6B017C0128E9C20E2AE3D21EE11C4E
:10464000F11CC092CD12D092CE12E092CF12F09215
:10465000D0121092E6121092E5121092CC120E9423
:104660005D0B6C157D058E059F0548F58BE69CE17D
:104670000E94E5081816190694F764E670E080E0D9
:1046800090E00E94E40A8BE69CE10E94E5086C0140
:104690009093E6128093E512F12CCAE0E090CC12E0
:1046A000FC141D0464F48BE69CE10E94C408EC9E9B
:1046B000800D112480538093CC12F394EFCF80911E
:1046C000CC12CF91FF90EF90DF90CF900C94042309
:1046D000CF93DF93AB01BC012AE08BE69CE10E9403
:1046E0007922EC018BE69CE10E9400238C0F9D1F38
:1046F000DF91CF9108950F931F93CF93DF93EC0138
:10470000AB01770F660B770B0E94CE228C01CE0196
:104710000E940023800F911FDF91CF911F910F9175
:104720000895CF92DF92EF92FF920F931F93CF9352
:10473000DF931092E6121092E5120E945D0B6B015E
:104740007C0128E9C20E2AE3D21EE11CF11CC092B2
:10475000CD12D092CE12E092CF12F092D0121092DF
:10476000CB121092CA120E945D0B6C157D058E054E
:104770009F0508F046C08BE69CE10E94E5081816EC
:1047800019068CF764E670E080E090E00E94E40A8D
:104790008BE69CE10E94E5088C019093E6128093E1
:1047A000E51281E08093C9123AE0C32ED090C9127D
:1047B000CD2DD0E0E090CA12F090CB120C171D075F
:1047C00004F18BE69CE10E94C408CC0FDD1FC554A8
:1047D000DD4E998388838D30910579F08A3091057B
:1047E00061F0C097CE9C9001CF9C300D1124820FB8
:1047F000931F9093CB128093CA12D394D092C91274
:10480000D5CF6091CA127091CB128BE69CE10E94C9
:104810007B236AE070E080E090E0DF91CF911F9110
:104820000F91FF90EF90DF90CF900C94E40A0F93DC
:104830001F93CF93DF93EC010E946A228C01CE017B
:104840000E940023800F911FDF91CF911F910F9144
:104850000895CF92DF92EF92FF920F931F93CF9321
:10486000DF930E945D0B6B017C0128E9C20E2AE3F5
:10487000D21EE11CF11C1092E6121092E5120E9469
:104880005D0B6C157D058E059F0568F58BE69CE13B
:104890000E94E5081816190694F764E670E080E0B7
:1048A00090E00E94E40A8BE69CE10E94E508EC019E
:1048B0009093E6128093E512F12C0F2D10E0C017B3
:1048C000D10774F08BE69CE10E94C4088D3031F072
:1048D0008A3021F0F801EF52FD4E8083F394EDCF42
:1048E000CF52DD4E188261ED72E18BE69CE1DF91E3
:1048F000CF911F910F91FF90EF90DF90CF900C948C
:1049000017240F931F93CF93DF93EC01FB01448196
:10491000558160817181E881F9810280F381E02D08
:1049200009958C01CE010E940023800F911FDF9119
:10493000CF911F910F9108950F931F93CF93DF9302
:10494000EC010E9463088C01CE010E940023800FBD
:10495000911FDF91CF911F910F910895CF93DF9316
:10496000EC010E94A60BBE01809157209091582027
:104970000E949C2480E0DF91CF910C94160BCF9382
:10498000DF93EB010E94AE24882341F0BE018DE449
:104990009FE10E94CF6621E0892B09F020E0822F61
:1049A000DF91CF910895CF93DF9390935820809318
:1049B000572061E080914B1F0E94790A61E080914D
:1049C0004B1F0E94190A6AE070E080E090E00E94AC
:1049D000E40A60E080914B1F0E94190A64E670E0CF
:1049E00080E090E00E94E40A61E080914B1F0E9409
:1049F000190ACEE0D0E08091572090915820DC0138
:104A0000ED91FC910084F185E02D0995892B61F0F1
:104A10008091572090915820DC01ED91FC91028407
:104A2000F385E02D0995E7CF6091552070915620D0
:104A30008DEE9DE00E94BF24811154C080915720CB
:104A400090915820DC01ED91FC910084F185E02DDE
:104A50000995892B61F08091572090915820DC01B5
:104A6000ED91FC910284F385E02D0995E7CF67EE87
:104A70007DE08AEE9DE00E94BF24811133C064EF87
:104A800071E080E090E00E94E40A219709F0B3CF42
:104A9000609155207091562084EE9DE00E94BF24C5
:104AA00064E670E080E090E00E94E40A60915520A6
:104AB0007091562081EE9DE00E94BF2464E670E074
:104AC00080E090E00E94E40A6091552070915620A9
:104AD0008EED9DE00E94BF2464E670E080E090E0EF
:104AE0000E94E40A609155207091562089ED9DE066
:104AF0000E94BF2464E670E080E090E00E94E40A37
:104B0000609155207091562084ED9DE00E94BF2455
:104B1000C82F882309F448C0609155207091562011
:104B20008AEC9DE00E94BF2464E670E080E090E0A3
:104B30000E94E40A0E94A60B6CE172E0809157206B
:104B4000909158200E94172481E00E94160B6FEB71
:104B50007DE08DE49FE10E94E166892B49F183E0CD
:104B600080934C1F80914C1F8130B1F460E272E061
:104B700080915720909158200E94172481E00E9434
:104B8000160B61E87DE08DE49FE10E94E166892BD0
:104B900019F086E080934C1F60915520709156204B
:104BA0008AE69DE00E94BF248C2FDF91CF9108956B
:104BB00064EB7DE08DE49FE10E94E166892B11F0BA
:104BC00082E0CECF69EA7DE08DE49FE10E94E1665C
:104BD000892B11F081E0C4CF69E97DE08DE49FE18C
:104BE0000E94E166892B11F084E0BACF69E87DE08C
:104BF0008DE49FE10E94E166892B09F4B3CF85E043
:104C0000AFCF61E471E08BE69CE10E946308809184
:104C1000AE120E94C5226EE371E08BE69CE10E9419
:104C200063088091AE12811106C06FE271E08BE6DD
:104C30009CE10E949C248091AE12813031F46DE1A0
:104C400071E08BE69CE10E949C248091AE12823040
:104C500031F462E071E08BE69CE10E949C2480913B
:104C6000AE12833031F46BEF70E08BE69CE10E9472
:104C70009C248091AE12843031F463EF70E08BE6B7
:104C80009CE10E949C248091AE12853031F460EE4C
:104C900070E08BE69CE10E949C2464E670E080E07A
:104CA00090E00C94E40A6115710511F00C946A22ED
:104CB00090E080E008951F93CF93DF930E94A31E9E
:104CC0008091BA128430A9F44091B517242F30E0B6
:104CD000C90102968231910509F45BC0423131F479
:104CE00068E170E00E94146AC82F12C0C9010496DE
:104CF000F7CF813071F4C091B5178C2F90E00196F9
:104D0000C23171F78091B417833208F443C0C3E114
:104D1000D3E02AE08C2F622F0E94F469182F110F24
:104D2000180F110F1C0F8D2F0E94F469682F660F4A
:104D3000680F660F6D0F8BE00E94AF10612F8CE043
:104D40000E94AF1060E88DE00E94AF1080911701C3
:104D50008823B1F08091B617811112C067E272E02A
:104D60008BE69CE10E9453268C2F0E94C52265E0B1
:104D70007AE08BE69CE10E9453268D2F0E9404234B
:104D800062E370E080E090E0DF91CF911F910C949E
:104D9000E40AC2E1D3E2BDCFCF930E94A31E2091CB
:104DA000B812E22FF0E08091B4178E0F9F2F911D63
:104DB0006CE370E00E94146ABF010E94146A269F8F
:104DC000202D11242F5F2093AC12822F6AE00E94C5
:104DD000F469C82FCC0FC80FCC0FC20F60E087E07A
:104DE0000E94AF106C2F88E00E94AF1060E889E04D
:104DF0000E94AF1060E88AE00E94AF108091170116
:104E0000882371F08091B61781110AC069E372E0BE
:104E10008BE69CE10E9453268091AC120E940423F1
:104E200062E370E080E090E0CF910C94E40ADF92BE
:104E3000EF92FF920F931F93CF93DF938B017A0131
:104E4000D22E0E94AE24B8018DE49FE10E94E1665B
:104E5000EC01892BF9F0C8010E94D8668C0F9D1FC8
:104E6000DD2039F06CE270E00E942D6B009791F02C
:104E700001960E94A866F7019183808380E00E94DA
:104E8000160B81E0DF91CF911F910F91FF90EF9072
:104E9000DF90089580E0F6CFCF93DF9300D0CDB7B9
:104EA000DEB721E0AE014F5F5F4F69E57DE081E64F
:104EB0009DE00E941727882331F089810F900F9081
:104EC000DF91CF91089580E0F9CFCF93DF9300D0A9
:104ED000CDB7DEB720E0AE014F5F5F4F6BE47DE002
:104EE00082E59DE00E941727882331F089810F9089
:104EF0000F90DF91CF91089580E0F9CF0E94126B5F
:104F00000F931F93CF93DF93EC01888199810097D2
:104F100059F02A813B812617370730F081E0DF9175
:104F2000CF911F910F9108958B016F5F7F4F0E946A
:104F3000316A009759F0998388831B830A832C81F7
:104F40003D81232B59F7FC011082E8CF80E0E7CFA9
:104F5000EF92FF920F931F93CF93DF93611571052B
:104F600041F480E0DF91CF911F910F91FF90EF907E
:104F7000089541155105B1F07B01EC010C811D81B3
:104F8000040F151FB8010E948027882351F3288140
:104F900039818C819D81B701820F931F0E94386BEC
:104FA0001D830C8381E0DECFEF92FF920F931F935E
:104FB000CF93DF9300D000D0CDB7DEB77C01862F32
:104FC0004AE08E010F5F1F4FB80190E00E94FB6620
:104FD000F80101900020E9F73197AF01401B510B18
:104FE000B801C7010E94A8270F900F900F900F9053
:104FF000DF91CF911F910F91FF90EF900895CF9384
:10500000DF9300D0CDB7DEB769831A8241E050E06C
:10501000BE016F5F7F4F0E94A8270F900F90DF9116
:10502000CF910895FB0101900020E9F73197AF017E
:10503000461B570B0C94A827FB01448155816081C6
:1050400071810C94A827CF93DF93EC01888199811B
:10505000009711F00E947B65198218821D821C82C4
:105060001B821A82DF91CF910895CF93DF93EC01D9
:105070006115710539F4CE010E942328CE01DF911C
:10508000CF910895FB0101900020E9F73197AF011E
:10509000461B570B0E94A827882369F3EFCFCF93B5
:1050A000DF93EC01FB0144815581608171810E9495
:1050B000A827811103C0CE010E942328CE01DF91D1
:1050C000CF910895EF92FF920F931F93CF93DF93A9
:1050D000EC017B018A01BA010E94802781110BC07B
:1050E000CE010E942328CE01DF91CF911F910F9115
:1050F000FF90EF9008951D830C83B70188819981FB
:105100000E94386BF0CFFB0101900020E9F7319746
:10511000AF01461B570B0C9462280F931F93CF933C
:10512000DF93CDB7DEB729970FB6F894DEBF0FBE79
:10513000CDBF8C01862FF80111821082138212825A
:10514000158214824AE0BE016F5F7F4F90E00E949B
:105150000E67BE016F5F7F4FC8010E9483282996AA
:105160000FB6F894DEBF0FBECDBFDF91CF911F9178
:105170000F9108950F931F93CF93DF93CDB7DEB7B1
:1051800062970FB6F894DEBF0FBECDBF8C01CB0186
:10519000F8011182108213821282158214824AE071
:1051A000BE016F5F7F4F0E94FB66BE016F5F7F4F46
:1051B000C8010E94832862960FB6F894DEBF0FBE26
:1051C000CDBFDF91CF911F910F9108950F931F9342
:1051D000CF93DF93CDB7DEB728970FB6F894DEBF35
:1051E0000FBECDBF6AEB73E08EE893E20E94832886
:1051F0000E94A31E4AE08E010F5F1F4FB8018091ED
:10520000B4129091B5120E94FB66F8010190002043
:10521000E9F73197AF01401B510BB8018EE893E2DB
:105220000E94A8276DE28EE893E20E94FF2760911A
:10523000B7128EE893E20E94D4276DE28EE893E2E3
:105240000E94FF276091B6128EE893E20E94D42755
:105250006FE58EE893E20E94FF276091B5178EE814
:1052600093E20E94D4276AE38EE893E20E94FF272C
:105270001091B4171A3028F460E38EE893E20E948C
:10528000FF27612F8EE893E20E94D4276AE38EE81D
:1052900093E20E94FF271091B3121A3028F460E3C2
:1052A0008EE893E20E94FF27612F8EE893E20E942E
:1052B000D4276BE472E08EE893E20E94122862E346
:1052C00070E080E090E00E94E40A28960FB6F8941F
:1052D000DEBF0FBECDBFDF91CF911F910F9108951B
:1052E000CF93DF93C0E0D6E08091B912C81758F48D
:1052F000CD9FC00111246AEB73E086569C4D0E943D
:105300008328CF5FF1CFDF91CF910895CF93DF93C3
:10531000EC01FB018617970749F0608171816115E7
:10532000710541F0448155810E946228CE01DF91D0
:10533000CF9108950E942328F9CFFC011182108299
:1053400013821282158214820C948629FC01118228
:1053500010821382128215821482FB0101900020B8
:10536000E9F73197AF01461B570B0C946228FC01FB
:10537000808191810C947B654F925F926F927F92B6
:105380008F929F92AF92BF92CF92DF92EF92FF9255
:105390000F931F93CF93DF93CDB7DEB72B970FB645
:1053A000F894DEBF0FBECDBF8C01A62ECDB6DEB603
:1053B0000E94A31E6AEB73E0C8010E9483286091DB
:1053C000B4127091B512CE0101960E94BA28BE01A6
:1053D0006F5F7F4FC8010E941C28CE0101960E947A
:1053E000B72960E572E0C8010E9412286091B712E7
:1053F000CE0101960E948D28BE016F5F7F4FC801CC
:105400000E941C28CE0101960E94B72960E572E037
:10541000C8010E9412286091B612CE0101960E9426
:105420008D28BE016F5F7F4FC8010E941C28CE01EE
:1054300001960E94B72962E572E0C8010E94122815
:105440006091B517CE0101960E948D28BE016F5F55
:105450007F4FC8010E941C28CE0101960E94B729E7
:1054600065E07AE0C8010E9412286091B417CE016D
:1054700001960E948D28BE016F5F7F4FC8010E9478
:105480001C28CE0101960E94B72965E07AE0C80188
:105490000E9412286091B312CE0101960E948D28BD
:1054A000BE016F5F7F4FC8010E941C28CE0101968C
:1054B0000E94B729D80114962D913C91BB24B39436
:1054C000B20EEDB7FEB7EB19F1090FB6F894FEBFB7
:1054D0000FBEEDBF4DB75EB74F5F5F4F7A0140E043
:1054E000842F90E08217930730F4D801ED91FC915E
:1054F000309709F060C01092AD12EDEAF2E18E0D26
:105500009F1D5081FC0150834F5FB41648F76AEB32
:1055100073E0C8010E9483284A2D6B2DC7010E94A9
:105520002521882309F46AC00E945D0B2B013C01F0
:105530006AEB73E0C8010E94832888EE882E83E01E
:10554000982EA12CB12CEE24EA94E9820E945D0BE6
:10555000688779878A879B870E945D0B28853985B4
:105560004A855B85621B730B840B950B6C3175420E
:1055700081059105C0F59E01295F3F4FAE014F5F48
:105580005F4F64E671E289E590E20E945A0EF82EC0
:10559000882311F3A0906421BB24B3948981B816A9
:1055A00068F4EB2DF0E0EC59FE4D6081C8010E94DB
:1055B000FF27B394F3CFE80FF91FA1CFAA2021F161
:1055C000812C912C5401C1CF0E945D0B6419750987
:1055D0008609970986169706A806B90608F0B5CF7A
:1055E0006AE672E007C081149104A104B10461F776
:1055F00064E572E08BE69CE10E9417246AEB73E09D
:10560000C8010E948328F12C8F2D0FB6F894DEBEBE
:105610000FBECDBE2B960FB6F894DEBF0FBECDBF2A
:10562000DF91CF911F910F91FF90EF90DF90CF907E
:10563000BF90AF909F908F907F906F905F904F90B2
:1056400008952F923F924F925F926F927F928F9226
:105650009F92AF92BF92CF92DF92EF92FF920F9301
:105660001F93CF93DF93CDB7DEB769970FB6F8944A
:10567000DEBF0FBECDBF2B013C012DB73EB7398F2A
:10568000288F0E945D0B4B015C01809117018823DC
:1056900071F08091B61781110AC08BE69CE10E94DF
:1056A000002360E872E08BE69CE10E9417246AEB1D
:1056B00073E0CE0101960E94A6296AEB73E0CE0149
:1056C00007960E94A6298091B912EDB7FEB7E81B94
:1056D000F1090FB6F894FEBF0FBEEDBF0DB71EB7B0
:1056E0000F5F1F4FAFEBB9E1202FF8019E2F921BE8
:1056F000981718F49D919193F9CF6AEB73E0CE015E
:105700000D960E94A629F12C0E945D0B681979095B
:105710008A099B09641575058605970520F4FF2005
:10572000E9F1FF24F39480912D0181116EC082E094
:105730008F8B809164228D8B10E08091B9121817A5
:1057400008F01DC1E12FF0E0E154F64E408161E028
:10575000CE0145960E9425218823F1F00E945D0B21
:105760006B017C010E945D0B6C197D098E099F09FC
:105770006C3271408105910578F49E012A5E3F4F9D
:10578000AE01495E5F4FBE016D5E7F4F89E590E2DD
:105790000E945A0E882331F31F5FCFCFE12CFF24E4
:1057A000F3948091B912E81608F0AECF6801CE0CE0
:1057B000D11CF6013080332009F180911701882334
:1057C00049F06EEA72E08BE69CE10E945326832D3D
:1057D0000E94042383E0282E632DCE010D960E94A3
:1057E000BC29882369F0F60110826CEB72E08BE62D
:1057F0009CE10E945326832D0E940423E394D1CF81
:105800002A942110E9CFF12CF9CFCDB6DEB6E12CE8
:105810008091B912E816F8F48E2D90E0F801E80FA7
:10582000F91F608161110FC08154964EFC016081A7
:10583000CE0101960E94D42760E2CE0101960E941B
:10584000FF27E394E5CFCE0107960E94D42760E2BC
:10585000CE010796F4CF4D814F5F50E05A01F1E041
:10586000AF1AB1082DB73EB7241B350B0FB6F8940D
:105870003EBF0FBE2DBF0DB71EB70F5F1F4FB80144
:10588000CE0101960E944422F801EA0DFB1D108210
:105890000E94A31E70906422F1109DC08DB69EB62A
:1058A0004B854F5F50E05A0131E0A31AB1088DB724
:1058B0009EB7841B950B0FB6F8949EBF0FBE8DBF8D
:1058C000EDB7FEB731967F01BF01CE0107960E946A
:1058D0004422F701EA0DFB1D108262E370E080E0D4
:1058E00090E00E94E40AFF92EF921F930F93809141
:1058F000B4171F928F938091B5171F928F93809149
:10590000B5128F938091B4128F938091B6121F922B
:105910008F938091B7121F928F931F927F928091E5
:10592000B2178F938091B1178F938091B0178F9397
:105930008091AF178F9384ED92E09F938F9384ECC7
:105940009EE09F938F930E94686B64E670E080E016
:1059500090E00E94E40A0FB6F8949EBE0FBE8DBE82
:1059600080911701882331F064EC7EE08BE69CE1A6
:105970000E9417240FB6F894DEBE0FBECDBECE0136
:105980000D960E94B729CE0107960E94B729CE0135
:1059900001960E94B729888D998D0FB6F8949EBF05
:1059A0000FBE8DBF69960FB6F894DEBF0FBECDBF98
:1059B000DF91CF911F910F91FF90EF90DF90CF90EB
:1059C000BF90AF909F908F907F906F905F904F901F
:1059D0003F902F9008951F930F938091B4171F92BB
:1059E0008F938091B5171F928F938091B5128F93EB
:1059F0008091B4128F938091B6121F928F938091F1
:105A0000B7121F928F931F927F928091B2178F933C
:105A10008091B1178F938091B0178F938091AF17BA
:105A20008F9383E293E09F938F9384EC9EE09F9308
:105A30008F930E94686B62E370E080E090E00E94C8
:105A4000E40A2DB73EB72A5E3F4F0FB6F8943EBF2B
:105A50000FBE2DBF85CFCF93DF93EC01898D9A8D3B
:105A6000009741F00E948619898D9A8D0E947B656E
:105A70001A8E198EDF91CF910895CF92DF92EF9217
:105A8000FF920F931F93CF93DF93EC017B018A0169
:105A9000E881F9810280F381E02D0995D82E8823D1
:105AA00029F1E114F104D1F001151105B9F0CFB6D7
:105AB000F8948A8D8350990BF801208128171906D4
:105AC0001CF08A8D84508083F801408150E0BE0133
:105AD000615E7F4FC7010E94246BCFBE8FB7F894E1
